{
	"contracts/Q9_CertificateIssuer.sol": {
		"CertificateIssuer": {
			"abi": [
				{
					"inputs": [],
					"stateMutability": "nonpayable",
					"type": "constructor"
				},
				{
					"inputs": [
						{
							"internalType": "uint256",
							"name": "",
							"type": "uint256"
						}
					],
					"name": "certificates",
					"outputs": [
						{
							"internalType": "string",
							"name": "name",
							"type": "string"
						},
						{
							"internalType": "string",
							"name": "courseId",
							"type": "string"
						},
						{
							"internalType": "string",
							"name": "issueDate",
							"type": "string"
						}
					],
					"stateMutability": "view",
					"type": "function"
				},
				{
					"inputs": [
						{
							"internalType": "uint256",
							"name": "studentId",
							"type": "uint256"
						}
					],
					"name": "getCertificate",
					"outputs": [
						{
							"components": [
								{
									"internalType": "string",
									"name": "name",
									"type": "string"
								},
								{
									"internalType": "string",
									"name": "courseId",
									"type": "string"
								},
								{
									"internalType": "string",
									"name": "issueDate",
									"type": "string"
								}
							],
							"internalType": "struct CertificateIssuer.Certificate",
							"name": "",
							"type": "tuple"
						}
					],
					"stateMutability": "view",
					"type": "function"
				},
				{
					"inputs": [
						{
							"internalType": "uint256",
							"name": "studentId",
							"type": "uint256"
						},
						{
							"internalType": "string",
							"name": "name",
							"type": "string"
						},
						{
							"internalType": "string",
							"name": "course",
							"type": "string"
						},
						{
							"internalType": "string",
							"name": "issueDate",
							"type": "string"
						}
					],
					"name": "issueCertificate",
					"outputs": [],
					"stateMutability": "nonpayable",
					"type": "function"
				},
				{
					"inputs": [],
					"name": "university",
					"outputs": [
						{
							"internalType": "address",
							"name": "",
							"type": "address"
						}
					],
					"stateMutability": "view",
					"type": "function"
				}
			],
			"devdoc": {
				"kind": "dev",
				"methods": {},
				"version": 1
			},
			"evm": {
				"assembly": "    /* \"contracts/Q9_CertificateIssuer.sol\":57:746  contract CertificateIssuer {... */\n  mstore(0x40, 0x80)\n    /* \"contracts/Q9_CertificateIssuer.sol\":282:336  constructor() {... */\n  callvalue\n  dup1\n  iszero\n  tag_1\n  jumpi\n  revert(0x00, 0x00)\ntag_1:\n  pop\n    /* \"contracts/Q9_CertificateIssuer.sol\":319:329  msg.sender */\n  caller\n    /* \"contracts/Q9_CertificateIssuer.sol\":306:316  university */\n  0x00\n  0x00\n    /* \"contracts/Q9_CertificateIssuer.sol\":306:329  university = msg.sender */\n  0x0100\n  exp\n  dup2\n  sload\n  dup2\n  0xffffffffffffffffffffffffffffffffffffffff\n  mul\n  not\n  and\n  swap1\n  dup4\n  0xffffffffffffffffffffffffffffffffffffffff\n  and\n  mul\n  or\n  swap1\n  sstore\n  pop\n    /* \"contracts/Q9_CertificateIssuer.sol\":57:746  contract CertificateIssuer {... */\n  dataSize(sub_0)\n  dup1\n  dataOffset(sub_0)\n  0x00\n  codecopy\n  0x00\n  return\nstop\n\nsub_0: assembly {\n        /* \"contracts/Q9_CertificateIssuer.sol\":57:746  contract CertificateIssuer {... */\n      mstore(0x40, 0x80)\n      callvalue\n      dup1\n      iszero\n      tag_1\n      jumpi\n      revert(0x00, 0x00)\n    tag_1:\n      pop\n      jumpi(tag_2, lt(calldatasize, 0x04))\n      shr(0xe0, calldataload(0x00))\n      dup1\n      0x51640fee\n      eq\n      tag_3\n      jumpi\n      dup1\n      0x663b3e22\n      eq\n      tag_4\n      jumpi\n      dup1\n      0x7cd44c23\n      eq\n      tag_5\n      jumpi\n      dup1\n      0xae12894e\n      eq\n      tag_6\n      jumpi\n    tag_2:\n      revert(0x00, 0x00)\n        /* \"contracts/Q9_CertificateIssuer.sol\":615:743  function getCertificate(uint studentId) public view returns (Certificate memory) {... */\n    tag_3:\n      tag_7\n      0x04\n      dup1\n      calldatasize\n      sub\n      dup2\n      add\n      swap1\n      tag_8\n      swap2\n      swap1\n      tag_9\n      jump\t// in\n    tag_8:\n      tag_10\n      jump\t// in\n    tag_7:\n      mload(0x40)\n      tag_11\n      swap2\n      swap1\n      tag_12\n      jump\t// in\n    tag_11:\n      mload(0x40)\n      dup1\n      swap2\n      sub\n      swap1\n      return\n        /* \"contracts/Q9_CertificateIssuer.sol\":227:275  mapping(uint => Certificate) public certificates */\n    tag_4:\n      tag_13\n      0x04\n      dup1\n      calldatasize\n      sub\n      dup2\n      add\n      swap1\n      tag_14\n      swap2\n      swap1\n      tag_9\n      jump\t// in\n    tag_14:\n      tag_15\n      jump\t// in\n    tag_13:\n      mload(0x40)\n      tag_16\n      swap4\n      swap3\n      swap2\n      swap1\n      tag_17\n      jump\t// in\n    tag_16:\n      mload(0x40)\n      dup1\n      swap2\n      sub\n      swap1\n      return\n        /* \"contracts/Q9_CertificateIssuer.sol\":342:609  function issueCertificate(uint studentId, string memory name, string memory course, string memory issueDate) public {... */\n    tag_5:\n      tag_18\n      0x04\n      dup1\n      calldatasize\n      sub\n      dup2\n      add\n      swap1\n      tag_19\n      swap2\n      swap1\n      tag_20\n      jump\t// in\n    tag_19:\n      tag_21\n      jump\t// in\n    tag_18:\n      stop\n        /* \"contracts/Q9_CertificateIssuer.sol\":91:116  address public university */\n    tag_6:\n      tag_22\n      tag_23\n      jump\t// in\n    tag_22:\n      mload(0x40)\n      tag_24\n      swap2\n      swap1\n      tag_25\n      jump\t// in\n    tag_24:\n      mload(0x40)\n      dup1\n      swap2\n      sub\n      swap1\n      return\n        /* \"contracts/Q9_CertificateIssuer.sol\":615:743  function getCertificate(uint studentId) public view returns (Certificate memory) {... */\n    tag_10:\n        /* \"contracts/Q9_CertificateIssuer.sol\":676:694  Certificate memory */\n      tag_26\n      tag_27\n      jump\t// in\n    tag_26:\n        /* \"contracts/Q9_CertificateIssuer.sol\":713:725  certificates */\n      0x01\n        /* \"contracts/Q9_CertificateIssuer.sol\":713:736  certificates[studentId] */\n      0x00\n        /* \"contracts/Q9_CertificateIssuer.sol\":726:735  studentId */\n      dup4\n        /* \"contracts/Q9_CertificateIssuer.sol\":713:736  certificates[studentId] */\n      dup2\n      mstore\n      0x20\n      add\n      swap1\n      dup2\n      mstore\n      0x20\n      add\n      0x00\n      keccak256\n        /* \"contracts/Q9_CertificateIssuer.sol\":706:736  return certificates[studentId] */\n      mload(0x40)\n      dup1\n      0x60\n      add\n      0x40\n      mstore\n      swap1\n      dup2\n      0x00\n      dup3\n      add\n      dup1\n      sload\n      tag_29\n      swap1\n      tag_30\n      jump\t// in\n    tag_29:\n      dup1\n      0x1f\n      add\n      0x20\n      dup1\n      swap2\n      div\n      mul\n      0x20\n      add\n      mload(0x40)\n      swap1\n      dup2\n      add\n      0x40\n      mstore\n      dup1\n      swap3\n      swap2\n      swap1\n      dup2\n      dup2\n      mstore\n      0x20\n      add\n      dup3\n      dup1\n      sload\n      tag_31\n      swap1\n      tag_30\n      jump\t// in\n    tag_31:\n      dup1\n      iszero\n      tag_32\n      jumpi\n      dup1\n      0x1f\n      lt\n      tag_33\n      jumpi\n      0x0100\n      dup1\n      dup4\n      sload\n      div\n      mul\n      dup4\n      mstore\n      swap2\n      0x20\n      add\n      swap2\n      jump(tag_32)\n    tag_33:\n      dup3\n      add\n      swap2\n      swap1\n      0x00\n      mstore\n      keccak256(0x00, 0x20)\n      swap1\n    tag_34:\n      dup2\n      sload\n      dup2\n      mstore\n      swap1\n      0x01\n      add\n      swap1\n      0x20\n      add\n      dup1\n      dup4\n      gt\n      tag_34\n      jumpi\n      dup3\n      swap1\n      sub\n      0x1f\n      and\n      dup3\n      add\n      swap2\n    tag_32:\n      pop\n      pop\n      pop\n      pop\n      pop\n      dup2\n      mstore\n      0x20\n      add\n      0x01\n      dup3\n      add\n      dup1\n      sload\n      tag_35\n      swap1\n      tag_30\n      jump\t// in\n    tag_35:\n      dup1\n      0x1f\n      add\n      0x20\n      dup1\n      swap2\n      div\n      mul\n      0x20\n      add\n      mload(0x40)\n      swap1\n      dup2\n      add\n      0x40\n      mstore\n      dup1\n      swap3\n      swap2\n      swap1\n      dup2\n      dup2\n      mstore\n      0x20\n      add\n      dup3\n      dup1\n      sload\n      tag_36\n      swap1\n      tag_30\n      jump\t// in\n    tag_36:\n      dup1\n      iszero\n      tag_37\n      jumpi\n      dup1\n      0x1f\n      lt\n      tag_38\n      jumpi\n      0x0100\n      dup1\n      dup4\n      sload\n      div\n      mul\n      dup4\n      mstore\n      swap2\n      0x20\n      add\n      swap2\n      jump(tag_37)\n    tag_38:\n      dup3\n      add\n      swap2\n      swap1\n      0x00\n      mstore\n      keccak256(0x00, 0x20)\n      swap1\n    tag_39:\n      dup2\n      sload\n      dup2\n      mstore\n      swap1\n      0x01\n      add\n      swap1\n      0x20\n      add\n      dup1\n      dup4\n      gt\n      tag_39\n      jumpi\n      dup3\n      swap1\n      sub\n      0x1f\n      and\n      dup3\n      add\n      swap2\n    tag_37:\n      pop\n      pop\n      pop\n      pop\n      pop\n      dup2\n      mstore\n      0x20\n      add\n      0x02\n      dup3\n      add\n      dup1\n      sload\n      tag_40\n      swap1\n      tag_30\n      jump\t// in\n    tag_40:\n      dup1\n      0x1f\n      add\n      0x20\n      dup1\n      swap2\n      div\n      mul\n      0x20\n      add\n      mload(0x40)\n      swap1\n      dup2\n      add\n      0x40\n      mstore\n      dup1\n      swap3\n      swap2\n      swap1\n      dup2\n      dup2\n      mstore\n      0x20\n      add\n      dup3\n      dup1\n      sload\n      tag_41\n      swap1\n      tag_30\n      jump\t// in\n    tag_41:\n      dup1\n      iszero\n      tag_42\n      jumpi\n      dup1\n      0x1f\n      lt\n      tag_43\n      jumpi\n      0x0100\n      dup1\n      dup4\n      sload\n      div\n      mul\n      dup4\n      mstore\n      swap2\n      0x20\n      add\n      swap2\n      jump(tag_42)\n    tag_43:\n      dup3\n      add\n      swap2\n      swap1\n      0x00\n      mstore\n      keccak256(0x00, 0x20)\n      swap1\n    tag_44:\n      dup2\n      sload\n      dup2\n      mstore\n      swap1\n      0x01\n      add\n      swap1\n      0x20\n      add\n      dup1\n      dup4\n      gt\n      tag_44\n      jumpi\n      dup3\n      swap1\n      sub\n      0x1f\n      and\n      dup3\n      add\n      swap2\n    tag_42:\n      pop\n      pop\n      pop\n      pop\n      pop\n      dup2\n      mstore\n      pop\n      pop\n      swap1\n      pop\n        /* \"contracts/Q9_CertificateIssuer.sol\":615:743  function getCertificate(uint studentId) public view returns (Certificate memory) {... */\n      swap2\n      swap1\n      pop\n      jump\t// out\n        /* \"contracts/Q9_CertificateIssuer.sol\":227:275  mapping(uint => Certificate) public certificates */\n    tag_15:\n      mstore(0x20, 0x01)\n      dup1\n      0x00\n      mstore\n      keccak256(0x00, 0x40)\n      0x00\n      swap2\n      pop\n      swap1\n      pop\n      dup1\n      0x00\n      add\n      dup1\n      sload\n      tag_45\n      swap1\n      tag_30\n      jump\t// in\n    tag_45:\n      dup1\n      0x1f\n      add\n      0x20\n      dup1\n      swap2\n      div\n      mul\n      0x20\n      add\n      mload(0x40)\n      swap1\n      dup2\n      add\n      0x40\n      mstore\n      dup1\n      swap3\n      swap2\n      swap1\n      dup2\n      dup2\n      mstore\n      0x20\n      add\n      dup3\n      dup1\n      sload\n      tag_46\n      swap1\n      tag_30\n      jump\t// in\n    tag_46:\n      dup1\n      iszero\n      tag_47\n      jumpi\n      dup1\n      0x1f\n      lt\n      tag_48\n      jumpi\n      0x0100\n      dup1\n      dup4\n      sload\n      div\n      mul\n      dup4\n      mstore\n      swap2\n      0x20\n      add\n      swap2\n      jump(tag_47)\n    tag_48:\n      dup3\n      add\n      swap2\n      swap1\n      0x00\n      mstore\n      keccak256(0x00, 0x20)\n      swap1\n    tag_49:\n      dup2\n      sload\n      dup2\n      mstore\n      swap1\n      0x01\n      add\n      swap1\n      0x20\n      add\n      dup1\n      dup4\n      gt\n      tag_49\n      jumpi\n      dup3\n      swap1\n      sub\n      0x1f\n      and\n      dup3\n      add\n      swap2\n    tag_47:\n      pop\n      pop\n      pop\n      pop\n      pop\n      swap1\n      dup1\n      0x01\n      add\n      dup1\n      sload\n      tag_50\n      swap1\n      tag_30\n      jump\t// in\n    tag_50:\n      dup1\n      0x1f\n      add\n      0x20\n      dup1\n      swap2\n      div\n      mul\n      0x20\n      add\n      mload(0x40)\n      swap1\n      dup2\n      add\n      0x40\n      mstore\n      dup1\n      swap3\n      swap2\n      swap1\n      dup2\n      dup2\n      mstore\n      0x20\n      add\n      dup3\n      dup1\n      sload\n      tag_51\n      swap1\n      tag_30\n      jump\t// in\n    tag_51:\n      dup1\n      iszero\n      tag_52\n      jumpi\n      dup1\n      0x1f\n      lt\n      tag_53\n      jumpi\n      0x0100\n      dup1\n      dup4\n      sload\n      div\n      mul\n      dup4\n      mstore\n      swap2\n      0x20\n      add\n      swap2\n      jump(tag_52)\n    tag_53:\n      dup3\n      add\n      swap2\n      swap1\n      0x00\n      mstore\n      keccak256(0x00, 0x20)\n      swap1\n    tag_54:\n      dup2\n      sload\n      dup2\n      mstore\n      swap1\n      0x01\n      add\n      swap1\n      0x20\n      add\n      dup1\n      dup4\n      gt\n      tag_54\n      jumpi\n      dup3\n      swap1\n      sub\n      0x1f\n      and\n      dup3\n      add\n      swap2\n    tag_52:\n      pop\n      pop\n      pop\n      pop\n      pop\n      swap1\n      dup1\n      0x02\n      add\n      dup1\n      sload\n      tag_55\n      swap1\n      tag_30\n      jump\t// in\n    tag_55:\n      dup1\n      0x1f\n      add\n      0x20\n      dup1\n      swap2\n      div\n      mul\n      0x20\n      add\n      mload(0x40)\n      swap1\n      dup2\n      add\n      0x40\n      mstore\n      dup1\n      swap3\n      swap2\n      swap1\n      dup2\n      dup2\n      mstore\n      0x20\n      add\n      dup3\n      dup1\n      sload\n      tag_56\n      swap1\n      tag_30\n      jump\t// in\n    tag_56:\n      dup1\n      iszero\n      tag_57\n      jumpi\n      dup1\n      0x1f\n      lt\n      tag_58\n      jumpi\n      0x0100\n      dup1\n      dup4\n      sload\n      div\n      mul\n      dup4\n      mstore\n      swap2\n      0x20\n      add\n      swap2\n      jump(tag_57)\n    tag_58:\n      dup3\n      add\n      swap2\n      swap1\n      0x00\n      mstore\n      keccak256(0x00, 0x20)\n      swap1\n    tag_59:\n      dup2\n      sload\n      dup2\n      mstore\n      swap1\n      0x01\n      add\n      swap1\n      0x20\n      add\n      dup1\n      dup4\n      gt\n      tag_59\n      jumpi\n      dup3\n      swap1\n      sub\n      0x1f\n      and\n      dup3\n      add\n      swap2\n    tag_57:\n      pop\n      pop\n      pop\n      pop\n      pop\n      swap1\n      pop\n      dup4\n      jump\t// out\n        /* \"contracts/Q9_CertificateIssuer.sol\":342:609  function issueCertificate(uint studentId, string memory name, string memory course, string memory issueDate) public {... */\n    tag_21:\n        /* \"contracts/Q9_CertificateIssuer.sol\":490:500  university */\n      0x00\n      0x00\n      swap1\n      sload\n      swap1\n      0x0100\n      exp\n      swap1\n      div\n      0xffffffffffffffffffffffffffffffffffffffff\n      and\n        /* \"contracts/Q9_CertificateIssuer.sol\":476:500  msg.sender == university */\n      0xffffffffffffffffffffffffffffffffffffffff\n      and\n        /* \"contracts/Q9_CertificateIssuer.sol\":476:486  msg.sender */\n      caller\n        /* \"contracts/Q9_CertificateIssuer.sol\":476:500  msg.sender == university */\n      0xffffffffffffffffffffffffffffffffffffffff\n      and\n      eq\n        /* \"contracts/Q9_CertificateIssuer.sol\":468:530  require(msg.sender == university, \"Only university can issue\") */\n      tag_61\n      jumpi\n      mload(0x40)\n      0x08c379a000000000000000000000000000000000000000000000000000000000\n      dup2\n      mstore\n      0x04\n      add\n      tag_62\n      swap1\n      tag_63\n      jump\t// in\n    tag_62:\n      mload(0x40)\n      dup1\n      swap2\n      sub\n      swap1\n      revert\n    tag_61:\n        /* \"contracts/Q9_CertificateIssuer.sol\":566:602  Certificate(name, course, issueDate) */\n      mload(0x40)\n      dup1\n      0x60\n      add\n      0x40\n      mstore\n      dup1\n        /* \"contracts/Q9_CertificateIssuer.sol\":578:582  name */\n      dup5\n        /* \"contracts/Q9_CertificateIssuer.sol\":566:602  Certificate(name, course, issueDate) */\n      dup2\n      mstore\n      0x20\n      add\n        /* \"contracts/Q9_CertificateIssuer.sol\":584:590  course */\n      dup4\n        /* \"contracts/Q9_CertificateIssuer.sol\":566:602  Certificate(name, course, issueDate) */\n      dup2\n      mstore\n      0x20\n      add\n        /* \"contracts/Q9_CertificateIssuer.sol\":592:601  issueDate */\n      dup3\n        /* \"contracts/Q9_CertificateIssuer.sol\":566:602  Certificate(name, course, issueDate) */\n      dup2\n      mstore\n      pop\n        /* \"contracts/Q9_CertificateIssuer.sol\":540:552  certificates */\n      0x01\n        /* \"contracts/Q9_CertificateIssuer.sol\":540:563  certificates[studentId] */\n      0x00\n        /* \"contracts/Q9_CertificateIssuer.sol\":553:562  studentId */\n      dup7\n        /* \"contracts/Q9_CertificateIssuer.sol\":540:563  certificates[studentId] */\n      dup2\n      mstore\n      0x20\n      add\n      swap1\n      dup2\n      mstore\n      0x20\n      add\n      0x00\n      keccak256\n        /* \"contracts/Q9_CertificateIssuer.sol\":540:602  certificates[studentId] = Certificate(name, course, issueDate) */\n      0x00\n      dup3\n      add\n      mload\n      dup2\n      0x00\n      add\n      swap1\n      dup2\n      tag_64\n      swap2\n      swap1\n      tag_65\n      jump\t// in\n    tag_64:\n      pop\n      0x20\n      dup3\n      add\n      mload\n      dup2\n      0x01\n      add\n      swap1\n      dup2\n      tag_66\n      swap2\n      swap1\n      tag_65\n      jump\t// in\n    tag_66:\n      pop\n      0x40\n      dup3\n      add\n      mload\n      dup2\n      0x02\n      add\n      swap1\n      dup2\n      tag_67\n      swap2\n      swap1\n      tag_65\n      jump\t// in\n    tag_67:\n      pop\n      swap1\n      pop\n      pop\n        /* \"contracts/Q9_CertificateIssuer.sol\":342:609  function issueCertificate(uint studentId, string memory name, string memory course, string memory issueDate) public {... */\n      pop\n      pop\n      pop\n      pop\n      jump\t// out\n        /* \"contracts/Q9_CertificateIssuer.sol\":91:116  address public university */\n    tag_23:\n      0x00\n      0x00\n      swap1\n      sload\n      swap1\n      0x0100\n      exp\n      swap1\n      div\n      0xffffffffffffffffffffffffffffffffffffffff\n      and\n      dup2\n      jump\t// out\n    tag_27:\n      mload(0x40)\n      dup1\n      0x60\n      add\n      0x40\n      mstore\n      dup1\n      0x60\n      dup2\n      mstore\n      0x20\n      add\n      0x60\n      dup2\n      mstore\n      0x20\n      add\n      0x60\n      dup2\n      mstore\n      pop\n      swap1\n      jump\t// out\n        /* \"#utility.yul\":7:82   */\n    tag_68:\n        /* \"#utility.yul\":40:46   */\n      0x00\n        /* \"#utility.yul\":73:75   */\n      0x40\n        /* \"#utility.yul\":67:76   */\n      mload\n        /* \"#utility.yul\":57:76   */\n      swap1\n      pop\n        /* \"#utility.yul\":7:82   */\n      swap1\n      jump\t// out\n        /* \"#utility.yul\":88:205   */\n    tag_69:\n        /* \"#utility.yul\":197:198   */\n      0x00\n        /* \"#utility.yul\":194:195   */\n      0x00\n        /* \"#utility.yul\":187:199   */\n      revert\n        /* \"#utility.yul\":211:328   */\n    tag_70:\n        /* \"#utility.yul\":320:321   */\n      0x00\n        /* \"#utility.yul\":317:318   */\n      0x00\n        /* \"#utility.yul\":310:322   */\n      revert\n        /* \"#utility.yul\":334:411   */\n    tag_71:\n        /* \"#utility.yul\":371:378   */\n      0x00\n        /* \"#utility.yul\":400:405   */\n      dup2\n        /* \"#utility.yul\":389:405   */\n      swap1\n      pop\n        /* \"#utility.yul\":334:411   */\n      swap2\n      swap1\n      pop\n      jump\t// out\n        /* \"#utility.yul\":417:539   */\n    tag_72:\n        /* \"#utility.yul\":490:514   */\n      tag_118\n        /* \"#utility.yul\":508:513   */\n      dup2\n        /* \"#utility.yul\":490:514   */\n      tag_71\n      jump\t// in\n    tag_118:\n        /* \"#utility.yul\":483:488   */\n      dup2\n        /* \"#utility.yul\":480:515   */\n      eq\n        /* \"#utility.yul\":470:533   */\n      tag_119\n      jumpi\n        /* \"#utility.yul\":529:530   */\n      0x00\n        /* \"#utility.yul\":526:527   */\n      0x00\n        /* \"#utility.yul\":519:531   */\n      revert\n        /* \"#utility.yul\":470:533   */\n    tag_119:\n        /* \"#utility.yul\":417:539   */\n      pop\n      jump\t// out\n        /* \"#utility.yul\":545:684   */\n    tag_73:\n        /* \"#utility.yul\":591:596   */\n      0x00\n        /* \"#utility.yul\":629:635   */\n      dup2\n        /* \"#utility.yul\":616:636   */\n      calldataload\n        /* \"#utility.yul\":607:636   */\n      swap1\n      pop\n        /* \"#utility.yul\":645:678   */\n      tag_121\n        /* \"#utility.yul\":672:677   */\n      dup2\n        /* \"#utility.yul\":645:678   */\n      tag_72\n      jump\t// in\n    tag_121:\n        /* \"#utility.yul\":545:684   */\n      swap3\n      swap2\n      pop\n      pop\n      jump\t// out\n        /* \"#utility.yul\":690:1019   */\n    tag_9:\n        /* \"#utility.yul\":749:755   */\n      0x00\n        /* \"#utility.yul\":798:800   */\n      0x20\n        /* \"#utility.yul\":786:795   */\n      dup3\n        /* \"#utility.yul\":777:784   */\n      dup5\n        /* \"#utility.yul\":773:796   */\n      sub\n        /* \"#utility.yul\":769:801   */\n      slt\n        /* \"#utility.yul\":766:885   */\n      iszero\n      tag_123\n      jumpi\n        /* \"#utility.yul\":804:883   */\n      tag_124\n      tag_69\n      jump\t// in\n    tag_124:\n        /* \"#utility.yul\":766:885   */\n    tag_123:\n        /* \"#utility.yul\":924:925   */\n      0x00\n        /* \"#utility.yul\":949:1002   */\n      tag_125\n        /* \"#utility.yul\":994:1001   */\n      dup5\n        /* \"#utility.yul\":985:991   */\n      dup3\n        /* \"#utility.yul\":974:983   */\n      dup6\n        /* \"#utility.yul\":970:992   */\n      add\n        /* \"#utility.yul\":949:1002   */\n      tag_73\n      jump\t// in\n    tag_125:\n        /* \"#utility.yul\":939:1002   */\n      swap2\n      pop\n        /* \"#utility.yul\":895:1012   */\n      pop\n        /* \"#utility.yul\":690:1019   */\n      swap3\n      swap2\n      pop\n      pop\n      jump\t// out\n        /* \"#utility.yul\":1025:1124   */\n    tag_74:\n        /* \"#utility.yul\":1077:1083   */\n      0x00\n        /* \"#utility.yul\":1111:1116   */\n      dup2\n        /* \"#utility.yul\":1105:1117   */\n      mload\n        /* \"#utility.yul\":1095:1117   */\n      swap1\n      pop\n        /* \"#utility.yul\":1025:1124   */\n      swap2\n      swap1\n      pop\n      jump\t// out\n        /* \"#utility.yul\":1130:1289   */\n    tag_75:\n        /* \"#utility.yul\":1204:1215   */\n      0x00\n        /* \"#utility.yul\":1238:1244   */\n      dup3\n        /* \"#utility.yul\":1233:1236   */\n      dup3\n        /* \"#utility.yul\":1226:1245   */\n      mstore\n        /* \"#utility.yul\":1278:1282   */\n      0x20\n        /* \"#utility.yul\":1273:1276   */\n      dup3\n        /* \"#utility.yul\":1269:1283   */\n      add\n        /* \"#utility.yul\":1254:1283   */\n      swap1\n      pop\n        /* \"#utility.yul\":1130:1289   */\n      swap3\n      swap2\n      pop\n      pop\n      jump\t// out\n        /* \"#utility.yul\":1295:1434   */\n    tag_76:\n        /* \"#utility.yul\":1384:1390   */\n      dup3\n        /* \"#utility.yul\":1379:1382   */\n      dup2\n        /* \"#utility.yul\":1374:1377   */\n      dup4\n        /* \"#utility.yul\":1368:1391   */\n      mcopy\n        /* \"#utility.yul\":1425:1426   */\n      0x00\n        /* \"#utility.yul\":1416:1422   */\n      dup4\n        /* \"#utility.yul\":1411:1414   */\n      dup4\n        /* \"#utility.yul\":1407:1423   */\n      add\n        /* \"#utility.yul\":1400:1427   */\n      mstore\n        /* \"#utility.yul\":1295:1434   */\n      pop\n      pop\n      pop\n      jump\t// out\n        /* \"#utility.yul\":1440:1542   */\n    tag_77:\n        /* \"#utility.yul\":1481:1487   */\n      0x00\n        /* \"#utility.yul\":1532:1534   */\n      0x1f\n        /* \"#utility.yul\":1528:1535   */\n      not\n        /* \"#utility.yul\":1523:1525   */\n      0x1f\n        /* \"#utility.yul\":1516:1521   */\n      dup4\n        /* \"#utility.yul\":1512:1526   */\n      add\n        /* \"#utility.yul\":1508:1536   */\n      and\n        /* \"#utility.yul\":1498:1536   */\n      swap1\n      pop\n        /* \"#utility.yul\":1440:1542   */\n      swap2\n      swap1\n      pop\n      jump\t// out\n        /* \"#utility.yul\":1548:1905   */\n    tag_78:\n        /* \"#utility.yul\":1626:1629   */\n      0x00\n        /* \"#utility.yul\":1654:1693   */\n      tag_131\n        /* \"#utility.yul\":1687:1692   */\n      dup3\n        /* \"#utility.yul\":1654:1693   */\n      tag_74\n      jump\t// in\n    tag_131:\n        /* \"#utility.yul\":1709:1770   */\n      tag_132\n        /* \"#utility.yul\":1763:1769   */\n      dup2\n        /* \"#utility.yul\":1758:1761   */\n      dup6\n        /* \"#utility.yul\":1709:1770   */\n      tag_75\n      jump\t// in\n    tag_132:\n        /* \"#utility.yul\":1702:1770   */\n      swap4\n      pop\n        /* \"#utility.yul\":1779:1844   */\n      tag_133\n        /* \"#utility.yul\":1837:1843   */\n      dup2\n        /* \"#utility.yul\":1832:1835   */\n      dup6\n        /* \"#utility.yul\":1825:1829   */\n      0x20\n        /* \"#utility.yul\":1818:1823   */\n      dup7\n        /* \"#utility.yul\":1814:1830   */\n      add\n        /* \"#utility.yul\":1779:1844   */\n      tag_76\n      jump\t// in\n    tag_133:\n        /* \"#utility.yul\":1869:1898   */\n      tag_134\n        /* \"#utility.yul\":1891:1897   */\n      dup2\n        /* \"#utility.yul\":1869:1898   */\n      tag_77\n      jump\t// in\n    tag_134:\n        /* \"#utility.yul\":1864:1867   */\n      dup5\n        /* \"#utility.yul\":1860:1899   */\n      add\n        /* \"#utility.yul\":1853:1899   */\n      swap2\n      pop\n        /* \"#utility.yul\":1630:1905   */\n      pop\n        /* \"#utility.yul\":1548:1905   */\n      swap3\n      swap2\n      pop\n      pop\n      jump\t// out\n        /* \"#utility.yul\":1995:2930   */\n    tag_79:\n        /* \"#utility.yul\":2118:2121   */\n      0x00\n        /* \"#utility.yul\":2154:2158   */\n      0x60\n        /* \"#utility.yul\":2149:2152   */\n      dup4\n        /* \"#utility.yul\":2145:2159   */\n      add\n        /* \"#utility.yul\":2241:2245   */\n      0x00\n        /* \"#utility.yul\":2234:2239   */\n      dup4\n        /* \"#utility.yul\":2230:2246   */\n      add\n        /* \"#utility.yul\":2224:2247   */\n      mload\n        /* \"#utility.yul\":2294:2297   */\n      dup5\n        /* \"#utility.yul\":2288:2292   */\n      dup3\n        /* \"#utility.yul\":2284:2298   */\n      sub\n        /* \"#utility.yul\":2277:2281   */\n      0x00\n        /* \"#utility.yul\":2272:2275   */\n      dup7\n        /* \"#utility.yul\":2268:2282   */\n      add\n        /* \"#utility.yul\":2261:2299   */\n      mstore\n        /* \"#utility.yul\":2320:2393   */\n      tag_136\n        /* \"#utility.yul\":2388:2392   */\n      dup3\n        /* \"#utility.yul\":2374:2386   */\n      dup3\n        /* \"#utility.yul\":2320:2393   */\n      tag_78\n      jump\t// in\n    tag_136:\n        /* \"#utility.yul\":2312:2393   */\n      swap2\n      pop\n        /* \"#utility.yul\":2169:2404   */\n      pop\n        /* \"#utility.yul\":2490:2494   */\n      0x20\n        /* \"#utility.yul\":2483:2488   */\n      dup4\n        /* \"#utility.yul\":2479:2495   */\n      add\n        /* \"#utility.yul\":2473:2496   */\n      mload\n        /* \"#utility.yul\":2543:2546   */\n      dup5\n        /* \"#utility.yul\":2537:2541   */\n      dup3\n        /* \"#utility.yul\":2533:2547   */\n      sub\n        /* \"#utility.yul\":2526:2530   */\n      0x20\n        /* \"#utility.yul\":2521:2524   */\n      dup7\n        /* \"#utility.yul\":2517:2531   */\n      add\n        /* \"#utility.yul\":2510:2548   */\n      mstore\n        /* \"#utility.yul\":2569:2642   */\n      tag_137\n        /* \"#utility.yul\":2637:2641   */\n      dup3\n        /* \"#utility.yul\":2623:2635   */\n      dup3\n        /* \"#utility.yul\":2569:2642   */\n      tag_78\n      jump\t// in\n    tag_137:\n        /* \"#utility.yul\":2561:2642   */\n      swap2\n      pop\n        /* \"#utility.yul\":2414:2653   */\n      pop\n        /* \"#utility.yul\":2740:2744   */\n      0x40\n        /* \"#utility.yul\":2733:2738   */\n      dup4\n        /* \"#utility.yul\":2729:2745   */\n      add\n        /* \"#utility.yul\":2723:2746   */\n      mload\n        /* \"#utility.yul\":2793:2796   */\n      dup5\n        /* \"#utility.yul\":2787:2791   */\n      dup3\n        /* \"#utility.yul\":2783:2797   */\n      sub\n        /* \"#utility.yul\":2776:2780   */\n      0x40\n        /* \"#utility.yul\":2771:2774   */\n      dup7\n        /* \"#utility.yul\":2767:2781   */\n      add\n        /* \"#utility.yul\":2760:2798   */\n      mstore\n        /* \"#utility.yul\":2819:2892   */\n      tag_138\n        /* \"#utility.yul\":2887:2891   */\n      dup3\n        /* \"#utility.yul\":2873:2885   */\n      dup3\n        /* \"#utility.yul\":2819:2892   */\n      tag_78\n      jump\t// in\n    tag_138:\n        /* \"#utility.yul\":2811:2892   */\n      swap2\n      pop\n        /* \"#utility.yul\":2663:2903   */\n      pop\n        /* \"#utility.yul\":2920:2924   */\n      dup1\n        /* \"#utility.yul\":2913:2924   */\n      swap2\n      pop\n        /* \"#utility.yul\":2123:2930   */\n      pop\n        /* \"#utility.yul\":1995:2930   */\n      swap3\n      swap2\n      pop\n      pop\n      jump\t// out\n        /* \"#utility.yul\":2936:3317   */\n    tag_12:\n        /* \"#utility.yul\":3083:3087   */\n      0x00\n        /* \"#utility.yul\":3121:3123   */\n      0x20\n        /* \"#utility.yul\":3110:3119   */\n      dup3\n        /* \"#utility.yul\":3106:3124   */\n      add\n        /* \"#utility.yul\":3098:3124   */\n      swap1\n      pop\n        /* \"#utility.yul\":3170:3179   */\n      dup2\n        /* \"#utility.yul\":3164:3168   */\n      dup2\n        /* \"#utility.yul\":3160:3180   */\n      sub\n        /* \"#utility.yul\":3156:3157   */\n      0x00\n        /* \"#utility.yul\":3145:3154   */\n      dup4\n        /* \"#utility.yul\":3141:3158   */\n      add\n        /* \"#utility.yul\":3134:3181   */\n      mstore\n        /* \"#utility.yul\":3198:3310   */\n      tag_140\n        /* \"#utility.yul\":3305:3309   */\n      dup2\n        /* \"#utility.yul\":3296:3302   */\n      dup5\n        /* \"#utility.yul\":3198:3310   */\n      tag_79\n      jump\t// in\n    tag_140:\n        /* \"#utility.yul\":3190:3310   */\n      swap1\n      pop\n        /* \"#utility.yul\":2936:3317   */\n      swap3\n      swap2\n      pop\n      pop\n      jump\t// out\n        /* \"#utility.yul\":3323:3492   */\n    tag_80:\n        /* \"#utility.yul\":3407:3418   */\n      0x00\n        /* \"#utility.yul\":3441:3447   */\n      dup3\n        /* \"#utility.yul\":3436:3439   */\n      dup3\n        /* \"#utility.yul\":3429:3448   */\n      mstore\n        /* \"#utility.yul\":3481:3485   */\n      0x20\n        /* \"#utility.yul\":3476:3479   */\n      dup3\n        /* \"#utility.yul\":3472:3486   */\n      add\n        /* \"#utility.yul\":3457:3486   */\n      swap1\n      pop\n        /* \"#utility.yul\":3323:3492   */\n      swap3\n      swap2\n      pop\n      pop\n      jump\t// out\n        /* \"#utility.yul\":3498:3875   */\n    tag_81:\n        /* \"#utility.yul\":3586:3589   */\n      0x00\n        /* \"#utility.yul\":3614:3653   */\n      tag_143\n        /* \"#utility.yul\":3647:3652   */\n      dup3\n        /* \"#utility.yul\":3614:3653   */\n      tag_74\n      jump\t// in\n    tag_143:\n        /* \"#utility.yul\":3669:3740   */\n      tag_144\n        /* \"#utility.yul\":3733:3739   */\n      dup2\n        /* \"#utility.yul\":3728:3731   */\n      dup6\n        /* \"#utility.yul\":3669:3740   */\n      tag_80\n      jump\t// in\n    tag_144:\n        /* \"#utility.yul\":3662:3740   */\n      swap4\n      pop\n        /* \"#utility.yul\":3749:3814   */\n      tag_145\n        /* \"#utility.yul\":3807:3813   */\n      dup2\n        /* \"#utility.yul\":3802:3805   */\n      dup6\n        /* \"#utility.yul\":3795:3799   */\n      0x20\n        /* \"#utility.yul\":3788:3793   */\n      dup7\n        /* \"#utility.yul\":3784:3800   */\n      add\n        /* \"#utility.yul\":3749:3814   */\n      tag_76\n      jump\t// in\n    tag_145:\n        /* \"#utility.yul\":3839:3868   */\n      tag_146\n        /* \"#utility.yul\":3861:3867   */\n      dup2\n        /* \"#utility.yul\":3839:3868   */\n      tag_77\n      jump\t// in\n    tag_146:\n        /* \"#utility.yul\":3834:3837   */\n      dup5\n        /* \"#utility.yul\":3830:3869   */\n      add\n        /* \"#utility.yul\":3823:3869   */\n      swap2\n      pop\n        /* \"#utility.yul\":3590:3875   */\n      pop\n        /* \"#utility.yul\":3498:3875   */\n      swap3\n      swap2\n      pop\n      pop\n      jump\t// out\n        /* \"#utility.yul\":3881:4596   */\n    tag_17:\n        /* \"#utility.yul\":4090:4094   */\n      0x00\n        /* \"#utility.yul\":4128:4130   */\n      0x60\n        /* \"#utility.yul\":4117:4126   */\n      dup3\n        /* \"#utility.yul\":4113:4131   */\n      add\n        /* \"#utility.yul\":4105:4131   */\n      swap1\n      pop\n        /* \"#utility.yul\":4177:4186   */\n      dup2\n        /* \"#utility.yul\":4171:4175   */\n      dup2\n        /* \"#utility.yul\":4167:4187   */\n      sub\n        /* \"#utility.yul\":4163:4164   */\n      0x00\n        /* \"#utility.yul\":4152:4161   */\n      dup4\n        /* \"#utility.yul\":4148:4165   */\n      add\n        /* \"#utility.yul\":4141:4188   */\n      mstore\n        /* \"#utility.yul\":4205:4283   */\n      tag_148\n        /* \"#utility.yul\":4278:4282   */\n      dup2\n        /* \"#utility.yul\":4269:4275   */\n      dup7\n        /* \"#utility.yul\":4205:4283   */\n      tag_81\n      jump\t// in\n    tag_148:\n        /* \"#utility.yul\":4197:4283   */\n      swap1\n      pop\n        /* \"#utility.yul\":4330:4339   */\n      dup2\n        /* \"#utility.yul\":4324:4328   */\n      dup2\n        /* \"#utility.yul\":4320:4340   */\n      sub\n        /* \"#utility.yul\":4315:4317   */\n      0x20\n        /* \"#utility.yul\":4304:4313   */\n      dup4\n        /* \"#utility.yul\":4300:4318   */\n      add\n        /* \"#utility.yul\":4293:4341   */\n      mstore\n        /* \"#utility.yul\":4358:4436   */\n      tag_149\n        /* \"#utility.yul\":4431:4435   */\n      dup2\n        /* \"#utility.yul\":4422:4428   */\n      dup6\n        /* \"#utility.yul\":4358:4436   */\n      tag_81\n      jump\t// in\n    tag_149:\n        /* \"#utility.yul\":4350:4436   */\n      swap1\n      pop\n        /* \"#utility.yul\":4483:4492   */\n      dup2\n        /* \"#utility.yul\":4477:4481   */\n      dup2\n        /* \"#utility.yul\":4473:4493   */\n      sub\n        /* \"#utility.yul\":4468:4470   */\n      0x40\n        /* \"#utility.yul\":4457:4466   */\n      dup4\n        /* \"#utility.yul\":4453:4471   */\n      add\n        /* \"#utility.yul\":4446:4494   */\n      mstore\n        /* \"#utility.yul\":4511:4589   */\n      tag_150\n        /* \"#utility.yul\":4584:4588   */\n      dup2\n        /* \"#utility.yul\":4575:4581   */\n      dup5\n        /* \"#utility.yul\":4511:4589   */\n      tag_81\n      jump\t// in\n    tag_150:\n        /* \"#utility.yul\":4503:4589   */\n      swap1\n      pop\n        /* \"#utility.yul\":3881:4596   */\n      swap5\n      swap4\n      pop\n      pop\n      pop\n      pop\n      jump\t// out\n        /* \"#utility.yul\":4602:4719   */\n    tag_82:\n        /* \"#utility.yul\":4711:4712   */\n      0x00\n        /* \"#utility.yul\":4708:4709   */\n      0x00\n        /* \"#utility.yul\":4701:4713   */\n      revert\n        /* \"#utility.yul\":4725:4842   */\n    tag_83:\n        /* \"#utility.yul\":4834:4835   */\n      0x00\n        /* \"#utility.yul\":4831:4832   */\n      0x00\n        /* \"#utility.yul\":4824:4836   */\n      revert\n        /* \"#utility.yul\":4848:5028   */\n    tag_84:\n        /* \"#utility.yul\":4896:4973   */\n      0x4e487b7100000000000000000000000000000000000000000000000000000000\n        /* \"#utility.yul\":4893:4894   */\n      0x00\n        /* \"#utility.yul\":4886:4974   */\n      mstore\n        /* \"#utility.yul\":4993:4997   */\n      0x41\n        /* \"#utility.yul\":4990:4991   */\n      0x04\n        /* \"#utility.yul\":4983:4998   */\n      mstore\n        /* \"#utility.yul\":5017:5021   */\n      0x24\n        /* \"#utility.yul\":5014:5015   */\n      0x00\n        /* \"#utility.yul\":5007:5022   */\n      revert\n        /* \"#utility.yul\":5034:5315   */\n    tag_85:\n        /* \"#utility.yul\":5117:5144   */\n      tag_155\n        /* \"#utility.yul\":5139:5143   */\n      dup3\n        /* \"#utility.yul\":5117:5144   */\n      tag_77\n      jump\t// in\n    tag_155:\n        /* \"#utility.yul\":5109:5115   */\n      dup2\n        /* \"#utility.yul\":5105:5145   */\n      add\n        /* \"#utility.yul\":5247:5253   */\n      dup2\n        /* \"#utility.yul\":5235:5245   */\n      dup2\n        /* \"#utility.yul\":5232:5254   */\n      lt\n        /* \"#utility.yul\":5211:5229   */\n      0xffffffffffffffff\n        /* \"#utility.yul\":5199:5209   */\n      dup3\n        /* \"#utility.yul\":5196:5230   */\n      gt\n        /* \"#utility.yul\":5193:5255   */\n      or\n        /* \"#utility.yul\":5190:5278   */\n      iszero\n      tag_156\n      jumpi\n        /* \"#utility.yul\":5258:5276   */\n      tag_157\n      tag_84\n      jump\t// in\n    tag_157:\n        /* \"#utility.yul\":5190:5278   */\n    tag_156:\n        /* \"#utility.yul\":5298:5308   */\n      dup1\n        /* \"#utility.yul\":5294:5296   */\n      0x40\n        /* \"#utility.yul\":5287:5309   */\n      mstore\n        /* \"#utility.yul\":5077:5315   */\n      pop\n        /* \"#utility.yul\":5034:5315   */\n      pop\n      pop\n      jump\t// out\n        /* \"#utility.yul\":5321:5450   */\n    tag_86:\n        /* \"#utility.yul\":5355:5361   */\n      0x00\n        /* \"#utility.yul\":5382:5402   */\n      tag_159\n      tag_68\n      jump\t// in\n    tag_159:\n        /* \"#utility.yul\":5372:5402   */\n      swap1\n      pop\n        /* \"#utility.yul\":5411:5444   */\n      tag_160\n        /* \"#utility.yul\":5439:5443   */\n      dup3\n        /* \"#utility.yul\":5431:5437   */\n      dup3\n        /* \"#utility.yul\":5411:5444   */\n      tag_85\n      jump\t// in\n    tag_160:\n        /* \"#utility.yul\":5321:5450   */\n      swap2\n      swap1\n      pop\n      jump\t// out\n        /* \"#utility.yul\":5456:5764   */\n    tag_87:\n        /* \"#utility.yul\":5518:5522   */\n      0x00\n        /* \"#utility.yul\":5608:5626   */\n      0xffffffffffffffff\n        /* \"#utility.yul\":5600:5606   */\n      dup3\n        /* \"#utility.yul\":5597:5627   */\n      gt\n        /* \"#utility.yul\":5594:5650   */\n      iszero\n      tag_162\n      jumpi\n        /* \"#utility.yul\":5630:5648   */\n      tag_163\n      tag_84\n      jump\t// in\n    tag_163:\n        /* \"#utility.yul\":5594:5650   */\n    tag_162:\n        /* \"#utility.yul\":5668:5697   */\n      tag_164\n        /* \"#utility.yul\":5690:5696   */\n      dup3\n        /* \"#utility.yul\":5668:5697   */\n      tag_77\n      jump\t// in\n    tag_164:\n        /* \"#utility.yul\":5660:5697   */\n      swap1\n      pop\n        /* \"#utility.yul\":5752:5756   */\n      0x20\n        /* \"#utility.yul\":5746:5750   */\n      dup2\n        /* \"#utility.yul\":5742:5757   */\n      add\n        /* \"#utility.yul\":5734:5757   */\n      swap1\n      pop\n        /* \"#utility.yul\":5456:5764   */\n      swap2\n      swap1\n      pop\n      jump\t// out\n        /* \"#utility.yul\":5770:5918   */\n    tag_88:\n        /* \"#utility.yul\":5868:5874   */\n      dup3\n        /* \"#utility.yul\":5863:5866   */\n      dup2\n        /* \"#utility.yul\":5858:5861   */\n      dup4\n        /* \"#utility.yul\":5845:5875   */\n      calldatacopy\n        /* \"#utility.yul\":5909:5910   */\n      0x00\n        /* \"#utility.yul\":5900:5906   */\n      dup4\n        /* \"#utility.yul\":5895:5898   */\n      dup4\n        /* \"#utility.yul\":5891:5907   */\n      add\n        /* \"#utility.yul\":5884:5911   */\n      mstore\n        /* \"#utility.yul\":5770:5918   */\n      pop\n      pop\n      pop\n      jump\t// out\n        /* \"#utility.yul\":5924:6349   */\n    tag_89:\n        /* \"#utility.yul\":6002:6007   */\n      0x00\n        /* \"#utility.yul\":6027:6093   */\n      tag_167\n        /* \"#utility.yul\":6043:6092   */\n      tag_168\n        /* \"#utility.yul\":6085:6091   */\n      dup5\n        /* \"#utility.yul\":6043:6092   */\n      tag_87\n      jump\t// in\n    tag_168:\n        /* \"#utility.yul\":6027:6093   */\n      tag_86\n      jump\t// in\n    tag_167:\n        /* \"#utility.yul\":6018:6093   */\n      swap1\n      pop\n        /* \"#utility.yul\":6116:6122   */\n      dup3\n        /* \"#utility.yul\":6109:6114   */\n      dup2\n        /* \"#utility.yul\":6102:6123   */\n      mstore\n        /* \"#utility.yul\":6154:6158   */\n      0x20\n        /* \"#utility.yul\":6147:6152   */\n      dup2\n        /* \"#utility.yul\":6143:6159   */\n      add\n        /* \"#utility.yul\":6192:6195   */\n      dup5\n        /* \"#utility.yul\":6183:6189   */\n      dup5\n        /* \"#utility.yul\":6178:6181   */\n      dup5\n        /* \"#utility.yul\":6174:6190   */\n      add\n        /* \"#utility.yul\":6171:6196   */\n      gt\n        /* \"#utility.yul\":6168:6280   */\n      iszero\n      tag_169\n      jumpi\n        /* \"#utility.yul\":6199:6278   */\n      tag_170\n      tag_83\n      jump\t// in\n    tag_170:\n        /* \"#utility.yul\":6168:6280   */\n    tag_169:\n        /* \"#utility.yul\":6289:6343   */\n      tag_171\n        /* \"#utility.yul\":6336:6342   */\n      dup5\n        /* \"#utility.yul\":6331:6334   */\n      dup3\n        /* \"#utility.yul\":6326:6329   */\n      dup6\n        /* \"#utility.yul\":6289:6343   */\n      tag_88\n      jump\t// in\n    tag_171:\n        /* \"#utility.yul\":6008:6349   */\n      pop\n        /* \"#utility.yul\":5924:6349   */\n      swap4\n      swap3\n      pop\n      pop\n      pop\n      jump\t// out\n        /* \"#utility.yul\":6369:6709   */\n    tag_90:\n        /* \"#utility.yul\":6425:6430   */\n      0x00\n        /* \"#utility.yul\":6474:6477   */\n      dup3\n        /* \"#utility.yul\":6467:6471   */\n      0x1f\n        /* \"#utility.yul\":6459:6465   */\n      dup4\n        /* \"#utility.yul\":6455:6472   */\n      add\n        /* \"#utility.yul\":6451:6478   */\n      slt\n        /* \"#utility.yul\":6441:6563   */\n      tag_173\n      jumpi\n        /* \"#utility.yul\":6482:6561   */\n      tag_174\n      tag_82\n      jump\t// in\n    tag_174:\n        /* \"#utility.yul\":6441:6563   */\n    tag_173:\n        /* \"#utility.yul\":6599:6605   */\n      dup2\n        /* \"#utility.yul\":6586:6606   */\n      calldataload\n        /* \"#utility.yul\":6624:6703   */\n      tag_175\n        /* \"#utility.yul\":6699:6702   */\n      dup5\n        /* \"#utility.yul\":6691:6697   */\n      dup3\n        /* \"#utility.yul\":6684:6688   */\n      0x20\n        /* \"#utility.yul\":6676:6682   */\n      dup7\n        /* \"#utility.yul\":6672:6689   */\n      add\n        /* \"#utility.yul\":6624:6703   */\n      tag_89\n      jump\t// in\n    tag_175:\n        /* \"#utility.yul\":6615:6703   */\n      swap2\n      pop\n        /* \"#utility.yul\":6431:6709   */\n      pop\n        /* \"#utility.yul\":6369:6709   */\n      swap3\n      swap2\n      pop\n      pop\n      jump\t// out\n        /* \"#utility.yul\":6715:8020   */\n    tag_20:\n        /* \"#utility.yul\":6831:6837   */\n      0x00\n        /* \"#utility.yul\":6839:6845   */\n      0x00\n        /* \"#utility.yul\":6847:6853   */\n      0x00\n        /* \"#utility.yul\":6855:6861   */\n      0x00\n        /* \"#utility.yul\":6904:6907   */\n      0x80\n        /* \"#utility.yul\":6892:6901   */\n      dup6\n        /* \"#utility.yul\":6883:6890   */\n      dup8\n        /* \"#utility.yul\":6879:6902   */\n      sub\n        /* \"#utility.yul\":6875:6908   */\n      slt\n        /* \"#utility.yul\":6872:6992   */\n      iszero\n      tag_177\n      jumpi\n        /* \"#utility.yul\":6911:6990   */\n      tag_178\n      tag_69\n      jump\t// in\n    tag_178:\n        /* \"#utility.yul\":6872:6992   */\n    tag_177:\n        /* \"#utility.yul\":7031:7032   */\n      0x00\n        /* \"#utility.yul\":7056:7109   */\n      tag_179\n        /* \"#utility.yul\":7101:7108   */\n      dup8\n        /* \"#utility.yul\":7092:7098   */\n      dup3\n        /* \"#utility.yul\":7081:7090   */\n      dup9\n        /* \"#utility.yul\":7077:7099   */\n      add\n        /* \"#utility.yul\":7056:7109   */\n      tag_73\n      jump\t// in\n    tag_179:\n        /* \"#utility.yul\":7046:7109   */\n      swap5\n      pop\n        /* \"#utility.yul\":7002:7119   */\n      pop\n        /* \"#utility.yul\":7186:7188   */\n      0x20\n        /* \"#utility.yul\":7175:7184   */\n      dup6\n        /* \"#utility.yul\":7171:7189   */\n      add\n        /* \"#utility.yul\":7158:7190   */\n      calldataload\n        /* \"#utility.yul\":7217:7235   */\n      0xffffffffffffffff\n        /* \"#utility.yul\":7209:7215   */\n      dup2\n        /* \"#utility.yul\":7206:7236   */\n      gt\n        /* \"#utility.yul\":7203:7320   */\n      iszero\n      tag_180\n      jumpi\n        /* \"#utility.yul\":7239:7318   */\n      tag_181\n      tag_70\n      jump\t// in\n    tag_181:\n        /* \"#utility.yul\":7203:7320   */\n    tag_180:\n        /* \"#utility.yul\":7344:7407   */\n      tag_182\n        /* \"#utility.yul\":7399:7406   */\n      dup8\n        /* \"#utility.yul\":7390:7396   */\n      dup3\n        /* \"#utility.yul\":7379:7388   */\n      dup9\n        /* \"#utility.yul\":7375:7397   */\n      add\n        /* \"#utility.yul\":7344:7407   */\n      tag_90\n      jump\t// in\n    tag_182:\n        /* \"#utility.yul\":7334:7407   */\n      swap4\n      pop\n        /* \"#utility.yul\":7129:7417   */\n      pop\n        /* \"#utility.yul\":7484:7486   */\n      0x40\n        /* \"#utility.yul\":7473:7482   */\n      dup6\n        /* \"#utility.yul\":7469:7487   */\n      add\n        /* \"#utility.yul\":7456:7488   */\n      calldataload\n        /* \"#utility.yul\":7515:7533   */\n      0xffffffffffffffff\n        /* \"#utility.yul\":7507:7513   */\n      dup2\n        /* \"#utility.yul\":7504:7534   */\n      gt\n        /* \"#utility.yul\":7501:7618   */\n      iszero\n      tag_183\n      jumpi\n        /* \"#utility.yul\":7537:7616   */\n      tag_184\n      tag_70\n      jump\t// in\n    tag_184:\n        /* \"#utility.yul\":7501:7618   */\n    tag_183:\n        /* \"#utility.yul\":7642:7705   */\n      tag_185\n        /* \"#utility.yul\":7697:7704   */\n      dup8\n        /* \"#utility.yul\":7688:7694   */\n      dup3\n        /* \"#utility.yul\":7677:7686   */\n      dup9\n        /* \"#utility.yul\":7673:7695   */\n      add\n        /* \"#utility.yul\":7642:7705   */\n      tag_90\n      jump\t// in\n    tag_185:\n        /* \"#utility.yul\":7632:7705   */\n      swap3\n      pop\n        /* \"#utility.yul\":7427:7715   */\n      pop\n        /* \"#utility.yul\":7782:7784   */\n      0x60\n        /* \"#utility.yul\":7771:7780   */\n      dup6\n        /* \"#utility.yul\":7767:7785   */\n      add\n        /* \"#utility.yul\":7754:7786   */\n      calldataload\n        /* \"#utility.yul\":7813:7831   */\n      0xffffffffffffffff\n        /* \"#utility.yul\":7805:7811   */\n      dup2\n        /* \"#utility.yul\":7802:7832   */\n      gt\n        /* \"#utility.yul\":7799:7916   */\n      iszero\n      tag_186\n      jumpi\n        /* \"#utility.yul\":7835:7914   */\n      tag_187\n      tag_70\n      jump\t// in\n    tag_187:\n        /* \"#utility.yul\":7799:7916   */\n    tag_186:\n        /* \"#utility.yul\":7940:8003   */\n      tag_188\n        /* \"#utility.yul\":7995:8002   */\n      dup8\n        /* \"#utility.yul\":7986:7992   */\n      dup3\n        /* \"#utility.yul\":7975:7984   */\n      dup9\n        /* \"#utility.yul\":7971:7993   */\n      add\n        /* \"#utility.yul\":7940:8003   */\n      tag_90\n      jump\t// in\n    tag_188:\n        /* \"#utility.yul\":7930:8003   */\n      swap2\n      pop\n        /* \"#utility.yul\":7725:8013   */\n      pop\n        /* \"#utility.yul\":6715:8020   */\n      swap3\n      swap6\n      swap2\n      swap5\n      pop\n      swap3\n      pop\n      jump\t// out\n        /* \"#utility.yul\":8026:8152   */\n    tag_91:\n        /* \"#utility.yul\":8063:8070   */\n      0x00\n        /* \"#utility.yul\":8103:8145   */\n      0xffffffffffffffffffffffffffffffffffffffff\n        /* \"#utility.yul\":8096:8101   */\n      dup3\n        /* \"#utility.yul\":8092:8146   */\n      and\n        /* \"#utility.yul\":8081:8146   */\n      swap1\n      pop\n        /* \"#utility.yul\":8026:8152   */\n      swap2\n      swap1\n      pop\n      jump\t// out\n        /* \"#utility.yul\":8158:8254   */\n    tag_92:\n        /* \"#utility.yul\":8195:8202   */\n      0x00\n        /* \"#utility.yul\":8224:8248   */\n      tag_191\n        /* \"#utility.yul\":8242:8247   */\n      dup3\n        /* \"#utility.yul\":8224:8248   */\n      tag_91\n      jump\t// in\n    tag_191:\n        /* \"#utility.yul\":8213:8248   */\n      swap1\n      pop\n        /* \"#utility.yul\":8158:8254   */\n      swap2\n      swap1\n      pop\n      jump\t// out\n        /* \"#utility.yul\":8260:8378   */\n    tag_93:\n        /* \"#utility.yul\":8347:8371   */\n      tag_193\n        /* \"#utility.yul\":8365:8370   */\n      dup2\n        /* \"#utility.yul\":8347:8371   */\n      tag_92\n      jump\t// in\n    tag_193:\n        /* \"#utility.yul\":8342:8345   */\n      dup3\n        /* \"#utility.yul\":8335:8372   */\n      mstore\n        /* \"#utility.yul\":8260:8378   */\n      pop\n      pop\n      jump\t// out\n        /* \"#utility.yul\":8384:8606   */\n    tag_25:\n        /* \"#utility.yul\":8477:8481   */\n      0x00\n        /* \"#utility.yul\":8515:8517   */\n      0x20\n        /* \"#utility.yul\":8504:8513   */\n      dup3\n        /* \"#utility.yul\":8500:8518   */\n      add\n        /* \"#utility.yul\":8492:8518   */\n      swap1\n      pop\n        /* \"#utility.yul\":8528:8599   */\n      tag_195\n        /* \"#utility.yul\":8596:8597   */\n      0x00\n        /* \"#utility.yul\":8585:8594   */\n      dup4\n        /* \"#utility.yul\":8581:8598   */\n      add\n        /* \"#utility.yul\":8572:8578   */\n      dup5\n        /* \"#utility.yul\":8528:8599   */\n      tag_93\n      jump\t// in\n    tag_195:\n        /* \"#utility.yul\":8384:8606   */\n      swap3\n      swap2\n      pop\n      pop\n      jump\t// out\n        /* \"#utility.yul\":8612:8792   */\n    tag_94:\n        /* \"#utility.yul\":8660:8737   */\n      0x4e487b7100000000000000000000000000000000000000000000000000000000\n        /* \"#utility.yul\":8657:8658   */\n      0x00\n        /* \"#utility.yul\":8650:8738   */\n      mstore\n        /* \"#utility.yul\":8757:8761   */\n      0x22\n        /* \"#utility.yul\":8754:8755   */\n      0x04\n        /* \"#utility.yul\":8747:8762   */\n      mstore\n        /* \"#utility.yul\":8781:8785   */\n      0x24\n        /* \"#utility.yul\":8778:8779   */\n      0x00\n        /* \"#utility.yul\":8771:8786   */\n      revert\n        /* \"#utility.yul\":8798:9118   */\n    tag_30:\n        /* \"#utility.yul\":8842:8848   */\n      0x00\n        /* \"#utility.yul\":8879:8880   */\n      0x02\n        /* \"#utility.yul\":8873:8877   */\n      dup3\n        /* \"#utility.yul\":8869:8881   */\n      div\n        /* \"#utility.yul\":8859:8881   */\n      swap1\n      pop\n        /* \"#utility.yul\":8926:8927   */\n      0x01\n        /* \"#utility.yul\":8920:8924   */\n      dup3\n        /* \"#utility.yul\":8916:8928   */\n      and\n        /* \"#utility.yul\":8947:8965   */\n      dup1\n        /* \"#utility.yul\":8937:9018   */\n      tag_198\n      jumpi\n        /* \"#utility.yul\":9003:9007   */\n      0x7f\n        /* \"#utility.yul\":8995:9001   */\n      dup3\n        /* \"#utility.yul\":8991:9008   */\n      and\n        /* \"#utility.yul\":8981:9008   */\n      swap2\n      pop\n        /* \"#utility.yul\":8937:9018   */\n    tag_198:\n        /* \"#utility.yul\":9065:9067   */\n      0x20\n        /* \"#utility.yul\":9057:9063   */\n      dup3\n        /* \"#utility.yul\":9054:9068   */\n      lt\n        /* \"#utility.yul\":9034:9052   */\n      dup2\n        /* \"#utility.yul\":9031:9069   */\n      sub\n        /* \"#utility.yul\":9028:9112   */\n      tag_199\n      jumpi\n        /* \"#utility.yul\":9084:9102   */\n      tag_200\n      tag_94\n      jump\t// in\n    tag_200:\n        /* \"#utility.yul\":9028:9112   */\n    tag_199:\n        /* \"#utility.yul\":8849:9118   */\n      pop\n        /* \"#utility.yul\":8798:9118   */\n      swap2\n      swap1\n      pop\n      jump\t// out\n        /* \"#utility.yul\":9124:9299   */\n    tag_95:\n        /* \"#utility.yul\":9264:9291   */\n      0x4f6e6c7920756e69766572736974792063616e20697373756500000000000000\n        /* \"#utility.yul\":9260:9261   */\n      0x00\n        /* \"#utility.yul\":9252:9258   */\n      dup3\n        /* \"#utility.yul\":9248:9262   */\n      add\n        /* \"#utility.yul\":9241:9292   */\n      mstore\n        /* \"#utility.yul\":9124:9299   */\n      pop\n      jump\t// out\n        /* \"#utility.yul\":9305:9671   */\n    tag_96:\n        /* \"#utility.yul\":9447:9450   */\n      0x00\n        /* \"#utility.yul\":9468:9535   */\n      tag_203\n        /* \"#utility.yul\":9532:9534   */\n      0x19\n        /* \"#utility.yul\":9527:9530   */\n      dup4\n        /* \"#utility.yul\":9468:9535   */\n      tag_80\n      jump\t// in\n    tag_203:\n        /* \"#utility.yul\":9461:9535   */\n      swap2\n      pop\n        /* \"#utility.yul\":9544:9637   */\n      tag_204\n        /* \"#utility.yul\":9633:9636   */\n      dup3\n        /* \"#utility.yul\":9544:9637   */\n      tag_95\n      jump\t// in\n    tag_204:\n        /* \"#utility.yul\":9662:9664   */\n      0x20\n        /* \"#utility.yul\":9657:9660   */\n      dup3\n        /* \"#utility.yul\":9653:9665   */\n      add\n        /* \"#utility.yul\":9646:9665   */\n      swap1\n      pop\n        /* \"#utility.yul\":9305:9671   */\n      swap2\n      swap1\n      pop\n      jump\t// out\n        /* \"#utility.yul\":9677:10096   */\n    tag_63:\n        /* \"#utility.yul\":9843:9847   */\n      0x00\n        /* \"#utility.yul\":9881:9883   */\n      0x20\n        /* \"#utility.yul\":9870:9879   */\n      dup3\n        /* \"#utility.yul\":9866:9884   */\n      add\n        /* \"#utility.yul\":9858:9884   */\n      swap1\n      pop\n        /* \"#utility.yul\":9930:9939   */\n      dup2\n        /* \"#utility.yul\":9924:9928   */\n      dup2\n        /* \"#utility.yul\":9920:9940   */\n      sub\n        /* \"#utility.yul\":9916:9917   */\n      0x00\n        /* \"#utility.yul\":9905:9914   */\n      dup4\n        /* \"#utility.yul\":9901:9918   */\n      add\n        /* \"#utility.yul\":9894:9941   */\n      mstore\n        /* \"#utility.yul\":9958:10089   */\n      tag_206\n        /* \"#utility.yul\":10084:10088   */\n      dup2\n        /* \"#utility.yul\":9958:10089   */\n      tag_96\n      jump\t// in\n    tag_206:\n        /* \"#utility.yul\":9950:10089   */\n      swap1\n      pop\n        /* \"#utility.yul\":9677:10096   */\n      swap2\n      swap1\n      pop\n      jump\t// out\n        /* \"#utility.yul\":10102:10243   */\n    tag_97:\n        /* \"#utility.yul\":10151:10155   */\n      0x00\n        /* \"#utility.yul\":10174:10177   */\n      dup2\n        /* \"#utility.yul\":10166:10177   */\n      swap1\n      pop\n        /* \"#utility.yul\":10197:10200   */\n      dup2\n        /* \"#utility.yul\":10194:10195   */\n      0x00\n        /* \"#utility.yul\":10187:10201   */\n      mstore\n        /* \"#utility.yul\":10231:10235   */\n      0x20\n        /* \"#utility.yul\":10228:10229   */\n      0x00\n        /* \"#utility.yul\":10218:10236   */\n      keccak256\n        /* \"#utility.yul\":10210:10236   */\n      swap1\n      pop\n        /* \"#utility.yul\":10102:10243   */\n      swap2\n      swap1\n      pop\n      jump\t// out\n        /* \"#utility.yul\":10249:10342   */\n    tag_98:\n        /* \"#utility.yul\":10286:10292   */\n      0x00\n        /* \"#utility.yul\":10333:10335   */\n      0x20\n        /* \"#utility.yul\":10328:10330   */\n      0x1f\n        /* \"#utility.yul\":10321:10326   */\n      dup4\n        /* \"#utility.yul\":10317:10331   */\n      add\n        /* \"#utility.yul\":10313:10336   */\n      div\n        /* \"#utility.yul\":10303:10336   */\n      swap1\n      pop\n        /* \"#utility.yul\":10249:10342   */\n      swap2\n      swap1\n      pop\n      jump\t// out\n        /* \"#utility.yul\":10348:10455   */\n    tag_99:\n        /* \"#utility.yul\":10392:10400   */\n      0x00\n        /* \"#utility.yul\":10442:10447   */\n      dup3\n        /* \"#utility.yul\":10436:10440   */\n      dup3\n        /* \"#utility.yul\":10432:10448   */\n      shl\n        /* \"#utility.yul\":10411:10448   */\n      swap1\n      pop\n        /* \"#utility.yul\":10348:10455   */\n      swap3\n      swap2\n      pop\n      pop\n      jump\t// out\n        /* \"#utility.yul\":10461:10854   */\n    tag_100:\n        /* \"#utility.yul\":10530:10536   */\n      0x00\n        /* \"#utility.yul\":10580:10581   */\n      0x08\n        /* \"#utility.yul\":10568:10578   */\n      dup4\n        /* \"#utility.yul\":10564:10582   */\n      mul\n        /* \"#utility.yul\":10603:10700   */\n      tag_211\n        /* \"#utility.yul\":10633:10699   */\n      0xffffffffffffffffffffffffffffffffffffffffffffffffffffffffffffffff\n        /* \"#utility.yul\":10622:10631   */\n      dup3\n        /* \"#utility.yul\":10603:10700   */\n      tag_99\n      jump\t// in\n    tag_211:\n        /* \"#utility.yul\":10721:10760   */\n      tag_212\n        /* \"#utility.yul\":10751:10759   */\n      dup7\n        /* \"#utility.yul\":10740:10749   */\n      dup4\n        /* \"#utility.yul\":10721:10760   */\n      tag_99\n      jump\t// in\n    tag_212:\n        /* \"#utility.yul\":10709:10760   */\n      swap6\n      pop\n        /* \"#utility.yul\":10793:10797   */\n      dup1\n        /* \"#utility.yul\":10789:10798   */\n      not\n        /* \"#utility.yul\":10782:10787   */\n      dup5\n        /* \"#utility.yul\":10778:10799   */\n      and\n        /* \"#utility.yul\":10769:10799   */\n      swap4\n      pop\n        /* \"#utility.yul\":10842:10846   */\n      dup1\n        /* \"#utility.yul\":10832:10840   */\n      dup7\n        /* \"#utility.yul\":10828:10847   */\n      and\n        /* \"#utility.yul\":10821:10826   */\n      dup5\n        /* \"#utility.yul\":10818:10848   */\n      or\n        /* \"#utility.yul\":10808:10848   */\n      swap3\n      pop\n        /* \"#utility.yul\":10537:10854   */\n      pop\n      pop\n        /* \"#utility.yul\":10461:10854   */\n      swap4\n      swap3\n      pop\n      pop\n      pop\n      jump\t// out\n        /* \"#utility.yul\":10860:10920   */\n    tag_101:\n        /* \"#utility.yul\":10888:10891   */\n      0x00\n        /* \"#utility.yul\":10909:10914   */\n      dup2\n        /* \"#utility.yul\":10902:10914   */\n      swap1\n      pop\n        /* \"#utility.yul\":10860:10920   */\n      swap2\n      swap1\n      pop\n      jump\t// out\n        /* \"#utility.yul\":10926:11068   */\n    tag_102:\n        /* \"#utility.yul\":10976:10985   */\n      0x00\n        /* \"#utility.yul\":11009:11062   */\n      tag_215\n        /* \"#utility.yul\":11027:11061   */\n      tag_216\n        /* \"#utility.yul\":11036:11060   */\n      tag_217\n        /* \"#utility.yul\":11054:11059   */\n      dup5\n        /* \"#utility.yul\":11036:11060   */\n      tag_71\n      jump\t// in\n    tag_217:\n        /* \"#utility.yul\":11027:11061   */\n      tag_101\n      jump\t// in\n    tag_216:\n        /* \"#utility.yul\":11009:11062   */\n      tag_71\n      jump\t// in\n    tag_215:\n        /* \"#utility.yul\":10996:11062   */\n      swap1\n      pop\n        /* \"#utility.yul\":10926:11068   */\n      swap2\n      swap1\n      pop\n      jump\t// out\n        /* \"#utility.yul\":11074:11149   */\n    tag_103:\n        /* \"#utility.yul\":11117:11120   */\n      0x00\n        /* \"#utility.yul\":11138:11143   */\n      dup2\n        /* \"#utility.yul\":11131:11143   */\n      swap1\n      pop\n        /* \"#utility.yul\":11074:11149   */\n      swap2\n      swap1\n      pop\n      jump\t// out\n        /* \"#utility.yul\":11155:11424   */\n    tag_104:\n        /* \"#utility.yul\":11265:11304   */\n      tag_220\n        /* \"#utility.yul\":11296:11303   */\n      dup4\n        /* \"#utility.yul\":11265:11304   */\n      tag_102\n      jump\t// in\n    tag_220:\n        /* \"#utility.yul\":11326:11417   */\n      tag_221\n        /* \"#utility.yul\":11375:11416   */\n      tag_222\n        /* \"#utility.yul\":11399:11415   */\n      dup3\n        /* \"#utility.yul\":11375:11416   */\n      tag_103\n      jump\t// in\n    tag_222:\n        /* \"#utility.yul\":11367:11373   */\n      dup5\n        /* \"#utility.yul\":11360:11364   */\n      dup5\n        /* \"#utility.yul\":11354:11365   */\n      sload\n        /* \"#utility.yul\":11326:11417   */\n      tag_100\n      jump\t// in\n    tag_221:\n        /* \"#utility.yul\":11320:11324   */\n      dup3\n        /* \"#utility.yul\":11313:11418   */\n      sstore\n        /* \"#utility.yul\":11231:11424   */\n      pop\n        /* \"#utility.yul\":11155:11424   */\n      pop\n      pop\n      pop\n      jump\t// out\n        /* \"#utility.yul\":11430:11503   */\n    tag_105:\n        /* \"#utility.yul\":11475:11478   */\n      0x00\n        /* \"#utility.yul\":11496:11497   */\n      0x00\n        /* \"#utility.yul\":11489:11497   */\n      swap1\n      pop\n        /* \"#utility.yul\":11430:11503   */\n      swap1\n      jump\t// out\n        /* \"#utility.yul\":11509:11698   */\n    tag_106:\n        /* \"#utility.yul\":11586:11618   */\n      tag_225\n      tag_105\n      jump\t// in\n    tag_225:\n        /* \"#utility.yul\":11627:11692   */\n      tag_226\n        /* \"#utility.yul\":11685:11691   */\n      dup2\n        /* \"#utility.yul\":11677:11683   */\n      dup5\n        /* \"#utility.yul\":11671:11675   */\n      dup5\n        /* \"#utility.yul\":11627:11692   */\n      tag_104\n      jump\t// in\n    tag_226:\n        /* \"#utility.yul\":11562:11698   */\n      pop\n        /* \"#utility.yul\":11509:11698   */\n      pop\n      pop\n      jump\t// out\n        /* \"#utility.yul\":11704:11890   */\n    tag_107:\n        /* \"#utility.yul\":11764:11884   */\n    tag_228:\n        /* \"#utility.yul\":11781:11784   */\n      dup2\n        /* \"#utility.yul\":11774:11779   */\n      dup2\n        /* \"#utility.yul\":11771:11785   */\n      lt\n        /* \"#utility.yul\":11764:11884   */\n      iszero\n      tag_230\n      jumpi\n        /* \"#utility.yul\":11835:11874   */\n      tag_231\n        /* \"#utility.yul\":11872:11873   */\n      0x00\n        /* \"#utility.yul\":11865:11870   */\n      dup3\n        /* \"#utility.yul\":11835:11874   */\n      tag_106\n      jump\t// in\n    tag_231:\n        /* \"#utility.yul\":11808:11809   */\n      0x01\n        /* \"#utility.yul\":11801:11806   */\n      dup2\n        /* \"#utility.yul\":11797:11810   */\n      add\n        /* \"#utility.yul\":11788:11810   */\n      swap1\n      pop\n        /* \"#utility.yul\":11764:11884   */\n      jump(tag_228)\n    tag_230:\n        /* \"#utility.yul\":11704:11890   */\n      pop\n      pop\n      jump\t// out\n        /* \"#utility.yul\":11896:12439   */\n    tag_108:\n        /* \"#utility.yul\":11997:11999   */\n      0x1f\n        /* \"#utility.yul\":11992:11995   */\n      dup3\n        /* \"#utility.yul\":11989:12000   */\n      gt\n        /* \"#utility.yul\":11986:12432   */\n      iszero\n      tag_233\n      jumpi\n        /* \"#utility.yul\":12031:12069   */\n      tag_234\n        /* \"#utility.yul\":12063:12068   */\n      dup2\n        /* \"#utility.yul\":12031:12069   */\n      tag_97\n      jump\t// in\n    tag_234:\n        /* \"#utility.yul\":12115:12144   */\n      tag_235\n        /* \"#utility.yul\":12133:12143   */\n      dup5\n        /* \"#utility.yul\":12115:12144   */\n      tag_98\n      jump\t// in\n    tag_235:\n        /* \"#utility.yul\":12105:12113   */\n      dup2\n        /* \"#utility.yul\":12101:12145   */\n      add\n        /* \"#utility.yul\":12298:12300   */\n      0x20\n        /* \"#utility.yul\":12286:12296   */\n      dup6\n        /* \"#utility.yul\":12283:12301   */\n      lt\n        /* \"#utility.yul\":12280:12329   */\n      iszero\n      tag_236\n      jumpi\n        /* \"#utility.yul\":12319:12327   */\n      dup2\n        /* \"#utility.yul\":12304:12327   */\n      swap1\n      pop\n        /* \"#utility.yul\":12280:12329   */\n    tag_236:\n        /* \"#utility.yul\":12342:12422   */\n      tag_237\n        /* \"#utility.yul\":12398:12420   */\n      tag_238\n        /* \"#utility.yul\":12416:12419   */\n      dup6\n        /* \"#utility.yul\":12398:12420   */\n      tag_98\n      jump\t// in\n    tag_238:\n        /* \"#utility.yul\":12388:12396   */\n      dup4\n        /* \"#utility.yul\":12384:12421   */\n      add\n        /* \"#utility.yul\":12371:12382   */\n      dup3\n        /* \"#utility.yul\":12342:12422   */\n      tag_107\n      jump\t// in\n    tag_237:\n        /* \"#utility.yul\":12001:12432   */\n      pop\n      pop\n        /* \"#utility.yul\":11986:12432   */\n    tag_233:\n        /* \"#utility.yul\":11896:12439   */\n      pop\n      pop\n      pop\n      jump\t// out\n        /* \"#utility.yul\":12445:12562   */\n    tag_109:\n        /* \"#utility.yul\":12499:12507   */\n      0x00\n        /* \"#utility.yul\":12549:12554   */\n      dup3\n        /* \"#utility.yul\":12543:12547   */\n      dup3\n        /* \"#utility.yul\":12539:12555   */\n      shr\n        /* \"#utility.yul\":12518:12555   */\n      swap1\n      pop\n        /* \"#utility.yul\":12445:12562   */\n      swap3\n      swap2\n      pop\n      pop\n      jump\t// out\n        /* \"#utility.yul\":12568:12737   */\n    tag_110:\n        /* \"#utility.yul\":12612:12618   */\n      0x00\n        /* \"#utility.yul\":12645:12696   */\n      tag_241\n        /* \"#utility.yul\":12693:12694   */\n      0x00\n        /* \"#utility.yul\":12689:12695   */\n      not\n        /* \"#utility.yul\":12681:12686   */\n      dup5\n        /* \"#utility.yul\":12678:12679   */\n      0x08\n        /* \"#utility.yul\":12674:12687   */\n      mul\n        /* \"#utility.yul\":12645:12696   */\n      tag_109\n      jump\t// in\n    tag_241:\n        /* \"#utility.yul\":12641:12697   */\n      not\n        /* \"#utility.yul\":12726:12730   */\n      dup1\n        /* \"#utility.yul\":12720:12724   */\n      dup4\n        /* \"#utility.yul\":12716:12731   */\n      and\n        /* \"#utility.yul\":12706:12731   */\n      swap2\n      pop\n        /* \"#utility.yul\":12619:12737   */\n      pop\n        /* \"#utility.yul\":12568:12737   */\n      swap3\n      swap2\n      pop\n      pop\n      jump\t// out\n        /* \"#utility.yul\":12742:13037   */\n    tag_111:\n        /* \"#utility.yul\":12818:12822   */\n      0x00\n        /* \"#utility.yul\":12964:12993   */\n      tag_243\n        /* \"#utility.yul\":12989:12992   */\n      dup4\n        /* \"#utility.yul\":12983:12987   */\n      dup4\n        /* \"#utility.yul\":12964:12993   */\n      tag_110\n      jump\t// in\n    tag_243:\n        /* \"#utility.yul\":12956:12993   */\n      swap2\n      pop\n        /* \"#utility.yul\":13026:13029   */\n      dup3\n        /* \"#utility.yul\":13023:13024   */\n      0x02\n        /* \"#utility.yul\":13019:13030   */\n      mul\n        /* \"#utility.yul\":13013:13017   */\n      dup3\n        /* \"#utility.yul\":13010:13031   */\n      or\n        /* \"#utility.yul\":13002:13031   */\n      swap1\n      pop\n        /* \"#utility.yul\":12742:13037   */\n      swap3\n      swap2\n      pop\n      pop\n      jump\t// out\n        /* \"#utility.yul\":13042:14437   */\n    tag_65:\n        /* \"#utility.yul\":13159:13196   */\n      tag_245\n        /* \"#utility.yul\":13192:13195   */\n      dup3\n        /* \"#utility.yul\":13159:13196   */\n      tag_74\n      jump\t// in\n    tag_245:\n        /* \"#utility.yul\":13261:13279   */\n      0xffffffffffffffff\n        /* \"#utility.yul\":13253:13259   */\n      dup2\n        /* \"#utility.yul\":13250:13280   */\n      gt\n        /* \"#utility.yul\":13247:13303   */\n      iszero\n      tag_246\n      jumpi\n        /* \"#utility.yul\":13283:13301   */\n      tag_247\n      tag_84\n      jump\t// in\n    tag_247:\n        /* \"#utility.yul\":13247:13303   */\n    tag_246:\n        /* \"#utility.yul\":13327:13365   */\n      tag_248\n        /* \"#utility.yul\":13359:13363   */\n      dup3\n        /* \"#utility.yul\":13353:13364   */\n      sload\n        /* \"#utility.yul\":13327:13365   */\n      tag_30\n      jump\t// in\n    tag_248:\n        /* \"#utility.yul\":13412:13479   */\n      tag_249\n        /* \"#utility.yul\":13472:13478   */\n      dup3\n        /* \"#utility.yul\":13464:13470   */\n      dup3\n        /* \"#utility.yul\":13458:13462   */\n      dup6\n        /* \"#utility.yul\":13412:13479   */\n      tag_108\n      jump\t// in\n    tag_249:\n        /* \"#utility.yul\":13506:13507   */\n      0x00\n        /* \"#utility.yul\":13530:13534   */\n      0x20\n        /* \"#utility.yul\":13517:13534   */\n      swap1\n      pop\n        /* \"#utility.yul\":13562:13564   */\n      0x1f\n        /* \"#utility.yul\":13554:13560   */\n      dup4\n        /* \"#utility.yul\":13551:13565   */\n      gt\n        /* \"#utility.yul\":13579:13580   */\n      0x01\n        /* \"#utility.yul\":13574:14192   */\n      dup2\n      eq\n      tag_251\n      jumpi\n        /* \"#utility.yul\":14236:14237   */\n      0x00\n        /* \"#utility.yul\":14253:14259   */\n      dup5\n        /* \"#utility.yul\":14250:14327   */\n      iszero\n      tag_252\n      jumpi\n        /* \"#utility.yul\":14302:14311   */\n      dup3\n        /* \"#utility.yul\":14297:14300   */\n      dup8\n        /* \"#utility.yul\":14293:14312   */\n      add\n        /* \"#utility.yul\":14287:14313   */\n      mload\n        /* \"#utility.yul\":14278:14313   */\n      swap1\n      pop\n        /* \"#utility.yul\":14250:14327   */\n    tag_252:\n        /* \"#utility.yul\":14353:14420   */\n      tag_253\n        /* \"#utility.yul\":14413:14419   */\n      dup6\n        /* \"#utility.yul\":14406:14411   */\n      dup3\n        /* \"#utility.yul\":14353:14420   */\n      tag_111\n      jump\t// in\n    tag_253:\n        /* \"#utility.yul\":14347:14351   */\n      dup7\n        /* \"#utility.yul\":14340:14421   */\n      sstore\n        /* \"#utility.yul\":14209:14431   */\n      pop\n        /* \"#utility.yul\":13544:14431   */\n      jump(tag_250)\n        /* \"#utility.yul\":13574:14192   */\n    tag_251:\n        /* \"#utility.yul\":13626:13630   */\n      0x1f\n        /* \"#utility.yul\":13622:13631   */\n      not\n        /* \"#utility.yul\":13614:13620   */\n      dup5\n        /* \"#utility.yul\":13610:13632   */\n      and\n        /* \"#utility.yul\":13660:13697   */\n      tag_254\n        /* \"#utility.yul\":13692:13696   */\n      dup7\n        /* \"#utility.yul\":13660:13697   */\n      tag_97\n      jump\t// in\n    tag_254:\n        /* \"#utility.yul\":13719:13720   */\n      0x00\n        /* \"#utility.yul\":13733:13941   */\n    tag_255:\n        /* \"#utility.yul\":13747:13754   */\n      dup3\n        /* \"#utility.yul\":13744:13745   */\n      dup2\n        /* \"#utility.yul\":13741:13755   */\n      lt\n        /* \"#utility.yul\":13733:13941   */\n      iszero\n      tag_257\n      jumpi\n        /* \"#utility.yul\":13826:13835   */\n      dup5\n        /* \"#utility.yul\":13821:13824   */\n      dup10\n        /* \"#utility.yul\":13817:13836   */\n      add\n        /* \"#utility.yul\":13811:13837   */\n      mload\n        /* \"#utility.yul\":13803:13809   */\n      dup3\n        /* \"#utility.yul\":13796:13838   */\n      sstore\n        /* \"#utility.yul\":13877:13878   */\n      0x01\n        /* \"#utility.yul\":13869:13875   */\n      dup3\n        /* \"#utility.yul\":13865:13879   */\n      add\n        /* \"#utility.yul\":13855:13879   */\n      swap2\n      pop\n        /* \"#utility.yul\":13924:13926   */\n      0x20\n        /* \"#utility.yul\":13913:13922   */\n      dup6\n        /* \"#utility.yul\":13909:13927   */\n      add\n        /* \"#utility.yul\":13896:13927   */\n      swap5\n      pop\n        /* \"#utility.yul\":13770:13774   */\n      0x20\n        /* \"#utility.yul\":13767:13768   */\n      dup2\n        /* \"#utility.yul\":13763:13775   */\n      add\n        /* \"#utility.yul\":13758:13775   */\n      swap1\n      pop\n        /* \"#utility.yul\":13733:13941   */\n      jump(tag_255)\n    tag_257:\n        /* \"#utility.yul\":13969:13975   */\n      dup7\n        /* \"#utility.yul\":13960:13967   */\n      dup4\n        /* \"#utility.yul\":13957:13976   */\n      lt\n        /* \"#utility.yul\":13954:14133   */\n      iszero\n      tag_258\n      jumpi\n        /* \"#utility.yul\":14027:14036   */\n      dup5\n        /* \"#utility.yul\":14022:14025   */\n      dup10\n        /* \"#utility.yul\":14018:14037   */\n      add\n        /* \"#utility.yul\":14012:14038   */\n      mload\n        /* \"#utility.yul\":14070:14118   */\n      tag_259\n        /* \"#utility.yul\":14112:14116   */\n      0x1f\n        /* \"#utility.yul\":14104:14110   */\n      dup10\n        /* \"#utility.yul\":14100:14117   */\n      and\n        /* \"#utility.yul\":14089:14098   */\n      dup3\n        /* \"#utility.yul\":14070:14118   */\n      tag_110\n      jump\t// in\n    tag_259:\n        /* \"#utility.yul\":14062:14068   */\n      dup4\n        /* \"#utility.yul\":14055:14119   */\n      sstore\n        /* \"#utility.yul\":13977:14133   */\n      pop\n        /* \"#utility.yul\":13954:14133   */\n    tag_258:\n        /* \"#utility.yul\":14179:14180   */\n      0x01\n        /* \"#utility.yul\":14175:14176   */\n      0x02\n        /* \"#utility.yul\":14167:14173   */\n      dup9\n        /* \"#utility.yul\":14163:14177   */\n      mul\n        /* \"#utility.yul\":14159:14181   */\n      add\n        /* \"#utility.yul\":14153:14157   */\n      dup9\n        /* \"#utility.yul\":14146:14182   */\n      sstore\n        /* \"#utility.yul\":13581:14192   */\n      pop\n      pop\n      pop\n        /* \"#utility.yul\":13544:14431   */\n    tag_250:\n      pop\n        /* \"#utility.yul\":13134:14437   */\n      pop\n      pop\n      pop\n        /* \"#utility.yul\":13042:14437   */\n      pop\n      pop\n      jump\t// out\n\n    auxdata: 0xa2646970667358221220803b918131b42ee7a18ccbb58ba0e5230e5f69db3e849710b1f2ba1c6606dbf664736f6c634300081e0033\n}\n",
				"bytecode": {
					"linkReferences": {},
					"object": "6080604052348015600e575f5ffd5b50335f5f6101000a81548173ffffffffffffffffffffffffffffffffffffffff021916908373ffffffffffffffffffffffffffffffffffffffff160217905550610d568061005b5f395ff3fe608060405234801561000f575f5ffd5b506004361061004a575f3560e01c806351640fee1461004e578063663b3e221461007e5780637cd44c23146100b0578063ae12894e146100cc575b5f5ffd5b61006860048036038101906100639190610608565b6100ea565b60405161007591906106fe565b60405180910390f35b61009860048036038101906100939190610608565b6102c4565b6040516100a793929190610766565b60405180910390f35b6100ca60048036038101906100c591906108dc565b61047c565b005b6100d461057f565b6040516100e191906109d3565b60405180910390f35b6100f26105a3565b60015f8381526020019081526020015f206040518060600160405290815f8201805461011d90610a19565b80601f016020809104026020016040519081016040528092919081815260200182805461014990610a19565b80156101945780601f1061016b57610100808354040283529160200191610194565b820191905f5260205f20905b81548152906001019060200180831161017757829003601f168201915b505050505081526020016001820180546101ad90610a19565b80601f01602080910402602001604051908101604052809291908181526020018280546101d990610a19565b80156102245780601f106101fb57610100808354040283529160200191610224565b820191905f5260205f20905b81548152906001019060200180831161020757829003601f168201915b5050505050815260200160028201805461023d90610a19565b80601f016020809104026020016040519081016040528092919081815260200182805461026990610a19565b80156102b45780601f1061028b576101008083540402835291602001916102b4565b820191905f5260205f20905b81548152906001019060200180831161029757829003601f168201915b5050505050815250509050919050565b6001602052805f5260405f205f91509050805f0180546102e390610a19565b80601f016020809104026020016040519081016040528092919081815260200182805461030f90610a19565b801561035a5780601f106103315761010080835404028352916020019161035a565b820191905f5260205f20905b81548152906001019060200180831161033d57829003601f168201915b50505050509080600101805461036f90610a19565b80601f016020809104026020016040519081016040528092919081815260200182805461039b90610a19565b80156103e65780601f106103bd576101008083540402835291602001916103e6565b820191905f5260205f20905b8154815290600101906020018083116103c957829003601f168201915b5050505050908060020180546103fb90610a19565b80601f016020809104026020016040519081016040528092919081815260200182805461042790610a19565b80156104725780601f1061044957610100808354040283529160200191610472565b820191905f5260205f20905b81548152906001019060200180831161045557829003601f168201915b5050505050905083565b5f5f9054906101000a900473ffffffffffffffffffffffffffffffffffffffff1673ffffffffffffffffffffffffffffffffffffffff163373ffffffffffffffffffffffffffffffffffffffff161461050a576040517f08c379a000000000000000000000000000000000000000000000000000000000815260040161050190610a93565b60405180910390fd5b60405180606001604052808481526020018381526020018281525060015f8681526020019081526020015f205f820151815f0190816105499190610c51565b50602082015181600101908161055f9190610c51565b5060408201518160020190816105759190610c51565b5090505050505050565b5f5f9054906101000a900473ffffffffffffffffffffffffffffffffffffffff1681565b60405180606001604052806060815260200160608152602001606081525090565b5f604051905090565b5f5ffd5b5f5ffd5b5f819050919050565b6105e7816105d5565b81146105f1575f5ffd5b50565b5f81359050610602816105de565b92915050565b5f6020828403121561061d5761061c6105cd565b5b5f61062a848285016105f4565b91505092915050565b5f81519050919050565b5f82825260208201905092915050565b8281835e5f83830152505050565b5f601f19601f8301169050919050565b5f61067582610633565b61067f818561063d565b935061068f81856020860161064d565b6106988161065b565b840191505092915050565b5f606083015f8301518482035f8601526106bd828261066b565b915050602083015184820360208601526106d7828261066b565b915050604083015184820360408601526106f1828261066b565b9150508091505092915050565b5f6020820190508181035f83015261071681846106a3565b905092915050565b5f82825260208201905092915050565b5f61073882610633565b610742818561071e565b935061075281856020860161064d565b61075b8161065b565b840191505092915050565b5f6060820190508181035f83015261077e818661072e565b90508181036020830152610792818561072e565b905081810360408301526107a6818461072e565b9050949350505050565b5f5ffd5b5f5ffd5b7f4e487b71000000000000000000000000000000000000000000000000000000005f52604160045260245ffd5b6107ee8261065b565b810181811067ffffffffffffffff8211171561080d5761080c6107b8565b5b80604052505050565b5f61081f6105c4565b905061082b82826107e5565b919050565b5f67ffffffffffffffff82111561084a576108496107b8565b5b6108538261065b565b9050602081019050919050565b828183375f83830152505050565b5f61088061087b84610830565b610816565b90508281526020810184848401111561089c5761089b6107b4565b5b6108a7848285610860565b509392505050565b5f82601f8301126108c3576108c26107b0565b5b81356108d384826020860161086e565b91505092915050565b5f5f5f5f608085870312156108f4576108f36105cd565b5b5f610901878288016105f4565b945050602085013567ffffffffffffffff811115610922576109216105d1565b5b61092e878288016108af565b935050604085013567ffffffffffffffff81111561094f5761094e6105d1565b5b61095b878288016108af565b925050606085013567ffffffffffffffff81111561097c5761097b6105d1565b5b610988878288016108af565b91505092959194509250565b5f73ffffffffffffffffffffffffffffffffffffffff82169050919050565b5f6109bd82610994565b9050919050565b6109cd816109b3565b82525050565b5f6020820190506109e65f8301846109c4565b92915050565b7f4e487b71000000000000000000000000000000000000000000000000000000005f52602260045260245ffd5b5f6002820490506001821680610a3057607f821691505b602082108103610a4357610a426109ec565b5b50919050565b7f4f6e6c7920756e69766572736974792063616e206973737565000000000000005f82015250565b5f610a7d60198361071e565b9150610a8882610a49565b602082019050919050565b5f6020820190508181035f830152610aaa81610a71565b9050919050565b5f819050815f5260205f209050919050565b5f6020601f8301049050919050565b5f82821b905092915050565b5f60088302610b0d7fffffffffffffffffffffffffffffffffffffffffffffffffffffffffffffffff82610ad2565b610b178683610ad2565b95508019841693508086168417925050509392505050565b5f819050919050565b5f610b52610b4d610b48846105d5565b610b2f565b6105d5565b9050919050565b5f819050919050565b610b6b83610b38565b610b7f610b7782610b59565b848454610ade565b825550505050565b5f5f905090565b610b96610b87565b610ba1818484610b62565b505050565b5b81811015610bc457610bb95f82610b8e565b600181019050610ba7565b5050565b601f821115610c0957610bda81610ab1565b610be384610ac3565b81016020851015610bf2578190505b610c06610bfe85610ac3565b830182610ba6565b50505b505050565b5f82821c905092915050565b5f610c295f1984600802610c0e565b1980831691505092915050565b5f610c418383610c1a565b9150826002028217905092915050565b610c5a82610633565b67ffffffffffffffff811115610c7357610c726107b8565b5b610c7d8254610a19565b610c88828285610bc8565b5f60209050601f831160018114610cb9575f8415610ca7578287015190505b610cb18582610c36565b865550610d18565b601f198416610cc786610ab1565b5f5b82811015610cee57848901518255600182019150602085019450602081019050610cc9565b86831015610d0b5784890151610d07601f891682610c1a565b8355505b6001600288020188555050505b50505050505056fea2646970667358221220803b918131b42ee7a18ccbb58ba0e5230e5f69db3e849710b1f2ba1c6606dbf664736f6c634300081e0033",
					"opcodes": "PUSH1 0x80 PUSH1 0x40 MSTORE CALLVALUE DUP1 ISZERO PUSH1 0xE JUMPI PUSH0 PUSH0 REVERT JUMPDEST POP CALLER PUSH0 PUSH0 PUSH2 0x100 EXP DUP2 SLOAD DUP2 PUSH20 0xFFFFFFFFFFFFFFFFFFFFFFFFFFFFFFFFFFFFFFFF MUL NOT AND SWAP1 DUP4 PUSH20 0xFFFFFFFFFFFFFFFFFFFFFFFFFFFFFFFFFFFFFFFF AND MUL OR SWAP1 SSTORE POP PUSH2 0xD56 DUP1 PUSH2 0x5B PUSH0 CODECOPY PUSH0 RETURN INVALID PUSH1 0x80 PUSH1 0x40 MSTORE CALLVALUE DUP1 ISZERO PUSH2 0xF JUMPI PUSH0 PUSH0 REVERT JUMPDEST POP PUSH1 0x4 CALLDATASIZE LT PUSH2 0x4A JUMPI PUSH0 CALLDATALOAD PUSH1 0xE0 SHR DUP1 PUSH4 0x51640FEE EQ PUSH2 0x4E JUMPI DUP1 PUSH4 0x663B3E22 EQ PUSH2 0x7E JUMPI DUP1 PUSH4 0x7CD44C23 EQ PUSH2 0xB0 JUMPI DUP1 PUSH4 0xAE12894E EQ PUSH2 0xCC JUMPI JUMPDEST PUSH0 PUSH0 REVERT JUMPDEST PUSH2 0x68 PUSH1 0x4 DUP1 CALLDATASIZE SUB DUP2 ADD SWAP1 PUSH2 0x63 SWAP2 SWAP1 PUSH2 0x608 JUMP JUMPDEST PUSH2 0xEA JUMP JUMPDEST PUSH1 0x40 MLOAD PUSH2 0x75 SWAP2 SWAP1 PUSH2 0x6FE JUMP JUMPDEST PUSH1 0x40 MLOAD DUP1 SWAP2 SUB SWAP1 RETURN JUMPDEST PUSH2 0x98 PUSH1 0x4 DUP1 CALLDATASIZE SUB DUP2 ADD SWAP1 PUSH2 0x93 SWAP2 SWAP1 PUSH2 0x608 JUMP JUMPDEST PUSH2 0x2C4 JUMP JUMPDEST PUSH1 0x40 MLOAD PUSH2 0xA7 SWAP4 SWAP3 SWAP2 SWAP1 PUSH2 0x766 JUMP JUMPDEST PUSH1 0x40 MLOAD DUP1 SWAP2 SUB SWAP1 RETURN JUMPDEST PUSH2 0xCA PUSH1 0x4 DUP1 CALLDATASIZE SUB DUP2 ADD SWAP1 PUSH2 0xC5 SWAP2 SWAP1 PUSH2 0x8DC JUMP JUMPDEST PUSH2 0x47C JUMP JUMPDEST STOP JUMPDEST PUSH2 0xD4 PUSH2 0x57F JUMP JUMPDEST PUSH1 0x40 MLOAD PUSH2 0xE1 SWAP2 SWAP1 PUSH2 0x9D3 JUMP JUMPDEST PUSH1 0x40 MLOAD DUP1 SWAP2 SUB SWAP1 RETURN JUMPDEST PUSH2 0xF2 PUSH2 0x5A3 JUMP JUMPDEST PUSH1 0x1 PUSH0 DUP4 DUP2 MSTORE PUSH1 0x20 ADD SWAP1 DUP2 MSTORE PUSH1 0x20 ADD PUSH0 KECCAK256 PUSH1 0x40 MLOAD DUP1 PUSH1 0x60 ADD PUSH1 0x40 MSTORE SWAP1 DUP2 PUSH0 DUP3 ADD DUP1 SLOAD PUSH2 0x11D SWAP1 PUSH2 0xA19 JUMP JUMPDEST DUP1 PUSH1 0x1F ADD PUSH1 0x20 DUP1 SWAP2 DIV MUL PUSH1 0x20 ADD PUSH1 0x40 MLOAD SWAP1 DUP2 ADD PUSH1 0x40 MSTORE DUP1 SWAP3 SWAP2 SWAP1 DUP2 DUP2 MSTORE PUSH1 0x20 ADD DUP3 DUP1 SLOAD PUSH2 0x149 SWAP1 PUSH2 0xA19 JUMP JUMPDEST DUP1 ISZERO PUSH2 0x194 JUMPI DUP1 PUSH1 0x1F LT PUSH2 0x16B JUMPI PUSH2 0x100 DUP1 DUP4 SLOAD DIV MUL DUP4 MSTORE SWAP2 PUSH1 0x20 ADD SWAP2 PUSH2 0x194 JUMP JUMPDEST DUP3 ADD SWAP2 SWAP1 PUSH0 MSTORE PUSH1 0x20 PUSH0 KECCAK256 SWAP1 JUMPDEST DUP2 SLOAD DUP2 MSTORE SWAP1 PUSH1 0x1 ADD SWAP1 PUSH1 0x20 ADD DUP1 DUP4 GT PUSH2 0x177 JUMPI DUP3 SWAP1 SUB PUSH1 0x1F AND DUP3 ADD SWAP2 JUMPDEST POP POP POP POP POP DUP2 MSTORE PUSH1 0x20 ADD PUSH1 0x1 DUP3 ADD DUP1 SLOAD PUSH2 0x1AD SWAP1 PUSH2 0xA19 JUMP JUMPDEST DUP1 PUSH1 0x1F ADD PUSH1 0x20 DUP1 SWAP2 DIV MUL PUSH1 0x20 ADD PUSH1 0x40 MLOAD SWAP1 DUP2 ADD PUSH1 0x40 MSTORE DUP1 SWAP3 SWAP2 SWAP1 DUP2 DUP2 MSTORE PUSH1 0x20 ADD DUP3 DUP1 SLOAD PUSH2 0x1D9 SWAP1 PUSH2 0xA19 JUMP JUMPDEST DUP1 ISZERO PUSH2 0x224 JUMPI DUP1 PUSH1 0x1F LT PUSH2 0x1FB JUMPI PUSH2 0x100 DUP1 DUP4 SLOAD DIV MUL DUP4 MSTORE SWAP2 PUSH1 0x20 ADD SWAP2 PUSH2 0x224 JUMP JUMPDEST DUP3 ADD SWAP2 SWAP1 PUSH0 MSTORE PUSH1 0x20 PUSH0 KECCAK256 SWAP1 JUMPDEST DUP2 SLOAD DUP2 MSTORE SWAP1 PUSH1 0x1 ADD SWAP1 PUSH1 0x20 ADD DUP1 DUP4 GT PUSH2 0x207 JUMPI DUP3 SWAP1 SUB PUSH1 0x1F AND DUP3 ADD SWAP2 JUMPDEST POP POP POP POP POP DUP2 MSTORE PUSH1 0x20 ADD PUSH1 0x2 DUP3 ADD DUP1 SLOAD PUSH2 0x23D SWAP1 PUSH2 0xA19 JUMP JUMPDEST DUP1 PUSH1 0x1F ADD PUSH1 0x20 DUP1 SWAP2 DIV MUL PUSH1 0x20 ADD PUSH1 0x40 MLOAD SWAP1 DUP2 ADD PUSH1 0x40 MSTORE DUP1 SWAP3 SWAP2 SWAP1 DUP2 DUP2 MSTORE PUSH1 0x20 ADD DUP3 DUP1 SLOAD PUSH2 0x269 SWAP1 PUSH2 0xA19 JUMP JUMPDEST DUP1 ISZERO PUSH2 0x2B4 JUMPI DUP1 PUSH1 0x1F LT PUSH2 0x28B JUMPI PUSH2 0x100 DUP1 DUP4 SLOAD DIV MUL DUP4 MSTORE SWAP2 PUSH1 0x20 ADD SWAP2 PUSH2 0x2B4 JUMP JUMPDEST DUP3 ADD SWAP2 SWAP1 PUSH0 MSTORE PUSH1 0x20 PUSH0 KECCAK256 SWAP1 JUMPDEST DUP2 SLOAD DUP2 MSTORE SWAP1 PUSH1 0x1 ADD SWAP1 PUSH1 0x20 ADD DUP1 DUP4 GT PUSH2 0x297 JUMPI DUP3 SWAP1 SUB PUSH1 0x1F AND DUP3 ADD SWAP2 JUMPDEST POP POP POP POP POP DUP2 MSTORE POP POP SWAP1 POP SWAP2 SWAP1 POP JUMP JUMPDEST PUSH1 0x1 PUSH1 0x20 MSTORE DUP1 PUSH0 MSTORE PUSH1 0x40 PUSH0 KECCAK256 PUSH0 SWAP2 POP SWAP1 POP DUP1 PUSH0 ADD DUP1 SLOAD PUSH2 0x2E3 SWAP1 PUSH2 0xA19 JUMP JUMPDEST DUP1 PUSH1 0x1F ADD PUSH1 0x20 DUP1 SWAP2 DIV MUL PUSH1 0x20 ADD PUSH1 0x40 MLOAD SWAP1 DUP2 ADD PUSH1 0x40 MSTORE DUP1 SWAP3 SWAP2 SWAP1 DUP2 DUP2 MSTORE PUSH1 0x20 ADD DUP3 DUP1 SLOAD PUSH2 0x30F SWAP1 PUSH2 0xA19 JUMP JUMPDEST DUP1 ISZERO PUSH2 0x35A JUMPI DUP1 PUSH1 0x1F LT PUSH2 0x331 JUMPI PUSH2 0x100 DUP1 DUP4 SLOAD DIV MUL DUP4 MSTORE SWAP2 PUSH1 0x20 ADD SWAP2 PUSH2 0x35A JUMP JUMPDEST DUP3 ADD SWAP2 SWAP1 PUSH0 MSTORE PUSH1 0x20 PUSH0 KECCAK256 SWAP1 JUMPDEST DUP2 SLOAD DUP2 MSTORE SWAP1 PUSH1 0x1 ADD SWAP1 PUSH1 0x20 ADD DUP1 DUP4 GT PUSH2 0x33D JUMPI DUP3 SWAP1 SUB PUSH1 0x1F AND DUP3 ADD SWAP2 JUMPDEST POP POP POP POP POP SWAP1 DUP1 PUSH1 0x1 ADD DUP1 SLOAD PUSH2 0x36F SWAP1 PUSH2 0xA19 JUMP JUMPDEST DUP1 PUSH1 0x1F ADD PUSH1 0x20 DUP1 SWAP2 DIV MUL PUSH1 0x20 ADD PUSH1 0x40 MLOAD SWAP1 DUP2 ADD PUSH1 0x40 MSTORE DUP1 SWAP3 SWAP2 SWAP1 DUP2 DUP2 MSTORE PUSH1 0x20 ADD DUP3 DUP1 SLOAD PUSH2 0x39B SWAP1 PUSH2 0xA19 JUMP JUMPDEST DUP1 ISZERO PUSH2 0x3E6 JUMPI DUP1 PUSH1 0x1F LT PUSH2 0x3BD JUMPI PUSH2 0x100 DUP1 DUP4 SLOAD DIV MUL DUP4 MSTORE SWAP2 PUSH1 0x20 ADD SWAP2 PUSH2 0x3E6 JUMP JUMPDEST DUP3 ADD SWAP2 SWAP1 PUSH0 MSTORE PUSH1 0x20 PUSH0 KECCAK256 SWAP1 JUMPDEST DUP2 SLOAD DUP2 MSTORE SWAP1 PUSH1 0x1 ADD SWAP1 PUSH1 0x20 ADD DUP1 DUP4 GT PUSH2 0x3C9 JUMPI DUP3 SWAP1 SUB PUSH1 0x1F AND DUP3 ADD SWAP2 JUMPDEST POP POP POP POP POP SWAP1 DUP1 PUSH1 0x2 ADD DUP1 SLOAD PUSH2 0x3FB SWAP1 PUSH2 0xA19 JUMP JUMPDEST DUP1 PUSH1 0x1F ADD PUSH1 0x20 DUP1 SWAP2 DIV MUL PUSH1 0x20 ADD PUSH1 0x40 MLOAD SWAP1 DUP2 ADD PUSH1 0x40 MSTORE DUP1 SWAP3 SWAP2 SWAP1 DUP2 DUP2 MSTORE PUSH1 0x20 ADD DUP3 DUP1 SLOAD PUSH2 0x427 SWAP1 PUSH2 0xA19 JUMP JUMPDEST DUP1 ISZERO PUSH2 0x472 JUMPI DUP1 PUSH1 0x1F LT PUSH2 0x449 JUMPI PUSH2 0x100 DUP1 DUP4 SLOAD DIV MUL DUP4 MSTORE SWAP2 PUSH1 0x20 ADD SWAP2 PUSH2 0x472 JUMP JUMPDEST DUP3 ADD SWAP2 SWAP1 PUSH0 MSTORE PUSH1 0x20 PUSH0 KECCAK256 SWAP1 JUMPDEST DUP2 SLOAD DUP2 MSTORE SWAP1 PUSH1 0x1 ADD SWAP1 PUSH1 0x20 ADD DUP1 DUP4 GT PUSH2 0x455 JUMPI DUP3 SWAP1 SUB PUSH1 0x1F AND DUP3 ADD SWAP2 JUMPDEST POP POP POP POP POP SWAP1 POP DUP4 JUMP JUMPDEST PUSH0 PUSH0 SWAP1 SLOAD SWAP1 PUSH2 0x100 EXP SWAP1 DIV PUSH20 0xFFFFFFFFFFFFFFFFFFFFFFFFFFFFFFFFFFFFFFFF AND PUSH20 0xFFFFFFFFFFFFFFFFFFFFFFFFFFFFFFFFFFFFFFFF AND CALLER PUSH20 0xFFFFFFFFFFFFFFFFFFFFFFFFFFFFFFFFFFFFFFFF AND EQ PUSH2 0x50A JUMPI PUSH1 0x40 MLOAD PUSH32 0x8C379A000000000000000000000000000000000000000000000000000000000 DUP2 MSTORE PUSH1 0x4 ADD PUSH2 0x501 SWAP1 PUSH2 0xA93 JUMP JUMPDEST PUSH1 0x40 MLOAD DUP1 SWAP2 SUB SWAP1 REVERT JUMPDEST PUSH1 0x40 MLOAD DUP1 PUSH1 0x60 ADD PUSH1 0x40 MSTORE DUP1 DUP5 DUP2 MSTORE PUSH1 0x20 ADD DUP4 DUP2 MSTORE PUSH1 0x20 ADD DUP3 DUP2 MSTORE POP PUSH1 0x1 PUSH0 DUP7 DUP2 MSTORE PUSH1 0x20 ADD SWAP1 DUP2 MSTORE PUSH1 0x20 ADD PUSH0 KECCAK256 PUSH0 DUP3 ADD MLOAD DUP2 PUSH0 ADD SWAP1 DUP2 PUSH2 0x549 SWAP2 SWAP1 PUSH2 0xC51 JUMP JUMPDEST POP PUSH1 0x20 DUP3 ADD MLOAD DUP2 PUSH1 0x1 ADD SWAP1 DUP2 PUSH2 0x55F SWAP2 SWAP1 PUSH2 0xC51 JUMP JUMPDEST POP PUSH1 0x40 DUP3 ADD MLOAD DUP2 PUSH1 0x2 ADD SWAP1 DUP2 PUSH2 0x575 SWAP2 SWAP1 PUSH2 0xC51 JUMP JUMPDEST POP SWAP1 POP POP POP POP POP POP JUMP JUMPDEST PUSH0 PUSH0 SWAP1 SLOAD SWAP1 PUSH2 0x100 EXP SWAP1 DIV PUSH20 0xFFFFFFFFFFFFFFFFFFFFFFFFFFFFFFFFFFFFFFFF AND DUP2 JUMP JUMPDEST PUSH1 0x40 MLOAD DUP1 PUSH1 0x60 ADD PUSH1 0x40 MSTORE DUP1 PUSH1 0x60 DUP2 MSTORE PUSH1 0x20 ADD PUSH1 0x60 DUP2 MSTORE PUSH1 0x20 ADD PUSH1 0x60 DUP2 MSTORE POP SWAP1 JUMP JUMPDEST PUSH0 PUSH1 0x40 MLOAD SWAP1 POP SWAP1 JUMP JUMPDEST PUSH0 PUSH0 REVERT JUMPDEST PUSH0 PUSH0 REVERT JUMPDEST PUSH0 DUP2 SWAP1 POP SWAP2 SWAP1 POP JUMP JUMPDEST PUSH2 0x5E7 DUP2 PUSH2 0x5D5 JUMP JUMPDEST DUP2 EQ PUSH2 0x5F1 JUMPI PUSH0 PUSH0 REVERT JUMPDEST POP JUMP JUMPDEST PUSH0 DUP2 CALLDATALOAD SWAP1 POP PUSH2 0x602 DUP2 PUSH2 0x5DE JUMP JUMPDEST SWAP3 SWAP2 POP POP JUMP JUMPDEST PUSH0 PUSH1 0x20 DUP3 DUP5 SUB SLT ISZERO PUSH2 0x61D JUMPI PUSH2 0x61C PUSH2 0x5CD JUMP JUMPDEST JUMPDEST PUSH0 PUSH2 0x62A DUP5 DUP3 DUP6 ADD PUSH2 0x5F4 JUMP JUMPDEST SWAP2 POP POP SWAP3 SWAP2 POP POP JUMP JUMPDEST PUSH0 DUP2 MLOAD SWAP1 POP SWAP2 SWAP1 POP JUMP JUMPDEST PUSH0 DUP3 DUP3 MSTORE PUSH1 0x20 DUP3 ADD SWAP1 POP SWAP3 SWAP2 POP POP JUMP JUMPDEST DUP3 DUP2 DUP4 MCOPY PUSH0 DUP4 DUP4 ADD MSTORE POP POP POP JUMP JUMPDEST PUSH0 PUSH1 0x1F NOT PUSH1 0x1F DUP4 ADD AND SWAP1 POP SWAP2 SWAP1 POP JUMP JUMPDEST PUSH0 PUSH2 0x675 DUP3 PUSH2 0x633 JUMP JUMPDEST PUSH2 0x67F DUP2 DUP6 PUSH2 0x63D JUMP JUMPDEST SWAP4 POP PUSH2 0x68F DUP2 DUP6 PUSH1 0x20 DUP7 ADD PUSH2 0x64D JUMP JUMPDEST PUSH2 0x698 DUP2 PUSH2 0x65B JUMP JUMPDEST DUP5 ADD SWAP2 POP POP SWAP3 SWAP2 POP POP JUMP JUMPDEST PUSH0 PUSH1 0x60 DUP4 ADD PUSH0 DUP4 ADD MLOAD DUP5 DUP3 SUB PUSH0 DUP7 ADD MSTORE PUSH2 0x6BD DUP3 DUP3 PUSH2 0x66B JUMP JUMPDEST SWAP2 POP POP PUSH1 0x20 DUP4 ADD MLOAD DUP5 DUP3 SUB PUSH1 0x20 DUP7 ADD MSTORE PUSH2 0x6D7 DUP3 DUP3 PUSH2 0x66B JUMP JUMPDEST SWAP2 POP POP PUSH1 0x40 DUP4 ADD MLOAD DUP5 DUP3 SUB PUSH1 0x40 DUP7 ADD MSTORE PUSH2 0x6F1 DUP3 DUP3 PUSH2 0x66B JUMP JUMPDEST SWAP2 POP POP DUP1 SWAP2 POP POP SWAP3 SWAP2 POP POP JUMP JUMPDEST PUSH0 PUSH1 0x20 DUP3 ADD SWAP1 POP DUP2 DUP2 SUB PUSH0 DUP4 ADD MSTORE PUSH2 0x716 DUP2 DUP5 PUSH2 0x6A3 JUMP JUMPDEST SWAP1 POP SWAP3 SWAP2 POP POP JUMP JUMPDEST PUSH0 DUP3 DUP3 MSTORE PUSH1 0x20 DUP3 ADD SWAP1 POP SWAP3 SWAP2 POP POP JUMP JUMPDEST PUSH0 PUSH2 0x738 DUP3 PUSH2 0x633 JUMP JUMPDEST PUSH2 0x742 DUP2 DUP6 PUSH2 0x71E JUMP JUMPDEST SWAP4 POP PUSH2 0x752 DUP2 DUP6 PUSH1 0x20 DUP7 ADD PUSH2 0x64D JUMP JUMPDEST PUSH2 0x75B DUP2 PUSH2 0x65B JUMP JUMPDEST DUP5 ADD SWAP2 POP POP SWAP3 SWAP2 POP POP JUMP JUMPDEST PUSH0 PUSH1 0x60 DUP3 ADD SWAP1 POP DUP2 DUP2 SUB PUSH0 DUP4 ADD MSTORE PUSH2 0x77E DUP2 DUP7 PUSH2 0x72E JUMP JUMPDEST SWAP1 POP DUP2 DUP2 SUB PUSH1 0x20 DUP4 ADD MSTORE PUSH2 0x792 DUP2 DUP6 PUSH2 0x72E JUMP JUMPDEST SWAP1 POP DUP2 DUP2 SUB PUSH1 0x40 DUP4 ADD MSTORE PUSH2 0x7A6 DUP2 DUP5 PUSH2 0x72E JUMP JUMPDEST SWAP1 POP SWAP5 SWAP4 POP POP POP POP JUMP JUMPDEST PUSH0 PUSH0 REVERT JUMPDEST PUSH0 PUSH0 REVERT JUMPDEST PUSH32 0x4E487B7100000000000000000000000000000000000000000000000000000000 PUSH0 MSTORE PUSH1 0x41 PUSH1 0x4 MSTORE PUSH1 0x24 PUSH0 REVERT JUMPDEST PUSH2 0x7EE DUP3 PUSH2 0x65B JUMP JUMPDEST DUP2 ADD DUP2 DUP2 LT PUSH8 0xFFFFFFFFFFFFFFFF DUP3 GT OR ISZERO PUSH2 0x80D JUMPI PUSH2 0x80C PUSH2 0x7B8 JUMP JUMPDEST JUMPDEST DUP1 PUSH1 0x40 MSTORE POP POP POP JUMP JUMPDEST PUSH0 PUSH2 0x81F PUSH2 0x5C4 JUMP JUMPDEST SWAP1 POP PUSH2 0x82B DUP3 DUP3 PUSH2 0x7E5 JUMP JUMPDEST SWAP2 SWAP1 POP JUMP JUMPDEST PUSH0 PUSH8 0xFFFFFFFFFFFFFFFF DUP3 GT ISZERO PUSH2 0x84A JUMPI PUSH2 0x849 PUSH2 0x7B8 JUMP JUMPDEST JUMPDEST PUSH2 0x853 DUP3 PUSH2 0x65B JUMP JUMPDEST SWAP1 POP PUSH1 0x20 DUP2 ADD SWAP1 POP SWAP2 SWAP1 POP JUMP JUMPDEST DUP3 DUP2 DUP4 CALLDATACOPY PUSH0 DUP4 DUP4 ADD MSTORE POP POP POP JUMP JUMPDEST PUSH0 PUSH2 0x880 PUSH2 0x87B DUP5 PUSH2 0x830 JUMP JUMPDEST PUSH2 0x816 JUMP JUMPDEST SWAP1 POP DUP3 DUP2 MSTORE PUSH1 0x20 DUP2 ADD DUP5 DUP5 DUP5 ADD GT ISZERO PUSH2 0x89C JUMPI PUSH2 0x89B PUSH2 0x7B4 JUMP JUMPDEST JUMPDEST PUSH2 0x8A7 DUP5 DUP3 DUP6 PUSH2 0x860 JUMP JUMPDEST POP SWAP4 SWAP3 POP POP POP JUMP JUMPDEST PUSH0 DUP3 PUSH1 0x1F DUP4 ADD SLT PUSH2 0x8C3 JUMPI PUSH2 0x8C2 PUSH2 0x7B0 JUMP JUMPDEST JUMPDEST DUP2 CALLDATALOAD PUSH2 0x8D3 DUP5 DUP3 PUSH1 0x20 DUP7 ADD PUSH2 0x86E JUMP JUMPDEST SWAP2 POP POP SWAP3 SWAP2 POP POP JUMP JUMPDEST PUSH0 PUSH0 PUSH0 PUSH0 PUSH1 0x80 DUP6 DUP8 SUB SLT ISZERO PUSH2 0x8F4 JUMPI PUSH2 0x8F3 PUSH2 0x5CD JUMP JUMPDEST JUMPDEST PUSH0 PUSH2 0x901 DUP8 DUP3 DUP9 ADD PUSH2 0x5F4 JUMP JUMPDEST SWAP5 POP POP PUSH1 0x20 DUP6 ADD CALLDATALOAD PUSH8 0xFFFFFFFFFFFFFFFF DUP2 GT ISZERO PUSH2 0x922 JUMPI PUSH2 0x921 PUSH2 0x5D1 JUMP JUMPDEST JUMPDEST PUSH2 0x92E DUP8 DUP3 DUP9 ADD PUSH2 0x8AF JUMP JUMPDEST SWAP4 POP POP PUSH1 0x40 DUP6 ADD CALLDATALOAD PUSH8 0xFFFFFFFFFFFFFFFF DUP2 GT ISZERO PUSH2 0x94F JUMPI PUSH2 0x94E PUSH2 0x5D1 JUMP JUMPDEST JUMPDEST PUSH2 0x95B DUP8 DUP3 DUP9 ADD PUSH2 0x8AF JUMP JUMPDEST SWAP3 POP POP PUSH1 0x60 DUP6 ADD CALLDATALOAD PUSH8 0xFFFFFFFFFFFFFFFF DUP2 GT ISZERO PUSH2 0x97C JUMPI PUSH2 0x97B PUSH2 0x5D1 JUMP JUMPDEST JUMPDEST PUSH2 0x988 DUP8 DUP3 DUP9 ADD PUSH2 0x8AF JUMP JUMPDEST SWAP2 POP POP SWAP3 SWAP6 SWAP2 SWAP5 POP SWAP3 POP JUMP JUMPDEST PUSH0 PUSH20 0xFFFFFFFFFFFFFFFFFFFFFFFFFFFFFFFFFFFFFFFF DUP3 AND SWAP1 POP SWAP2 SWAP1 POP JUMP JUMPDEST PUSH0 PUSH2 0x9BD DUP3 PUSH2 0x994 JUMP JUMPDEST SWAP1 POP SWAP2 SWAP1 POP JUMP JUMPDEST PUSH2 0x9CD DUP2 PUSH2 0x9B3 JUMP JUMPDEST DUP3 MSTORE POP POP JUMP JUMPDEST PUSH0 PUSH1 0x20 DUP3 ADD SWAP1 POP PUSH2 0x9E6 PUSH0 DUP4 ADD DUP5 PUSH2 0x9C4 JUMP JUMPDEST SWAP3 SWAP2 POP POP JUMP JUMPDEST PUSH32 0x4E487B7100000000000000000000000000000000000000000000000000000000 PUSH0 MSTORE PUSH1 0x22 PUSH1 0x4 MSTORE PUSH1 0x24 PUSH0 REVERT JUMPDEST PUSH0 PUSH1 0x2 DUP3 DIV SWAP1 POP PUSH1 0x1 DUP3 AND DUP1 PUSH2 0xA30 JUMPI PUSH1 0x7F DUP3 AND SWAP2 POP JUMPDEST PUSH1 0x20 DUP3 LT DUP2 SUB PUSH2 0xA43 JUMPI PUSH2 0xA42 PUSH2 0x9EC JUMP JUMPDEST JUMPDEST POP SWAP2 SWAP1 POP JUMP JUMPDEST PUSH32 0x4F6E6C7920756E69766572736974792063616E20697373756500000000000000 PUSH0 DUP3 ADD MSTORE POP JUMP JUMPDEST PUSH0 PUSH2 0xA7D PUSH1 0x19 DUP4 PUSH2 0x71E JUMP JUMPDEST SWAP2 POP PUSH2 0xA88 DUP3 PUSH2 0xA49 JUMP JUMPDEST PUSH1 0x20 DUP3 ADD SWAP1 POP SWAP2 SWAP1 POP JUMP JUMPDEST PUSH0 PUSH1 0x20 DUP3 ADD SWAP1 POP DUP2 DUP2 SUB PUSH0 DUP4 ADD MSTORE PUSH2 0xAAA DUP2 PUSH2 0xA71 JUMP JUMPDEST SWAP1 POP SWAP2 SWAP1 POP JUMP JUMPDEST PUSH0 DUP2 SWAP1 POP DUP2 PUSH0 MSTORE PUSH1 0x20 PUSH0 KECCAK256 SWAP1 POP SWAP2 SWAP1 POP JUMP JUMPDEST PUSH0 PUSH1 0x20 PUSH1 0x1F DUP4 ADD DIV SWAP1 POP SWAP2 SWAP1 POP JUMP JUMPDEST PUSH0 DUP3 DUP3 SHL SWAP1 POP SWAP3 SWAP2 POP POP JUMP JUMPDEST PUSH0 PUSH1 0x8 DUP4 MUL PUSH2 0xB0D PUSH32 0xFFFFFFFFFFFFFFFFFFFFFFFFFFFFFFFFFFFFFFFFFFFFFFFFFFFFFFFFFFFFFFFF DUP3 PUSH2 0xAD2 JUMP JUMPDEST PUSH2 0xB17 DUP7 DUP4 PUSH2 0xAD2 JUMP JUMPDEST SWAP6 POP DUP1 NOT DUP5 AND SWAP4 POP DUP1 DUP7 AND DUP5 OR SWAP3 POP POP POP SWAP4 SWAP3 POP POP POP JUMP JUMPDEST PUSH0 DUP2 SWAP1 POP SWAP2 SWAP1 POP JUMP JUMPDEST PUSH0 PUSH2 0xB52 PUSH2 0xB4D PUSH2 0xB48 DUP5 PUSH2 0x5D5 JUMP JUMPDEST PUSH2 0xB2F JUMP JUMPDEST PUSH2 0x5D5 JUMP JUMPDEST SWAP1 POP SWAP2 SWAP1 POP JUMP JUMPDEST PUSH0 DUP2 SWAP1 POP SWAP2 SWAP1 POP JUMP JUMPDEST PUSH2 0xB6B DUP4 PUSH2 0xB38 JUMP JUMPDEST PUSH2 0xB7F PUSH2 0xB77 DUP3 PUSH2 0xB59 JUMP JUMPDEST DUP5 DUP5 SLOAD PUSH2 0xADE JUMP JUMPDEST DUP3 SSTORE POP POP POP POP JUMP JUMPDEST PUSH0 PUSH0 SWAP1 POP SWAP1 JUMP JUMPDEST PUSH2 0xB96 PUSH2 0xB87 JUMP JUMPDEST PUSH2 0xBA1 DUP2 DUP5 DUP5 PUSH2 0xB62 JUMP JUMPDEST POP POP POP JUMP JUMPDEST JUMPDEST DUP2 DUP2 LT ISZERO PUSH2 0xBC4 JUMPI PUSH2 0xBB9 PUSH0 DUP3 PUSH2 0xB8E JUMP JUMPDEST PUSH1 0x1 DUP2 ADD SWAP1 POP PUSH2 0xBA7 JUMP JUMPDEST POP POP JUMP JUMPDEST PUSH1 0x1F DUP3 GT ISZERO PUSH2 0xC09 JUMPI PUSH2 0xBDA DUP2 PUSH2 0xAB1 JUMP JUMPDEST PUSH2 0xBE3 DUP5 PUSH2 0xAC3 JUMP JUMPDEST DUP2 ADD PUSH1 0x20 DUP6 LT ISZERO PUSH2 0xBF2 JUMPI DUP2 SWAP1 POP JUMPDEST PUSH2 0xC06 PUSH2 0xBFE DUP6 PUSH2 0xAC3 JUMP JUMPDEST DUP4 ADD DUP3 PUSH2 0xBA6 JUMP JUMPDEST POP POP JUMPDEST POP POP POP JUMP JUMPDEST PUSH0 DUP3 DUP3 SHR SWAP1 POP SWAP3 SWAP2 POP POP JUMP JUMPDEST PUSH0 PUSH2 0xC29 PUSH0 NOT DUP5 PUSH1 0x8 MUL PUSH2 0xC0E JUMP JUMPDEST NOT DUP1 DUP4 AND SWAP2 POP POP SWAP3 SWAP2 POP POP JUMP JUMPDEST PUSH0 PUSH2 0xC41 DUP4 DUP4 PUSH2 0xC1A JUMP JUMPDEST SWAP2 POP DUP3 PUSH1 0x2 MUL DUP3 OR SWAP1 POP SWAP3 SWAP2 POP POP JUMP JUMPDEST PUSH2 0xC5A DUP3 PUSH2 0x633 JUMP JUMPDEST PUSH8 0xFFFFFFFFFFFFFFFF DUP2 GT ISZERO PUSH2 0xC73 JUMPI PUSH2 0xC72 PUSH2 0x7B8 JUMP JUMPDEST JUMPDEST PUSH2 0xC7D DUP3 SLOAD PUSH2 0xA19 JUMP JUMPDEST PUSH2 0xC88 DUP3 DUP3 DUP6 PUSH2 0xBC8 JUMP JUMPDEST PUSH0 PUSH1 0x20 SWAP1 POP PUSH1 0x1F DUP4 GT PUSH1 0x1 DUP2 EQ PUSH2 0xCB9 JUMPI PUSH0 DUP5 ISZERO PUSH2 0xCA7 JUMPI DUP3 DUP8 ADD MLOAD SWAP1 POP JUMPDEST PUSH2 0xCB1 DUP6 DUP3 PUSH2 0xC36 JUMP JUMPDEST DUP7 SSTORE POP PUSH2 0xD18 JUMP JUMPDEST PUSH1 0x1F NOT DUP5 AND PUSH2 0xCC7 DUP7 PUSH2 0xAB1 JUMP JUMPDEST PUSH0 JUMPDEST DUP3 DUP2 LT ISZERO PUSH2 0xCEE JUMPI DUP5 DUP10 ADD MLOAD DUP3 SSTORE PUSH1 0x1 DUP3 ADD SWAP2 POP PUSH1 0x20 DUP6 ADD SWAP5 POP PUSH1 0x20 DUP2 ADD SWAP1 POP PUSH2 0xCC9 JUMP JUMPDEST DUP7 DUP4 LT ISZERO PUSH2 0xD0B JUMPI DUP5 DUP10 ADD MLOAD PUSH2 0xD07 PUSH1 0x1F DUP10 AND DUP3 PUSH2 0xC1A JUMP JUMPDEST DUP4 SSTORE POP JUMPDEST PUSH1 0x1 PUSH1 0x2 DUP9 MUL ADD DUP9 SSTORE POP POP POP JUMPDEST POP POP POP POP POP POP JUMP INVALID LOG2 PUSH5 0x6970667358 0x22 SLT KECCAK256 DUP1 EXTCODESIZE SWAP2 DUP2 BALANCE 0xB4 0x2E SWAPN 0xA1 DUP13 0xCB 0xB5 DUP12 LOG0 JUMPF 0x230E PUSH0 PUSH10 0xDB3E849710B1F2BA1C66 MOD 0xDB 0xF6 PUSH5 0x736F6C6343 STOP ADDMOD 0x1E STOP CALLER "
				},
				"gasEstimates": {
					"creation": {
						"codeDepositCost": "682800",
						"executionCost": "24977",
						"totalCost": "707777"
					},
					"external": {
						"certificates(uint256)": "infinite",
						"getCertificate(uint256)": "infinite",
						"issueCertificate(uint256,string,string,string)": "infinite",
						"university()": "2551"
					}
				},
				"methodIdentifiers": {
					"certificates(uint256)": "663b3e22",
					"getCertificate(uint256)": "51640fee",
					"issueCertificate(uint256,string,string,string)": "7cd44c23",
					"university()": "ae12894e"
				}
			},
			"storageLayout": {
				"storage": [
					{
						"astId": 3,
						"contract": "contracts/Q9_CertificateIssuer.sol:CertificateIssuer",
						"label": "university",
						"offset": 0,
						"slot": "0",
						"type": "t_address"
					},
					{
						"astId": 15,
						"contract": "contracts/Q9_CertificateIssuer.sol:CertificateIssuer",
						"label": "certificates",
						"offset": 0,
						"slot": "1",
						"type": "t_mapping(t_uint256,t_struct(Certificate)10_storage)"
					}
				],
				"types": {
					"t_address": {
						"encoding": "inplace",
						"label": "address",
						"numberOfBytes": "20"
					},
					"t_mapping(t_uint256,t_struct(Certificate)10_storage)": {
						"encoding": "mapping",
						"key": "t_uint256",
						"label": "mapping(uint256 => struct CertificateIssuer.Certificate)",
						"numberOfBytes": "32",
						"value": "t_struct(Certificate)10_storage"
					},
					"t_string_storage": {
						"encoding": "bytes",
						"label": "string",
						"numberOfBytes": "32"
					},
					"t_struct(Certificate)10_storage": {
						"encoding": "inplace",
						"label": "struct CertificateIssuer.Certificate",
						"members": [
							{
								"astId": 5,
								"contract": "contracts/Q9_CertificateIssuer.sol:CertificateIssuer",
								"label": "name",
								"offset": 0,
								"slot": "0",
								"type": "t_string_storage"
							},
							{
								"astId": 7,
								"contract": "contracts/Q9_CertificateIssuer.sol:CertificateIssuer",
								"label": "courseId",
								"offset": 0,
								"slot": "1",
								"type": "t_string_storage"
							},
							{
								"astId": 9,
								"contract": "contracts/Q9_CertificateIssuer.sol:CertificateIssuer",
								"label": "issueDate",
								"offset": 0,
								"slot": "2",
								"type": "t_string_storage"
							}
						],
						"numberOfBytes": "96"
					},
					"t_uint256": {
						"encoding": "inplace",
						"label": "uint256",
						"numberOfBytes": "32"
					}
				}
			},
			"userdoc": {
				"kind": "user",
				"methods": {},
				"version": 1
			}
		}
	}
}