{
	"contracts/Q7_VotingSystem.sol": {
		"VotingSystem": {
			"abi": [
				{
					"inputs": [],
					"stateMutability": "nonpayable",
					"type": "constructor"
				},
				{
					"inputs": [],
					"name": "Admin",
					"outputs": [
						{
							"internalType": "address",
							"name": "",
							"type": "address"
						}
					],
					"stateMutability": "view",
					"type": "function"
				},
				{
					"inputs": [],
					"name": "endVoting",
					"outputs": [],
					"stateMutability": "nonpayable",
					"type": "function"
				},
				{
					"inputs": [],
					"name": "getResult",
					"outputs": [
						{
							"internalType": "uint256",
							"name": "",
							"type": "uint256"
						},
						{
							"internalType": "uint256",
							"name": "",
							"type": "uint256"
						}
					],
					"stateMutability": "view",
					"type": "function"
				},
				{
					"inputs": [],
					"name": "noVotes",
					"outputs": [
						{
							"internalType": "uint256",
							"name": "",
							"type": "uint256"
						}
					],
					"stateMutability": "view",
					"type": "function"
				},
				{
					"inputs": [],
					"name": "startvoting",
					"outputs": [],
					"stateMutability": "nonpayable",
					"type": "function"
				},
				{
					"inputs": [
						{
							"internalType": "address",
							"name": "",
							"type": "address"
						}
					],
					"name": "votedAddress",
					"outputs": [
						{
							"internalType": "bool",
							"name": "",
							"type": "bool"
						}
					],
					"stateMutability": "view",
					"type": "function"
				},
				{
					"inputs": [
						{
							"internalType": "bool",
							"name": "vote",
							"type": "bool"
						}
					],
					"name": "voting",
					"outputs": [],
					"stateMutability": "nonpayable",
					"type": "function"
				},
				{
					"inputs": [],
					"name": "votingActive",
					"outputs": [
						{
							"internalType": "bool",
							"name": "",
							"type": "bool"
						}
					],
					"stateMutability": "view",
					"type": "function"
				},
				{
					"inputs": [],
					"name": "yesVotes",
					"outputs": [
						{
							"internalType": "uint256",
							"name": "",
							"type": "uint256"
						}
					],
					"stateMutability": "view",
					"type": "function"
				}
			],
			"devdoc": {
				"kind": "dev",
				"methods": {},
				"version": 1
			},
			"evm": {
				"assembly": "    /* \"contracts/Q7_VotingSystem.sol\":57:1098  contract VotingSystem {... */\n  mstore(0x40, 0x80)\n    /* \"contracts/Q7_VotingSystem.sol\":244:302  constructor() {... */\n  callvalue\n  dup1\n  iszero\n  tag_1\n  jumpi\n  revert(0x00, 0x00)\ntag_1:\n  pop\n    /* \"contracts/Q7_VotingSystem.sol\":276:286  msg.sender */\n  caller\n    /* \"contracts/Q7_VotingSystem.sol\":268:273  Admin */\n  0x00\n  0x00\n    /* \"contracts/Q7_VotingSystem.sol\":268:286  Admin = msg.sender */\n  0x0100\n  exp\n  dup2\n  sload\n  dup2\n  0xffffffffffffffffffffffffffffffffffffffff\n  mul\n  not\n  and\n  swap1\n  dup4\n  0xffffffffffffffffffffffffffffffffffffffff\n  and\n  mul\n  or\n  swap1\n  sstore\n  pop\n    /* \"contracts/Q7_VotingSystem.sol\":57:1098  contract VotingSystem {... */\n  dataSize(sub_0)\n  dup1\n  dataOffset(sub_0)\n  0x00\n  codecopy\n  0x00\n  return\nstop\n\nsub_0: assembly {\n        /* \"contracts/Q7_VotingSystem.sol\":57:1098  contract VotingSystem {... */\n      mstore(0x40, 0x80)\n      callvalue\n      dup1\n      iszero\n      tag_1\n      jumpi\n      revert(0x00, 0x00)\n    tag_1:\n      pop\n      jumpi(tag_2, lt(calldatasize, 0x04))\n      shr(0xe0, calldataload(0x00))\n      dup1\n      0xc3403ddf\n      gt\n      tag_12\n      jumpi\n      dup1\n      0xc3403ddf\n      eq\n      tag_7\n      jumpi\n      dup1\n      0xde292789\n      eq\n      tag_8\n      jumpi\n      dup1\n      0xf6df3e5d\n      eq\n      tag_9\n      jumpi\n      dup1\n      0xfb286c65\n      eq\n      tag_10\n      jumpi\n      dup1\n      0xff1b636d\n      eq\n      tag_11\n      jumpi\n      jump(tag_2)\n    tag_12:\n      dup1\n      0x408e2727\n      eq\n      tag_3\n      jumpi\n      dup1\n      0x72851369\n      eq\n      tag_4\n      jumpi\n      dup1\n      0x9432a10c\n      eq\n      tag_5\n      jumpi\n      dup1\n      0xb5b47f42\n      eq\n      tag_6\n      jumpi\n    tag_2:\n      revert(0x00, 0x00)\n        /* \"contracts/Q7_VotingSystem.sol\":112:136  bool public votingActive */\n    tag_3:\n      tag_13\n      tag_14\n      jump\t// in\n    tag_13:\n      mload(0x40)\n      tag_15\n      swap2\n      swap1\n      tag_16\n      jump\t// in\n    tag_15:\n      mload(0x40)\n      dup1\n      swap2\n      sub\n      swap1\n      return\n        /* \"contracts/Q7_VotingSystem.sol\":308:486  function startvoting() public{... */\n    tag_4:\n      tag_17\n      tag_18\n      jump\t// in\n    tag_17:\n      stop\n        /* \"contracts/Q7_VotingSystem.sol\":142:186  mapping(address => bool) public votedAddress */\n    tag_5:\n      tag_19\n      0x04\n      dup1\n      calldatasize\n      sub\n      dup2\n      add\n      swap1\n      tag_20\n      swap2\n      swap1\n      tag_21\n      jump\t// in\n    tag_20:\n      tag_22\n      jump\t// in\n    tag_19:\n      mload(0x40)\n      tag_23\n      swap2\n      swap1\n      tag_16\n      jump\t// in\n    tag_23:\n      mload(0x40)\n      dup1\n      swap2\n      sub\n      swap1\n      return\n        /* \"contracts/Q7_VotingSystem.sol\":218:237  uint public noVotes */\n    tag_6:\n      tag_24\n      tag_25\n      jump\t// in\n    tag_24:\n      mload(0x40)\n      tag_26\n      swap2\n      swap1\n      tag_27\n      jump\t// in\n    tag_26:\n      mload(0x40)\n      dup1\n      swap2\n      sub\n      swap1\n      return\n        /* \"contracts/Q7_VotingSystem.sol\":492:626  function endVoting() public{... */\n    tag_7:\n      tag_28\n      tag_29\n      jump\t// in\n    tag_28:\n      stop\n        /* \"contracts/Q7_VotingSystem.sol\":940:1095  function getResult () public view returns (uint, uint){... */\n    tag_8:\n      tag_30\n      tag_31\n      jump\t// in\n    tag_30:\n      mload(0x40)\n      tag_32\n      swap3\n      swap2\n      swap1\n      tag_33\n      jump\t// in\n    tag_32:\n      mload(0x40)\n      dup1\n      swap2\n      sub\n      swap1\n      return\n        /* \"contracts/Q7_VotingSystem.sol\":632:933  function voting(bool vote) public{... */\n    tag_9:\n      tag_34\n      0x04\n      dup1\n      calldatasize\n      sub\n      dup2\n      add\n      swap1\n      tag_35\n      swap2\n      swap1\n      tag_36\n      jump\t// in\n    tag_35:\n      tag_37\n      jump\t// in\n    tag_34:\n      stop\n        /* \"contracts/Q7_VotingSystem.sol\":192:212  uint public yesVotes */\n    tag_10:\n      tag_38\n      tag_39\n      jump\t// in\n    tag_38:\n      mload(0x40)\n      tag_40\n      swap2\n      swap1\n      tag_27\n      jump\t// in\n    tag_40:\n      mload(0x40)\n      dup1\n      swap2\n      sub\n      swap1\n      return\n        /* \"contracts/Q7_VotingSystem.sol\":86:106  address public Admin */\n    tag_11:\n      tag_41\n      tag_42\n      jump\t// in\n    tag_41:\n      mload(0x40)\n      tag_43\n      swap2\n      swap1\n      tag_44\n      jump\t// in\n    tag_43:\n      mload(0x40)\n      dup1\n      swap2\n      sub\n      swap1\n      return\n        /* \"contracts/Q7_VotingSystem.sol\":112:136  bool public votingActive */\n    tag_14:\n      0x00\n      0x14\n      swap1\n      sload\n      swap1\n      0x0100\n      exp\n      swap1\n      div\n      0xff\n      and\n      dup2\n      jump\t// out\n        /* \"contracts/Q7_VotingSystem.sol\":308:486  function startvoting() public{... */\n    tag_18:\n        /* \"contracts/Q7_VotingSystem.sol\":369:374  Admin */\n      0x00\n      0x00\n      swap1\n      sload\n      swap1\n      0x0100\n      exp\n      swap1\n      div\n      0xffffffffffffffffffffffffffffffffffffffff\n      and\n        /* \"contracts/Q7_VotingSystem.sol\":355:374  msg.sender == Admin */\n      0xffffffffffffffffffffffffffffffffffffffff\n      and\n        /* \"contracts/Q7_VotingSystem.sol\":355:365  msg.sender */\n      caller\n        /* \"contracts/Q7_VotingSystem.sol\":355:374  msg.sender == Admin */\n      0xffffffffffffffffffffffffffffffffffffffff\n      and\n      eq\n        /* \"contracts/Q7_VotingSystem.sol\":347:407  require(msg.sender == Admin, \"Only Admin can start voting.\") */\n      tag_46\n      jumpi\n      mload(0x40)\n      0x08c379a000000000000000000000000000000000000000000000000000000000\n      dup2\n      mstore\n      0x04\n      add\n      tag_47\n      swap1\n      tag_48\n      jump\t// in\n    tag_47:\n      mload(0x40)\n      dup1\n      swap2\n      sub\n      swap1\n      revert\n    tag_46:\n        /* \"contracts/Q7_VotingSystem.sol\":432:436  true */\n      0x01\n        /* \"contracts/Q7_VotingSystem.sol\":417:429  votingActive */\n      0x00\n      0x14\n        /* \"contracts/Q7_VotingSystem.sol\":417:436  votingActive = true */\n      0x0100\n      exp\n      dup2\n      sload\n      dup2\n      0xff\n      mul\n      not\n      and\n      swap1\n      dup4\n      iszero\n      iszero\n      mul\n      or\n      swap1\n      sstore\n      pop\n        /* \"contracts/Q7_VotingSystem.sol\":457:458  0 */\n      0x00\n        /* \"contracts/Q7_VotingSystem.sol\":446:454  yesVotes */\n      0x02\n        /* \"contracts/Q7_VotingSystem.sol\":446:458  yesVotes = 0 */\n      dup2\n      swap1\n      sstore\n      pop\n        /* \"contracts/Q7_VotingSystem.sol\":478:479  0 */\n      0x00\n        /* \"contracts/Q7_VotingSystem.sol\":468:475  noVotes */\n      0x03\n        /* \"contracts/Q7_VotingSystem.sol\":468:479  noVotes = 0 */\n      dup2\n      swap1\n      sstore\n      pop\n        /* \"contracts/Q7_VotingSystem.sol\":308:486  function startvoting() public{... */\n      jump\t// out\n        /* \"contracts/Q7_VotingSystem.sol\":142:186  mapping(address => bool) public votedAddress */\n    tag_22:\n      mstore(0x20, 0x01)\n      dup1\n      0x00\n      mstore\n      keccak256(0x00, 0x40)\n      0x00\n      swap2\n      pop\n      sload\n      swap1\n      0x0100\n      exp\n      swap1\n      div\n      0xff\n      and\n      dup2\n      jump\t// out\n        /* \"contracts/Q7_VotingSystem.sol\":218:237  uint public noVotes */\n    tag_25:\n      sload(0x03)\n      dup2\n      jump\t// out\n        /* \"contracts/Q7_VotingSystem.sol\":492:626  function endVoting() public{... */\n    tag_29:\n        /* \"contracts/Q7_VotingSystem.sol\":551:556  Admin */\n      0x00\n      0x00\n      swap1\n      sload\n      swap1\n      0x0100\n      exp\n      swap1\n      div\n      0xffffffffffffffffffffffffffffffffffffffff\n      and\n        /* \"contracts/Q7_VotingSystem.sol\":537:556  msg.sender == Admin */\n      0xffffffffffffffffffffffffffffffffffffffff\n      and\n        /* \"contracts/Q7_VotingSystem.sol\":537:547  msg.sender */\n      caller\n        /* \"contracts/Q7_VotingSystem.sol\":537:556  msg.sender == Admin */\n      0xffffffffffffffffffffffffffffffffffffffff\n      and\n      eq\n        /* \"contracts/Q7_VotingSystem.sol\":529:589  require(msg.sender == Admin, \"Only Admin can start voting.\") */\n      tag_50\n      jumpi\n      mload(0x40)\n      0x08c379a000000000000000000000000000000000000000000000000000000000\n      dup2\n      mstore\n      0x04\n      add\n      tag_51\n      swap1\n      tag_48\n      jump\t// in\n    tag_51:\n      mload(0x40)\n      dup1\n      swap2\n      sub\n      swap1\n      revert\n    tag_50:\n        /* \"contracts/Q7_VotingSystem.sol\":614:619  false */\n      0x00\n        /* \"contracts/Q7_VotingSystem.sol\":599:611  votingActive */\n      0x00\n      0x14\n        /* \"contracts/Q7_VotingSystem.sol\":599:619  votingActive = false */\n      0x0100\n      exp\n      dup2\n      sload\n      dup2\n      0xff\n      mul\n      not\n      and\n      swap1\n      dup4\n      iszero\n      iszero\n      mul\n      or\n      swap1\n      sstore\n      pop\n        /* \"contracts/Q7_VotingSystem.sol\":492:626  function endVoting() public{... */\n      jump\t// out\n        /* \"contracts/Q7_VotingSystem.sol\":940:1095  function getResult () public view returns (uint, uint){... */\n    tag_31:\n        /* \"contracts/Q7_VotingSystem.sol\":983:987  uint */\n      0x00\n        /* \"contracts/Q7_VotingSystem.sol\":989:993  uint */\n      0x00\n        /* \"contracts/Q7_VotingSystem.sol\":1013:1025  votingActive */\n      0x00\n      0x14\n      swap1\n      sload\n      swap1\n      0x0100\n      exp\n      swap1\n      div\n      0xff\n      and\n        /* \"contracts/Q7_VotingSystem.sol\":1012:1025  !votingActive */\n      iszero\n        /* \"contracts/Q7_VotingSystem.sol\":1004:1053  require(!votingActive, \"Voting is still active.\") */\n      tag_53\n      jumpi\n      mload(0x40)\n      0x08c379a000000000000000000000000000000000000000000000000000000000\n      dup2\n      mstore\n      0x04\n      add\n      tag_54\n      swap1\n      tag_55\n      jump\t// in\n    tag_54:\n      mload(0x40)\n      dup1\n      swap2\n      sub\n      swap1\n      revert\n    tag_53:\n        /* \"contracts/Q7_VotingSystem.sol\":1070:1078  yesVotes */\n      sload(0x02)\n        /* \"contracts/Q7_VotingSystem.sol\":1080:1087  noVotes */\n      sload(0x03)\n        /* \"contracts/Q7_VotingSystem.sol\":1063:1088  return(yesVotes, noVotes) */\n      swap2\n      pop\n      swap2\n      pop\n        /* \"contracts/Q7_VotingSystem.sol\":940:1095  function getResult () public view returns (uint, uint){... */\n      swap1\n      swap2\n      jump\t// out\n        /* \"contracts/Q7_VotingSystem.sol\":632:933  function voting(bool vote) public{... */\n    tag_37:\n        /* \"contracts/Q7_VotingSystem.sol\":683:695  votingActive */\n      0x00\n      0x14\n      swap1\n      sload\n      swap1\n      0x0100\n      exp\n      swap1\n      div\n      0xff\n      and\n        /* \"contracts/Q7_VotingSystem.sol\":675:721  require(votingActive, \"Voting is not active.\") */\n      tag_57\n      jumpi\n      mload(0x40)\n      0x08c379a000000000000000000000000000000000000000000000000000000000\n      dup2\n      mstore\n      0x04\n      add\n      tag_58\n      swap1\n      tag_59\n      jump\t// in\n    tag_58:\n      mload(0x40)\n      dup1\n      swap2\n      sub\n      swap1\n      revert\n    tag_57:\n        /* \"contracts/Q7_VotingSystem.sol\":740:752  votedAddress */\n      0x01\n        /* \"contracts/Q7_VotingSystem.sol\":740:764  votedAddress[msg.sender] */\n      0x00\n        /* \"contracts/Q7_VotingSystem.sol\":753:763  msg.sender */\n      caller\n        /* \"contracts/Q7_VotingSystem.sol\":740:764  votedAddress[msg.sender] */\n      0xffffffffffffffffffffffffffffffffffffffff\n      and\n      0xffffffffffffffffffffffffffffffffffffffff\n      and\n      dup2\n      mstore\n      0x20\n      add\n      swap1\n      dup2\n      mstore\n      0x20\n      add\n      0x00\n      keccak256\n      0x00\n      swap1\n      sload\n      swap1\n      0x0100\n      exp\n      swap1\n      div\n      0xff\n      and\n        /* \"contracts/Q7_VotingSystem.sol\":739:764  !votedAddress[msg.sender] */\n      iszero\n        /* \"contracts/Q7_VotingSystem.sol\":731:783  require(!votedAddress[msg.sender], \"Already voted.\") */\n      tag_60\n      jumpi\n      mload(0x40)\n      0x08c379a000000000000000000000000000000000000000000000000000000000\n      dup2\n      mstore\n      0x04\n      add\n      tag_61\n      swap1\n      tag_62\n      jump\t// in\n    tag_61:\n      mload(0x40)\n      dup1\n      swap2\n      sub\n      swap1\n      revert\n    tag_60:\n        /* \"contracts/Q7_VotingSystem.sol\":796:800  vote */\n      dup1\n        /* \"contracts/Q7_VotingSystem.sol\":793:886  if(vote){ ... */\n      iszero\n      tag_63\n      jumpi\n        /* \"contracts/Q7_VotingSystem.sol\":816:824  yesVotes */\n      0x02\n      0x00\n        /* \"contracts/Q7_VotingSystem.sol\":816:826  yesVotes++ */\n      dup2\n      sload\n      dup1\n      swap3\n      swap2\n      swap1\n      tag_64\n      swap1\n      tag_65\n      jump\t// in\n    tag_64:\n      swap2\n      swap1\n      pop\n      sstore\n      pop\n        /* \"contracts/Q7_VotingSystem.sol\":793:886  if(vote){ ... */\n      jump(tag_66)\n    tag_63:\n        /* \"contracts/Q7_VotingSystem.sol\":866:873  noVotes */\n      0x03\n      0x00\n        /* \"contracts/Q7_VotingSystem.sol\":866:875  noVotes++ */\n      dup2\n      sload\n      dup1\n      swap3\n      swap2\n      swap1\n      tag_67\n      swap1\n      tag_65\n      jump\t// in\n    tag_67:\n      swap2\n      swap1\n      pop\n      sstore\n      pop\n        /* \"contracts/Q7_VotingSystem.sol\":793:886  if(vote){ ... */\n    tag_66:\n        /* \"contracts/Q7_VotingSystem.sol\":922:926  true */\n      0x01\n        /* \"contracts/Q7_VotingSystem.sol\":895:907  votedAddress */\n      dup1\n        /* \"contracts/Q7_VotingSystem.sol\":895:919  votedAddress[msg.sender] */\n      0x00\n        /* \"contracts/Q7_VotingSystem.sol\":908:918  msg.sender */\n      caller\n        /* \"contracts/Q7_VotingSystem.sol\":895:919  votedAddress[msg.sender] */\n      0xffffffffffffffffffffffffffffffffffffffff\n      and\n      0xffffffffffffffffffffffffffffffffffffffff\n      and\n      dup2\n      mstore\n      0x20\n      add\n      swap1\n      dup2\n      mstore\n      0x20\n      add\n      0x00\n      keccak256\n      0x00\n        /* \"contracts/Q7_VotingSystem.sol\":895:926  votedAddress[msg.sender] = true */\n      0x0100\n      exp\n      dup2\n      sload\n      dup2\n      0xff\n      mul\n      not\n      and\n      swap1\n      dup4\n      iszero\n      iszero\n      mul\n      or\n      swap1\n      sstore\n      pop\n        /* \"contracts/Q7_VotingSystem.sol\":632:933  function voting(bool vote) public{... */\n      pop\n      jump\t// out\n        /* \"contracts/Q7_VotingSystem.sol\":192:212  uint public yesVotes */\n    tag_39:\n      sload(0x02)\n      dup2\n      jump\t// out\n        /* \"contracts/Q7_VotingSystem.sol\":86:106  address public Admin */\n    tag_42:\n      0x00\n      0x00\n      swap1\n      sload\n      swap1\n      0x0100\n      exp\n      swap1\n      div\n      0xffffffffffffffffffffffffffffffffffffffff\n      and\n      dup2\n      jump\t// out\n        /* \"#utility.yul\":7:97   */\n    tag_68:\n        /* \"#utility.yul\":41:48   */\n      0x00\n        /* \"#utility.yul\":84:89   */\n      dup2\n        /* \"#utility.yul\":77:90   */\n      iszero\n        /* \"#utility.yul\":70:91   */\n      iszero\n        /* \"#utility.yul\":59:91   */\n      swap1\n      pop\n        /* \"#utility.yul\":7:97   */\n      swap2\n      swap1\n      pop\n      jump\t// out\n        /* \"#utility.yul\":103:212   */\n    tag_69:\n        /* \"#utility.yul\":184:205   */\n      tag_95\n        /* \"#utility.yul\":199:204   */\n      dup2\n        /* \"#utility.yul\":184:205   */\n      tag_68\n      jump\t// in\n    tag_95:\n        /* \"#utility.yul\":179:182   */\n      dup3\n        /* \"#utility.yul\":172:206   */\n      mstore\n        /* \"#utility.yul\":103:212   */\n      pop\n      pop\n      jump\t// out\n        /* \"#utility.yul\":218:428   */\n    tag_16:\n        /* \"#utility.yul\":305:309   */\n      0x00\n        /* \"#utility.yul\":343:345   */\n      0x20\n        /* \"#utility.yul\":332:341   */\n      dup3\n        /* \"#utility.yul\":328:346   */\n      add\n        /* \"#utility.yul\":320:346   */\n      swap1\n      pop\n        /* \"#utility.yul\":356:421   */\n      tag_97\n        /* \"#utility.yul\":418:419   */\n      0x00\n        /* \"#utility.yul\":407:416   */\n      dup4\n        /* \"#utility.yul\":403:420   */\n      add\n        /* \"#utility.yul\":394:400   */\n      dup5\n        /* \"#utility.yul\":356:421   */\n      tag_69\n      jump\t// in\n    tag_97:\n        /* \"#utility.yul\":218:428   */\n      swap3\n      swap2\n      pop\n      pop\n      jump\t// out\n        /* \"#utility.yul\":515:632   */\n    tag_71:\n        /* \"#utility.yul\":624:625   */\n      0x00\n        /* \"#utility.yul\":621:622   */\n      0x00\n        /* \"#utility.yul\":614:626   */\n      revert\n        /* \"#utility.yul\":761:887   */\n    tag_73:\n        /* \"#utility.yul\":798:805   */\n      0x00\n        /* \"#utility.yul\":838:880   */\n      0xffffffffffffffffffffffffffffffffffffffff\n        /* \"#utility.yul\":831:836   */\n      dup3\n        /* \"#utility.yul\":827:881   */\n      and\n        /* \"#utility.yul\":816:881   */\n      swap1\n      pop\n        /* \"#utility.yul\":761:887   */\n      swap2\n      swap1\n      pop\n      jump\t// out\n        /* \"#utility.yul\":893:989   */\n    tag_74:\n        /* \"#utility.yul\":930:937   */\n      0x00\n        /* \"#utility.yul\":959:983   */\n      tag_103\n        /* \"#utility.yul\":977:982   */\n      dup3\n        /* \"#utility.yul\":959:983   */\n      tag_73\n      jump\t// in\n    tag_103:\n        /* \"#utility.yul\":948:983   */\n      swap1\n      pop\n        /* \"#utility.yul\":893:989   */\n      swap2\n      swap1\n      pop\n      jump\t// out\n        /* \"#utility.yul\":995:1117   */\n    tag_75:\n        /* \"#utility.yul\":1068:1092   */\n      tag_105\n        /* \"#utility.yul\":1086:1091   */\n      dup2\n        /* \"#utility.yul\":1068:1092   */\n      tag_74\n      jump\t// in\n    tag_105:\n        /* \"#utility.yul\":1061:1066   */\n      dup2\n        /* \"#utility.yul\":1058:1093   */\n      eq\n        /* \"#utility.yul\":1048:1111   */\n      tag_106\n      jumpi\n        /* \"#utility.yul\":1107:1108   */\n      0x00\n        /* \"#utility.yul\":1104:1105   */\n      0x00\n        /* \"#utility.yul\":1097:1109   */\n      revert\n        /* \"#utility.yul\":1048:1111   */\n    tag_106:\n        /* \"#utility.yul\":995:1117   */\n      pop\n      jump\t// out\n        /* \"#utility.yul\":1123:1262   */\n    tag_76:\n        /* \"#utility.yul\":1169:1174   */\n      0x00\n        /* \"#utility.yul\":1207:1213   */\n      dup2\n        /* \"#utility.yul\":1194:1214   */\n      calldataload\n        /* \"#utility.yul\":1185:1214   */\n      swap1\n      pop\n        /* \"#utility.yul\":1223:1256   */\n      tag_108\n        /* \"#utility.yul\":1250:1255   */\n      dup2\n        /* \"#utility.yul\":1223:1256   */\n      tag_75\n      jump\t// in\n    tag_108:\n        /* \"#utility.yul\":1123:1262   */\n      swap3\n      swap2\n      pop\n      pop\n      jump\t// out\n        /* \"#utility.yul\":1268:1597   */\n    tag_21:\n        /* \"#utility.yul\":1327:1333   */\n      0x00\n        /* \"#utility.yul\":1376:1378   */\n      0x20\n        /* \"#utility.yul\":1364:1373   */\n      dup3\n        /* \"#utility.yul\":1355:1362   */\n      dup5\n        /* \"#utility.yul\":1351:1374   */\n      sub\n        /* \"#utility.yul\":1347:1379   */\n      slt\n        /* \"#utility.yul\":1344:1463   */\n      iszero\n      tag_110\n      jumpi\n        /* \"#utility.yul\":1382:1461   */\n      tag_111\n      tag_71\n      jump\t// in\n    tag_111:\n        /* \"#utility.yul\":1344:1463   */\n    tag_110:\n        /* \"#utility.yul\":1502:1503   */\n      0x00\n        /* \"#utility.yul\":1527:1580   */\n      tag_112\n        /* \"#utility.yul\":1572:1579   */\n      dup5\n        /* \"#utility.yul\":1563:1569   */\n      dup3\n        /* \"#utility.yul\":1552:1561   */\n      dup6\n        /* \"#utility.yul\":1548:1570   */\n      add\n        /* \"#utility.yul\":1527:1580   */\n      tag_76\n      jump\t// in\n    tag_112:\n        /* \"#utility.yul\":1517:1580   */\n      swap2\n      pop\n        /* \"#utility.yul\":1473:1590   */\n      pop\n        /* \"#utility.yul\":1268:1597   */\n      swap3\n      swap2\n      pop\n      pop\n      jump\t// out\n        /* \"#utility.yul\":1603:1680   */\n    tag_77:\n        /* \"#utility.yul\":1640:1647   */\n      0x00\n        /* \"#utility.yul\":1669:1674   */\n      dup2\n        /* \"#utility.yul\":1658:1674   */\n      swap1\n      pop\n        /* \"#utility.yul\":1603:1680   */\n      swap2\n      swap1\n      pop\n      jump\t// out\n        /* \"#utility.yul\":1686:1804   */\n    tag_78:\n        /* \"#utility.yul\":1773:1797   */\n      tag_115\n        /* \"#utility.yul\":1791:1796   */\n      dup2\n        /* \"#utility.yul\":1773:1797   */\n      tag_77\n      jump\t// in\n    tag_115:\n        /* \"#utility.yul\":1768:1771   */\n      dup3\n        /* \"#utility.yul\":1761:1798   */\n      mstore\n        /* \"#utility.yul\":1686:1804   */\n      pop\n      pop\n      jump\t// out\n        /* \"#utility.yul\":1810:2032   */\n    tag_27:\n        /* \"#utility.yul\":1903:1907   */\n      0x00\n        /* \"#utility.yul\":1941:1943   */\n      0x20\n        /* \"#utility.yul\":1930:1939   */\n      dup3\n        /* \"#utility.yul\":1926:1944   */\n      add\n        /* \"#utility.yul\":1918:1944   */\n      swap1\n      pop\n        /* \"#utility.yul\":1954:2025   */\n      tag_117\n        /* \"#utility.yul\":2022:2023   */\n      0x00\n        /* \"#utility.yul\":2011:2020   */\n      dup4\n        /* \"#utility.yul\":2007:2024   */\n      add\n        /* \"#utility.yul\":1998:2004   */\n      dup5\n        /* \"#utility.yul\":1954:2025   */\n      tag_78\n      jump\t// in\n    tag_117:\n        /* \"#utility.yul\":1810:2032   */\n      swap3\n      swap2\n      pop\n      pop\n      jump\t// out\n        /* \"#utility.yul\":2038:2370   */\n    tag_33:\n        /* \"#utility.yul\":2159:2163   */\n      0x00\n        /* \"#utility.yul\":2197:2199   */\n      0x40\n        /* \"#utility.yul\":2186:2195   */\n      dup3\n        /* \"#utility.yul\":2182:2200   */\n      add\n        /* \"#utility.yul\":2174:2200   */\n      swap1\n      pop\n        /* \"#utility.yul\":2210:2281   */\n      tag_119\n        /* \"#utility.yul\":2278:2279   */\n      0x00\n        /* \"#utility.yul\":2267:2276   */\n      dup4\n        /* \"#utility.yul\":2263:2280   */\n      add\n        /* \"#utility.yul\":2254:2260   */\n      dup6\n        /* \"#utility.yul\":2210:2281   */\n      tag_78\n      jump\t// in\n    tag_119:\n        /* \"#utility.yul\":2291:2363   */\n      tag_120\n        /* \"#utility.yul\":2359:2361   */\n      0x20\n        /* \"#utility.yul\":2348:2357   */\n      dup4\n        /* \"#utility.yul\":2344:2362   */\n      add\n        /* \"#utility.yul\":2335:2341   */\n      dup5\n        /* \"#utility.yul\":2291:2363   */\n      tag_78\n      jump\t// in\n    tag_120:\n        /* \"#utility.yul\":2038:2370   */\n      swap4\n      swap3\n      pop\n      pop\n      pop\n      jump\t// out\n        /* \"#utility.yul\":2376:2492   */\n    tag_79:\n        /* \"#utility.yul\":2446:2467   */\n      tag_122\n        /* \"#utility.yul\":2461:2466   */\n      dup2\n        /* \"#utility.yul\":2446:2467   */\n      tag_68\n      jump\t// in\n    tag_122:\n        /* \"#utility.yul\":2439:2444   */\n      dup2\n        /* \"#utility.yul\":2436:2468   */\n      eq\n        /* \"#utility.yul\":2426:2486   */\n      tag_123\n      jumpi\n        /* \"#utility.yul\":2482:2483   */\n      0x00\n        /* \"#utility.yul\":2479:2480   */\n      0x00\n        /* \"#utility.yul\":2472:2484   */\n      revert\n        /* \"#utility.yul\":2426:2486   */\n    tag_123:\n        /* \"#utility.yul\":2376:2492   */\n      pop\n      jump\t// out\n        /* \"#utility.yul\":2498:2631   */\n    tag_80:\n        /* \"#utility.yul\":2541:2546   */\n      0x00\n        /* \"#utility.yul\":2579:2585   */\n      dup2\n        /* \"#utility.yul\":2566:2586   */\n      calldataload\n        /* \"#utility.yul\":2557:2586   */\n      swap1\n      pop\n        /* \"#utility.yul\":2595:2625   */\n      tag_125\n        /* \"#utility.yul\":2619:2624   */\n      dup2\n        /* \"#utility.yul\":2595:2625   */\n      tag_79\n      jump\t// in\n    tag_125:\n        /* \"#utility.yul\":2498:2631   */\n      swap3\n      swap2\n      pop\n      pop\n      jump\t// out\n        /* \"#utility.yul\":2637:2960   */\n    tag_36:\n        /* \"#utility.yul\":2693:2699   */\n      0x00\n        /* \"#utility.yul\":2742:2744   */\n      0x20\n        /* \"#utility.yul\":2730:2739   */\n      dup3\n        /* \"#utility.yul\":2721:2728   */\n      dup5\n        /* \"#utility.yul\":2717:2740   */\n      sub\n        /* \"#utility.yul\":2713:2745   */\n      slt\n        /* \"#utility.yul\":2710:2829   */\n      iszero\n      tag_127\n      jumpi\n        /* \"#utility.yul\":2748:2827   */\n      tag_128\n      tag_71\n      jump\t// in\n    tag_128:\n        /* \"#utility.yul\":2710:2829   */\n    tag_127:\n        /* \"#utility.yul\":2868:2869   */\n      0x00\n        /* \"#utility.yul\":2893:2943   */\n      tag_129\n        /* \"#utility.yul\":2935:2942   */\n      dup5\n        /* \"#utility.yul\":2926:2932   */\n      dup3\n        /* \"#utility.yul\":2915:2924   */\n      dup6\n        /* \"#utility.yul\":2911:2933   */\n      add\n        /* \"#utility.yul\":2893:2943   */\n      tag_80\n      jump\t// in\n    tag_129:\n        /* \"#utility.yul\":2883:2943   */\n      swap2\n      pop\n        /* \"#utility.yul\":2839:2953   */\n      pop\n        /* \"#utility.yul\":2637:2960   */\n      swap3\n      swap2\n      pop\n      pop\n      jump\t// out\n        /* \"#utility.yul\":2966:3084   */\n    tag_81:\n        /* \"#utility.yul\":3053:3077   */\n      tag_131\n        /* \"#utility.yul\":3071:3076   */\n      dup2\n        /* \"#utility.yul\":3053:3077   */\n      tag_74\n      jump\t// in\n    tag_131:\n        /* \"#utility.yul\":3048:3051   */\n      dup3\n        /* \"#utility.yul\":3041:3078   */\n      mstore\n        /* \"#utility.yul\":2966:3084   */\n      pop\n      pop\n      jump\t// out\n        /* \"#utility.yul\":3090:3312   */\n    tag_44:\n        /* \"#utility.yul\":3183:3187   */\n      0x00\n        /* \"#utility.yul\":3221:3223   */\n      0x20\n        /* \"#utility.yul\":3210:3219   */\n      dup3\n        /* \"#utility.yul\":3206:3224   */\n      add\n        /* \"#utility.yul\":3198:3224   */\n      swap1\n      pop\n        /* \"#utility.yul\":3234:3305   */\n      tag_133\n        /* \"#utility.yul\":3302:3303   */\n      0x00\n        /* \"#utility.yul\":3291:3300   */\n      dup4\n        /* \"#utility.yul\":3287:3304   */\n      add\n        /* \"#utility.yul\":3278:3284   */\n      dup5\n        /* \"#utility.yul\":3234:3305   */\n      tag_81\n      jump\t// in\n    tag_133:\n        /* \"#utility.yul\":3090:3312   */\n      swap3\n      swap2\n      pop\n      pop\n      jump\t// out\n        /* \"#utility.yul\":3318:3487   */\n    tag_82:\n        /* \"#utility.yul\":3402:3413   */\n      0x00\n        /* \"#utility.yul\":3436:3442   */\n      dup3\n        /* \"#utility.yul\":3431:3434   */\n      dup3\n        /* \"#utility.yul\":3424:3443   */\n      mstore\n        /* \"#utility.yul\":3476:3480   */\n      0x20\n        /* \"#utility.yul\":3471:3474   */\n      dup3\n        /* \"#utility.yul\":3467:3481   */\n      add\n        /* \"#utility.yul\":3452:3481   */\n      swap1\n      pop\n        /* \"#utility.yul\":3318:3487   */\n      swap3\n      swap2\n      pop\n      pop\n      jump\t// out\n        /* \"#utility.yul\":3493:3671   */\n    tag_83:\n        /* \"#utility.yul\":3633:3663   */\n      0x4f6e6c792041646d696e2063616e20737461727420766f74696e672e00000000\n        /* \"#utility.yul\":3629:3630   */\n      0x00\n        /* \"#utility.yul\":3621:3627   */\n      dup3\n        /* \"#utility.yul\":3617:3631   */\n      add\n        /* \"#utility.yul\":3610:3664   */\n      mstore\n        /* \"#utility.yul\":3493:3671   */\n      pop\n      jump\t// out\n        /* \"#utility.yul\":3677:4043   */\n    tag_84:\n        /* \"#utility.yul\":3819:3822   */\n      0x00\n        /* \"#utility.yul\":3840:3907   */\n      tag_137\n        /* \"#utility.yul\":3904:3906   */\n      0x1c\n        /* \"#utility.yul\":3899:3902   */\n      dup4\n        /* \"#utility.yul\":3840:3907   */\n      tag_82\n      jump\t// in\n    tag_137:\n        /* \"#utility.yul\":3833:3907   */\n      swap2\n      pop\n        /* \"#utility.yul\":3916:4009   */\n      tag_138\n        /* \"#utility.yul\":4005:4008   */\n      dup3\n        /* \"#utility.yul\":3916:4009   */\n      tag_83\n      jump\t// in\n    tag_138:\n        /* \"#utility.yul\":4034:4036   */\n      0x20\n        /* \"#utility.yul\":4029:4032   */\n      dup3\n        /* \"#utility.yul\":4025:4037   */\n      add\n        /* \"#utility.yul\":4018:4037   */\n      swap1\n      pop\n        /* \"#utility.yul\":3677:4043   */\n      swap2\n      swap1\n      pop\n      jump\t// out\n        /* \"#utility.yul\":4049:4468   */\n    tag_48:\n        /* \"#utility.yul\":4215:4219   */\n      0x00\n        /* \"#utility.yul\":4253:4255   */\n      0x20\n        /* \"#utility.yul\":4242:4251   */\n      dup3\n        /* \"#utility.yul\":4238:4256   */\n      add\n        /* \"#utility.yul\":4230:4256   */\n      swap1\n      pop\n        /* \"#utility.yul\":4302:4311   */\n      dup2\n        /* \"#utility.yul\":4296:4300   */\n      dup2\n        /* \"#utility.yul\":4292:4312   */\n      sub\n        /* \"#utility.yul\":4288:4289   */\n      0x00\n        /* \"#utility.yul\":4277:4286   */\n      dup4\n        /* \"#utility.yul\":4273:4290   */\n      add\n        /* \"#utility.yul\":4266:4313   */\n      mstore\n        /* \"#utility.yul\":4330:4461   */\n      tag_140\n        /* \"#utility.yul\":4456:4460   */\n      dup2\n        /* \"#utility.yul\":4330:4461   */\n      tag_84\n      jump\t// in\n    tag_140:\n        /* \"#utility.yul\":4322:4461   */\n      swap1\n      pop\n        /* \"#utility.yul\":4049:4468   */\n      swap2\n      swap1\n      pop\n      jump\t// out\n        /* \"#utility.yul\":4474:4647   */\n    tag_85:\n        /* \"#utility.yul\":4614:4639   */\n      0x566f74696e67206973207374696c6c206163746976652e000000000000000000\n        /* \"#utility.yul\":4610:4611   */\n      0x00\n        /* \"#utility.yul\":4602:4608   */\n      dup3\n        /* \"#utility.yul\":4598:4612   */\n      add\n        /* \"#utility.yul\":4591:4640   */\n      mstore\n        /* \"#utility.yul\":4474:4647   */\n      pop\n      jump\t// out\n        /* \"#utility.yul\":4653:5019   */\n    tag_86:\n        /* \"#utility.yul\":4795:4798   */\n      0x00\n        /* \"#utility.yul\":4816:4883   */\n      tag_143\n        /* \"#utility.yul\":4880:4882   */\n      0x17\n        /* \"#utility.yul\":4875:4878   */\n      dup4\n        /* \"#utility.yul\":4816:4883   */\n      tag_82\n      jump\t// in\n    tag_143:\n        /* \"#utility.yul\":4809:4883   */\n      swap2\n      pop\n        /* \"#utility.yul\":4892:4985   */\n      tag_144\n        /* \"#utility.yul\":4981:4984   */\n      dup3\n        /* \"#utility.yul\":4892:4985   */\n      tag_85\n      jump\t// in\n    tag_144:\n        /* \"#utility.yul\":5010:5012   */\n      0x20\n        /* \"#utility.yul\":5005:5008   */\n      dup3\n        /* \"#utility.yul\":5001:5013   */\n      add\n        /* \"#utility.yul\":4994:5013   */\n      swap1\n      pop\n        /* \"#utility.yul\":4653:5019   */\n      swap2\n      swap1\n      pop\n      jump\t// out\n        /* \"#utility.yul\":5025:5444   */\n    tag_55:\n        /* \"#utility.yul\":5191:5195   */\n      0x00\n        /* \"#utility.yul\":5229:5231   */\n      0x20\n        /* \"#utility.yul\":5218:5227   */\n      dup3\n        /* \"#utility.yul\":5214:5232   */\n      add\n        /* \"#utility.yul\":5206:5232   */\n      swap1\n      pop\n        /* \"#utility.yul\":5278:5287   */\n      dup2\n        /* \"#utility.yul\":5272:5276   */\n      dup2\n        /* \"#utility.yul\":5268:5288   */\n      sub\n        /* \"#utility.yul\":5264:5265   */\n      0x00\n        /* \"#utility.yul\":5253:5262   */\n      dup4\n        /* \"#utility.yul\":5249:5266   */\n      add\n        /* \"#utility.yul\":5242:5289   */\n      mstore\n        /* \"#utility.yul\":5306:5437   */\n      tag_146\n        /* \"#utility.yul\":5432:5436   */\n      dup2\n        /* \"#utility.yul\":5306:5437   */\n      tag_86\n      jump\t// in\n    tag_146:\n        /* \"#utility.yul\":5298:5437   */\n      swap1\n      pop\n        /* \"#utility.yul\":5025:5444   */\n      swap2\n      swap1\n      pop\n      jump\t// out\n        /* \"#utility.yul\":5450:5621   */\n    tag_87:\n        /* \"#utility.yul\":5590:5613   */\n      0x566f74696e67206973206e6f74206163746976652e0000000000000000000000\n        /* \"#utility.yul\":5586:5587   */\n      0x00\n        /* \"#utility.yul\":5578:5584   */\n      dup3\n        /* \"#utility.yul\":5574:5588   */\n      add\n        /* \"#utility.yul\":5567:5614   */\n      mstore\n        /* \"#utility.yul\":5450:5621   */\n      pop\n      jump\t// out\n        /* \"#utility.yul\":5627:5993   */\n    tag_88:\n        /* \"#utility.yul\":5769:5772   */\n      0x00\n        /* \"#utility.yul\":5790:5857   */\n      tag_149\n        /* \"#utility.yul\":5854:5856   */\n      0x15\n        /* \"#utility.yul\":5849:5852   */\n      dup4\n        /* \"#utility.yul\":5790:5857   */\n      tag_82\n      jump\t// in\n    tag_149:\n        /* \"#utility.yul\":5783:5857   */\n      swap2\n      pop\n        /* \"#utility.yul\":5866:5959   */\n      tag_150\n        /* \"#utility.yul\":5955:5958   */\n      dup3\n        /* \"#utility.yul\":5866:5959   */\n      tag_87\n      jump\t// in\n    tag_150:\n        /* \"#utility.yul\":5984:5986   */\n      0x20\n        /* \"#utility.yul\":5979:5982   */\n      dup3\n        /* \"#utility.yul\":5975:5987   */\n      add\n        /* \"#utility.yul\":5968:5987   */\n      swap1\n      pop\n        /* \"#utility.yul\":5627:5993   */\n      swap2\n      swap1\n      pop\n      jump\t// out\n        /* \"#utility.yul\":5999:6418   */\n    tag_59:\n        /* \"#utility.yul\":6165:6169   */\n      0x00\n        /* \"#utility.yul\":6203:6205   */\n      0x20\n        /* \"#utility.yul\":6192:6201   */\n      dup3\n        /* \"#utility.yul\":6188:6206   */\n      add\n        /* \"#utility.yul\":6180:6206   */\n      swap1\n      pop\n        /* \"#utility.yul\":6252:6261   */\n      dup2\n        /* \"#utility.yul\":6246:6250   */\n      dup2\n        /* \"#utility.yul\":6242:6262   */\n      sub\n        /* \"#utility.yul\":6238:6239   */\n      0x00\n        /* \"#utility.yul\":6227:6236   */\n      dup4\n        /* \"#utility.yul\":6223:6240   */\n      add\n        /* \"#utility.yul\":6216:6263   */\n      mstore\n        /* \"#utility.yul\":6280:6411   */\n      tag_152\n        /* \"#utility.yul\":6406:6410   */\n      dup2\n        /* \"#utility.yul\":6280:6411   */\n      tag_88\n      jump\t// in\n    tag_152:\n        /* \"#utility.yul\":6272:6411   */\n      swap1\n      pop\n        /* \"#utility.yul\":5999:6418   */\n      swap2\n      swap1\n      pop\n      jump\t// out\n        /* \"#utility.yul\":6424:6588   */\n    tag_89:\n        /* \"#utility.yul\":6564:6580   */\n      0x416c726561647920766f7465642e000000000000000000000000000000000000\n        /* \"#utility.yul\":6560:6561   */\n      0x00\n        /* \"#utility.yul\":6552:6558   */\n      dup3\n        /* \"#utility.yul\":6548:6562   */\n      add\n        /* \"#utility.yul\":6541:6581   */\n      mstore\n        /* \"#utility.yul\":6424:6588   */\n      pop\n      jump\t// out\n        /* \"#utility.yul\":6594:6960   */\n    tag_90:\n        /* \"#utility.yul\":6736:6739   */\n      0x00\n        /* \"#utility.yul\":6757:6824   */\n      tag_155\n        /* \"#utility.yul\":6821:6823   */\n      0x0e\n        /* \"#utility.yul\":6816:6819   */\n      dup4\n        /* \"#utility.yul\":6757:6824   */\n      tag_82\n      jump\t// in\n    tag_155:\n        /* \"#utility.yul\":6750:6824   */\n      swap2\n      pop\n        /* \"#utility.yul\":6833:6926   */\n      tag_156\n        /* \"#utility.yul\":6922:6925   */\n      dup3\n        /* \"#utility.yul\":6833:6926   */\n      tag_89\n      jump\t// in\n    tag_156:\n        /* \"#utility.yul\":6951:6953   */\n      0x20\n        /* \"#utility.yul\":6946:6949   */\n      dup3\n        /* \"#utility.yul\":6942:6954   */\n      add\n        /* \"#utility.yul\":6935:6954   */\n      swap1\n      pop\n        /* \"#utility.yul\":6594:6960   */\n      swap2\n      swap1\n      pop\n      jump\t// out\n        /* \"#utility.yul\":6966:7385   */\n    tag_62:\n        /* \"#utility.yul\":7132:7136   */\n      0x00\n        /* \"#utility.yul\":7170:7172   */\n      0x20\n        /* \"#utility.yul\":7159:7168   */\n      dup3\n        /* \"#utility.yul\":7155:7173   */\n      add\n        /* \"#utility.yul\":7147:7173   */\n      swap1\n      pop\n        /* \"#utility.yul\":7219:7228   */\n      dup2\n        /* \"#utility.yul\":7213:7217   */\n      dup2\n        /* \"#utility.yul\":7209:7229   */\n      sub\n        /* \"#utility.yul\":7205:7206   */\n      0x00\n        /* \"#utility.yul\":7194:7203   */\n      dup4\n        /* \"#utility.yul\":7190:7207   */\n      add\n        /* \"#utility.yul\":7183:7230   */\n      mstore\n        /* \"#utility.yul\":7247:7378   */\n      tag_158\n        /* \"#utility.yul\":7373:7377   */\n      dup2\n        /* \"#utility.yul\":7247:7378   */\n      tag_90\n      jump\t// in\n    tag_158:\n        /* \"#utility.yul\":7239:7378   */\n      swap1\n      pop\n        /* \"#utility.yul\":6966:7385   */\n      swap2\n      swap1\n      pop\n      jump\t// out\n        /* \"#utility.yul\":7391:7571   */\n    tag_91:\n        /* \"#utility.yul\":7439:7516   */\n      0x4e487b7100000000000000000000000000000000000000000000000000000000\n        /* \"#utility.yul\":7436:7437   */\n      0x00\n        /* \"#utility.yul\":7429:7517   */\n      mstore\n        /* \"#utility.yul\":7536:7540   */\n      0x11\n        /* \"#utility.yul\":7533:7534   */\n      0x04\n        /* \"#utility.yul\":7526:7541   */\n      mstore\n        /* \"#utility.yul\":7560:7564   */\n      0x24\n        /* \"#utility.yul\":7557:7558   */\n      0x00\n        /* \"#utility.yul\":7550:7565   */\n      revert\n        /* \"#utility.yul\":7577:7810   */\n    tag_65:\n        /* \"#utility.yul\":7616:7619   */\n      0x00\n        /* \"#utility.yul\":7639:7663   */\n      tag_161\n        /* \"#utility.yul\":7657:7662   */\n      dup3\n        /* \"#utility.yul\":7639:7663   */\n      tag_77\n      jump\t// in\n    tag_161:\n        /* \"#utility.yul\":7630:7663   */\n      swap2\n      pop\n        /* \"#utility.yul\":7685:7751   */\n      0xffffffffffffffffffffffffffffffffffffffffffffffffffffffffffffffff\n        /* \"#utility.yul\":7678:7683   */\n      dup3\n        /* \"#utility.yul\":7675:7752   */\n      sub\n        /* \"#utility.yul\":7672:7775   */\n      tag_162\n      jumpi\n        /* \"#utility.yul\":7755:7773   */\n      tag_163\n      tag_91\n      jump\t// in\n    tag_163:\n        /* \"#utility.yul\":7672:7775   */\n    tag_162:\n        /* \"#utility.yul\":7802:7803   */\n      0x01\n        /* \"#utility.yul\":7795:7800   */\n      dup3\n        /* \"#utility.yul\":7791:7804   */\n      add\n        /* \"#utility.yul\":7784:7804   */\n      swap1\n      pop\n        /* \"#utility.yul\":7577:7810   */\n      swap2\n      swap1\n      pop\n      jump\t// out\n\n    auxdata: 0xa26469706673582212208e82eafbca39612864a5d046ecf64e0b10e00d078c6b8b64e723f0d634a2430064736f6c634300081e0033\n}\n",
				"bytecode": {
					"linkReferences": {},
					"object": "6080604052348015600e575f5ffd5b50335f5f6101000a81548173ffffffffffffffffffffffffffffffffffffffff021916908373ffffffffffffffffffffffffffffffffffffffff1602179055506108ff8061005b5f395ff3fe608060405234801561000f575f5ffd5b5060043610610091575f3560e01c8063c3403ddf11610064578063c3403ddf1461010b578063de29278914610115578063f6df3e5d14610134578063fb286c6514610150578063ff1b636d1461016e57610091565b8063408e27271461009557806372851369146100b35780639432a10c146100bd578063b5b47f42146100ed575b5f5ffd5b61009d61018c565b6040516100aa919061052e565b60405180910390f35b6100bb61019e565b005b6100d760048036038101906100d291906105a5565b610256565b6040516100e4919061052e565b60405180910390f35b6100f5610273565b60405161010291906105e8565b60405180910390f35b610113610279565b005b61011d610322565b60405161012b929190610601565b60405180910390f35b61014e60048036038101906101499190610652565b610381565b005b6101586104ea565b60405161016591906105e8565b60405180910390f35b6101766104f0565b604051610183919061068c565b60405180910390f35b5f60149054906101000a900460ff1681565b5f5f9054906101000a900473ffffffffffffffffffffffffffffffffffffffff1673ffffffffffffffffffffffffffffffffffffffff163373ffffffffffffffffffffffffffffffffffffffff161461022c576040517f08c379a0000000000000000000000000000000000000000000000000000000008152600401610223906106ff565b60405180910390fd5b60015f60146101000a81548160ff0219169083151502179055505f6002819055505f600381905550565b6001602052805f5260405f205f915054906101000a900460ff1681565b60035481565b5f5f9054906101000a900473ffffffffffffffffffffffffffffffffffffffff1673ffffffffffffffffffffffffffffffffffffffff163373ffffffffffffffffffffffffffffffffffffffff1614610307576040517f08c379a00000000000000000000000000000000000000000000000000000000081526004016102fe906106ff565b60405180910390fd5b5f5f60146101000a81548160ff021916908315150217905550565b5f5f5f60149054906101000a900460ff1615610373576040517f08c379a000000000000000000000000000000000000000000000000000000000815260040161036a90610767565b60405180910390fd5b600254600354915091509091565b5f60149054906101000a900460ff166103cf576040517f08c379a00000000000000000000000000000000000000000000000000000000081526004016103c6906107cf565b60405180910390fd5b60015f3373ffffffffffffffffffffffffffffffffffffffff1673ffffffffffffffffffffffffffffffffffffffff1681526020019081526020015f205f9054906101000a900460ff1615610459576040517f08c379a000000000000000000000000000000000000000000000000000000000815260040161045090610837565b60405180910390fd5b801561047b5760025f81548092919061047190610882565b9190505550610493565b60035f81548092919061048d90610882565b91905055505b6001805f3373ffffffffffffffffffffffffffffffffffffffff1673ffffffffffffffffffffffffffffffffffffffff1681526020019081526020015f205f6101000a81548160ff02191690831515021790555050565b60025481565b5f5f9054906101000a900473ffffffffffffffffffffffffffffffffffffffff1681565b5f8115159050919050565b61052881610514565b82525050565b5f6020820190506105415f83018461051f565b92915050565b5f5ffd5b5f73ffffffffffffffffffffffffffffffffffffffff82169050919050565b5f6105748261054b565b9050919050565b6105848161056a565b811461058e575f5ffd5b50565b5f8135905061059f8161057b565b92915050565b5f602082840312156105ba576105b9610547565b5b5f6105c784828501610591565b91505092915050565b5f819050919050565b6105e2816105d0565b82525050565b5f6020820190506105fb5f8301846105d9565b92915050565b5f6040820190506106145f8301856105d9565b61062160208301846105d9565b9392505050565b61063181610514565b811461063b575f5ffd5b50565b5f8135905061064c81610628565b92915050565b5f6020828403121561066757610666610547565b5b5f6106748482850161063e565b91505092915050565b6106868161056a565b82525050565b5f60208201905061069f5f83018461067d565b92915050565b5f82825260208201905092915050565b7f4f6e6c792041646d696e2063616e20737461727420766f74696e672e000000005f82015250565b5f6106e9601c836106a5565b91506106f4826106b5565b602082019050919050565b5f6020820190508181035f830152610716816106dd565b9050919050565b7f566f74696e67206973207374696c6c206163746976652e0000000000000000005f82015250565b5f6107516017836106a5565b915061075c8261071d565b602082019050919050565b5f6020820190508181035f83015261077e81610745565b9050919050565b7f566f74696e67206973206e6f74206163746976652e00000000000000000000005f82015250565b5f6107b96015836106a5565b91506107c482610785565b602082019050919050565b5f6020820190508181035f8301526107e6816107ad565b9050919050565b7f416c726561647920766f7465642e0000000000000000000000000000000000005f82015250565b5f610821600e836106a5565b915061082c826107ed565b602082019050919050565b5f6020820190508181035f83015261084e81610815565b9050919050565b7f4e487b71000000000000000000000000000000000000000000000000000000005f52601160045260245ffd5b5f61088c826105d0565b91507fffffffffffffffffffffffffffffffffffffffffffffffffffffffffffffffff82036108be576108bd610855565b5b60018201905091905056fea26469706673582212208e82eafbca39612864a5d046ecf64e0b10e00d078c6b8b64e723f0d634a2430064736f6c634300081e0033",
					"opcodes": "PUSH1 0x80 PUSH1 0x40 MSTORE CALLVALUE DUP1 ISZERO PUSH1 0xE JUMPI PUSH0 PUSH0 REVERT JUMPDEST POP CALLER PUSH0 PUSH0 PUSH2 0x100 EXP DUP2 SLOAD DUP2 PUSH20 0xFFFFFFFFFFFFFFFFFFFFFFFFFFFFFFFFFFFFFFFF MUL NOT AND SWAP1 DUP4 PUSH20 0xFFFFFFFFFFFFFFFFFFFFFFFFFFFFFFFFFFFFFFFF AND MUL OR SWAP1 SSTORE POP PUSH2 0x8FF DUP1 PUSH2 0x5B PUSH0 CODECOPY PUSH0 RETURN INVALID PUSH1 0x80 PUSH1 0x40 MSTORE CALLVALUE DUP1 ISZERO PUSH2 0xF JUMPI PUSH0 PUSH0 REVERT JUMPDEST POP PUSH1 0x4 CALLDATASIZE LT PUSH2 0x91 JUMPI PUSH0 CALLDATALOAD PUSH1 0xE0 SHR DUP1 PUSH4 0xC3403DDF GT PUSH2 0x64 JUMPI DUP1 PUSH4 0xC3403DDF EQ PUSH2 0x10B JUMPI DUP1 PUSH4 0xDE292789 EQ PUSH2 0x115 JUMPI DUP1 PUSH4 0xF6DF3E5D EQ PUSH2 0x134 JUMPI DUP1 PUSH4 0xFB286C65 EQ PUSH2 0x150 JUMPI DUP1 PUSH4 0xFF1B636D EQ PUSH2 0x16E JUMPI PUSH2 0x91 JUMP JUMPDEST DUP1 PUSH4 0x408E2727 EQ PUSH2 0x95 JUMPI DUP1 PUSH4 0x72851369 EQ PUSH2 0xB3 JUMPI DUP1 PUSH4 0x9432A10C EQ PUSH2 0xBD JUMPI DUP1 PUSH4 0xB5B47F42 EQ PUSH2 0xED JUMPI JUMPDEST PUSH0 PUSH0 REVERT JUMPDEST PUSH2 0x9D PUSH2 0x18C JUMP JUMPDEST PUSH1 0x40 MLOAD PUSH2 0xAA SWAP2 SWAP1 PUSH2 0x52E JUMP JUMPDEST PUSH1 0x40 MLOAD DUP1 SWAP2 SUB SWAP1 RETURN JUMPDEST PUSH2 0xBB PUSH2 0x19E JUMP JUMPDEST STOP JUMPDEST PUSH2 0xD7 PUSH1 0x4 DUP1 CALLDATASIZE SUB DUP2 ADD SWAP1 PUSH2 0xD2 SWAP2 SWAP1 PUSH2 0x5A5 JUMP JUMPDEST PUSH2 0x256 JUMP JUMPDEST PUSH1 0x40 MLOAD PUSH2 0xE4 SWAP2 SWAP1 PUSH2 0x52E JUMP JUMPDEST PUSH1 0x40 MLOAD DUP1 SWAP2 SUB SWAP1 RETURN JUMPDEST PUSH2 0xF5 PUSH2 0x273 JUMP JUMPDEST PUSH1 0x40 MLOAD PUSH2 0x102 SWAP2 SWAP1 PUSH2 0x5E8 JUMP JUMPDEST PUSH1 0x40 MLOAD DUP1 SWAP2 SUB SWAP1 RETURN JUMPDEST PUSH2 0x113 PUSH2 0x279 JUMP JUMPDEST STOP JUMPDEST PUSH2 0x11D PUSH2 0x322 JUMP JUMPDEST PUSH1 0x40 MLOAD PUSH2 0x12B SWAP3 SWAP2 SWAP1 PUSH2 0x601 JUMP JUMPDEST PUSH1 0x40 MLOAD DUP1 SWAP2 SUB SWAP1 RETURN JUMPDEST PUSH2 0x14E PUSH1 0x4 DUP1 CALLDATASIZE SUB DUP2 ADD SWAP1 PUSH2 0x149 SWAP2 SWAP1 PUSH2 0x652 JUMP JUMPDEST PUSH2 0x381 JUMP JUMPDEST STOP JUMPDEST PUSH2 0x158 PUSH2 0x4EA JUMP JUMPDEST PUSH1 0x40 MLOAD PUSH2 0x165 SWAP2 SWAP1 PUSH2 0x5E8 JUMP JUMPDEST PUSH1 0x40 MLOAD DUP1 SWAP2 SUB SWAP1 RETURN JUMPDEST PUSH2 0x176 PUSH2 0x4F0 JUMP JUMPDEST PUSH1 0x40 MLOAD PUSH2 0x183 SWAP2 SWAP1 PUSH2 0x68C JUMP JUMPDEST PUSH1 0x40 MLOAD DUP1 SWAP2 SUB SWAP1 RETURN JUMPDEST PUSH0 PUSH1 0x14 SWAP1 SLOAD SWAP1 PUSH2 0x100 EXP SWAP1 DIV PUSH1 0xFF AND DUP2 JUMP JUMPDEST PUSH0 PUSH0 SWAP1 SLOAD SWAP1 PUSH2 0x100 EXP SWAP1 DIV PUSH20 0xFFFFFFFFFFFFFFFFFFFFFFFFFFFFFFFFFFFFFFFF AND PUSH20 0xFFFFFFFFFFFFFFFFFFFFFFFFFFFFFFFFFFFFFFFF AND CALLER PUSH20 0xFFFFFFFFFFFFFFFFFFFFFFFFFFFFFFFFFFFFFFFF AND EQ PUSH2 0x22C JUMPI PUSH1 0x40 MLOAD PUSH32 0x8C379A000000000000000000000000000000000000000000000000000000000 DUP2 MSTORE PUSH1 0x4 ADD PUSH2 0x223 SWAP1 PUSH2 0x6FF JUMP JUMPDEST PUSH1 0x40 MLOAD DUP1 SWAP2 SUB SWAP1 REVERT JUMPDEST PUSH1 0x1 PUSH0 PUSH1 0x14 PUSH2 0x100 EXP DUP2 SLOAD DUP2 PUSH1 0xFF MUL NOT AND SWAP1 DUP4 ISZERO ISZERO MUL OR SWAP1 SSTORE POP PUSH0 PUSH1 0x2 DUP2 SWAP1 SSTORE POP PUSH0 PUSH1 0x3 DUP2 SWAP1 SSTORE POP JUMP JUMPDEST PUSH1 0x1 PUSH1 0x20 MSTORE DUP1 PUSH0 MSTORE PUSH1 0x40 PUSH0 KECCAK256 PUSH0 SWAP2 POP SLOAD SWAP1 PUSH2 0x100 EXP SWAP1 DIV PUSH1 0xFF AND DUP2 JUMP JUMPDEST PUSH1 0x3 SLOAD DUP2 JUMP JUMPDEST PUSH0 PUSH0 SWAP1 SLOAD SWAP1 PUSH2 0x100 EXP SWAP1 DIV PUSH20 0xFFFFFFFFFFFFFFFFFFFFFFFFFFFFFFFFFFFFFFFF AND PUSH20 0xFFFFFFFFFFFFFFFFFFFFFFFFFFFFFFFFFFFFFFFF AND CALLER PUSH20 0xFFFFFFFFFFFFFFFFFFFFFFFFFFFFFFFFFFFFFFFF AND EQ PUSH2 0x307 JUMPI PUSH1 0x40 MLOAD PUSH32 0x8C379A000000000000000000000000000000000000000000000000000000000 DUP2 MSTORE PUSH1 0x4 ADD PUSH2 0x2FE SWAP1 PUSH2 0x6FF JUMP JUMPDEST PUSH1 0x40 MLOAD DUP1 SWAP2 SUB SWAP1 REVERT JUMPDEST PUSH0 PUSH0 PUSH1 0x14 PUSH2 0x100 EXP DUP2 SLOAD DUP2 PUSH1 0xFF MUL NOT AND SWAP1 DUP4 ISZERO ISZERO MUL OR SWAP1 SSTORE POP JUMP JUMPDEST PUSH0 PUSH0 PUSH0 PUSH1 0x14 SWAP1 SLOAD SWAP1 PUSH2 0x100 EXP SWAP1 DIV PUSH1 0xFF AND ISZERO PUSH2 0x373 JUMPI PUSH1 0x40 MLOAD PUSH32 0x8C379A000000000000000000000000000000000000000000000000000000000 DUP2 MSTORE PUSH1 0x4 ADD PUSH2 0x36A SWAP1 PUSH2 0x767 JUMP JUMPDEST PUSH1 0x40 MLOAD DUP1 SWAP2 SUB SWAP1 REVERT JUMPDEST PUSH1 0x2 SLOAD PUSH1 0x3 SLOAD SWAP2 POP SWAP2 POP SWAP1 SWAP2 JUMP JUMPDEST PUSH0 PUSH1 0x14 SWAP1 SLOAD SWAP1 PUSH2 0x100 EXP SWAP1 DIV PUSH1 0xFF AND PUSH2 0x3CF JUMPI PUSH1 0x40 MLOAD PUSH32 0x8C379A000000000000000000000000000000000000000000000000000000000 DUP2 MSTORE PUSH1 0x4 ADD PUSH2 0x3C6 SWAP1 PUSH2 0x7CF JUMP JUMPDEST PUSH1 0x40 MLOAD DUP1 SWAP2 SUB SWAP1 REVERT JUMPDEST PUSH1 0x1 PUSH0 CALLER PUSH20 0xFFFFFFFFFFFFFFFFFFFFFFFFFFFFFFFFFFFFFFFF AND PUSH20 0xFFFFFFFFFFFFFFFFFFFFFFFFFFFFFFFFFFFFFFFF AND DUP2 MSTORE PUSH1 0x20 ADD SWAP1 DUP2 MSTORE PUSH1 0x20 ADD PUSH0 KECCAK256 PUSH0 SWAP1 SLOAD SWAP1 PUSH2 0x100 EXP SWAP1 DIV PUSH1 0xFF AND ISZERO PUSH2 0x459 JUMPI PUSH1 0x40 MLOAD PUSH32 0x8C379A000000000000000000000000000000000000000000000000000000000 DUP2 MSTORE PUSH1 0x4 ADD PUSH2 0x450 SWAP1 PUSH2 0x837 JUMP JUMPDEST PUSH1 0x40 MLOAD DUP1 SWAP2 SUB SWAP1 REVERT JUMPDEST DUP1 ISZERO PUSH2 0x47B JUMPI PUSH1 0x2 PUSH0 DUP2 SLOAD DUP1 SWAP3 SWAP2 SWAP1 PUSH2 0x471 SWAP1 PUSH2 0x882 JUMP JUMPDEST SWAP2 SWAP1 POP SSTORE POP PUSH2 0x493 JUMP JUMPDEST PUSH1 0x3 PUSH0 DUP2 SLOAD DUP1 SWAP3 SWAP2 SWAP1 PUSH2 0x48D SWAP1 PUSH2 0x882 JUMP JUMPDEST SWAP2 SWAP1 POP SSTORE POP JUMPDEST PUSH1 0x1 DUP1 PUSH0 CALLER PUSH20 0xFFFFFFFFFFFFFFFFFFFFFFFFFFFFFFFFFFFFFFFF AND PUSH20 0xFFFFFFFFFFFFFFFFFFFFFFFFFFFFFFFFFFFFFFFF AND DUP2 MSTORE PUSH1 0x20 ADD SWAP1 DUP2 MSTORE PUSH1 0x20 ADD PUSH0 KECCAK256 PUSH0 PUSH2 0x100 EXP DUP2 SLOAD DUP2 PUSH1 0xFF MUL NOT AND SWAP1 DUP4 ISZERO ISZERO MUL OR SWAP1 SSTORE POP POP JUMP JUMPDEST PUSH1 0x2 SLOAD DUP2 JUMP JUMPDEST PUSH0 PUSH0 SWAP1 SLOAD SWAP1 PUSH2 0x100 EXP SWAP1 DIV PUSH20 0xFFFFFFFFFFFFFFFFFFFFFFFFFFFFFFFFFFFFFFFF AND DUP2 JUMP JUMPDEST PUSH0 DUP2 ISZERO ISZERO SWAP1 POP SWAP2 SWAP1 POP JUMP JUMPDEST PUSH2 0x528 DUP2 PUSH2 0x514 JUMP JUMPDEST DUP3 MSTORE POP POP JUMP JUMPDEST PUSH0 PUSH1 0x20 DUP3 ADD SWAP1 POP PUSH2 0x541 PUSH0 DUP4 ADD DUP5 PUSH2 0x51F JUMP JUMPDEST SWAP3 SWAP2 POP POP JUMP JUMPDEST PUSH0 PUSH0 REVERT JUMPDEST PUSH0 PUSH20 0xFFFFFFFFFFFFFFFFFFFFFFFFFFFFFFFFFFFFFFFF DUP3 AND SWAP1 POP SWAP2 SWAP1 POP JUMP JUMPDEST PUSH0 PUSH2 0x574 DUP3 PUSH2 0x54B JUMP JUMPDEST SWAP1 POP SWAP2 SWAP1 POP JUMP JUMPDEST PUSH2 0x584 DUP2 PUSH2 0x56A JUMP JUMPDEST DUP2 EQ PUSH2 0x58E JUMPI PUSH0 PUSH0 REVERT JUMPDEST POP JUMP JUMPDEST PUSH0 DUP2 CALLDATALOAD SWAP1 POP PUSH2 0x59F DUP2 PUSH2 0x57B JUMP JUMPDEST SWAP3 SWAP2 POP POP JUMP JUMPDEST PUSH0 PUSH1 0x20 DUP3 DUP5 SUB SLT ISZERO PUSH2 0x5BA JUMPI PUSH2 0x5B9 PUSH2 0x547 JUMP JUMPDEST JUMPDEST PUSH0 PUSH2 0x5C7 DUP5 DUP3 DUP6 ADD PUSH2 0x591 JUMP JUMPDEST SWAP2 POP POP SWAP3 SWAP2 POP POP JUMP JUMPDEST PUSH0 DUP2 SWAP1 POP SWAP2 SWAP1 POP JUMP JUMPDEST PUSH2 0x5E2 DUP2 PUSH2 0x5D0 JUMP JUMPDEST DUP3 MSTORE POP POP JUMP JUMPDEST PUSH0 PUSH1 0x20 DUP3 ADD SWAP1 POP PUSH2 0x5FB PUSH0 DUP4 ADD DUP5 PUSH2 0x5D9 JUMP JUMPDEST SWAP3 SWAP2 POP POP JUMP JUMPDEST PUSH0 PUSH1 0x40 DUP3 ADD SWAP1 POP PUSH2 0x614 PUSH0 DUP4 ADD DUP6 PUSH2 0x5D9 JUMP JUMPDEST PUSH2 0x621 PUSH1 0x20 DUP4 ADD DUP5 PUSH2 0x5D9 JUMP JUMPDEST SWAP4 SWAP3 POP POP POP JUMP JUMPDEST PUSH2 0x631 DUP2 PUSH2 0x514 JUMP JUMPDEST DUP2 EQ PUSH2 0x63B JUMPI PUSH0 PUSH0 REVERT JUMPDEST POP JUMP JUMPDEST PUSH0 DUP2 CALLDATALOAD SWAP1 POP PUSH2 0x64C DUP2 PUSH2 0x628 JUMP JUMPDEST SWAP3 SWAP2 POP POP JUMP JUMPDEST PUSH0 PUSH1 0x20 DUP3 DUP5 SUB SLT ISZERO PUSH2 0x667 JUMPI PUSH2 0x666 PUSH2 0x547 JUMP JUMPDEST JUMPDEST PUSH0 PUSH2 0x674 DUP5 DUP3 DUP6 ADD PUSH2 0x63E JUMP JUMPDEST SWAP2 POP POP SWAP3 SWAP2 POP POP JUMP JUMPDEST PUSH2 0x686 DUP2 PUSH2 0x56A JUMP JUMPDEST DUP3 MSTORE POP POP JUMP JUMPDEST PUSH0 PUSH1 0x20 DUP3 ADD SWAP1 POP PUSH2 0x69F PUSH0 DUP4 ADD DUP5 PUSH2 0x67D JUMP JUMPDEST SWAP3 SWAP2 POP POP JUMP JUMPDEST PUSH0 DUP3 DUP3 MSTORE PUSH1 0x20 DUP3 ADD SWAP1 POP SWAP3 SWAP2 POP POP JUMP JUMPDEST PUSH32 0x4F6E6C792041646D696E2063616E20737461727420766F74696E672E00000000 PUSH0 DUP3 ADD MSTORE POP JUMP JUMPDEST PUSH0 PUSH2 0x6E9 PUSH1 0x1C DUP4 PUSH2 0x6A5 JUMP JUMPDEST SWAP2 POP PUSH2 0x6F4 DUP3 PUSH2 0x6B5 JUMP JUMPDEST PUSH1 0x20 DUP3 ADD SWAP1 POP SWAP2 SWAP1 POP JUMP JUMPDEST PUSH0 PUSH1 0x20 DUP3 ADD SWAP1 POP DUP2 DUP2 SUB PUSH0 DUP4 ADD MSTORE PUSH2 0x716 DUP2 PUSH2 0x6DD JUMP JUMPDEST SWAP1 POP SWAP2 SWAP1 POP JUMP JUMPDEST PUSH32 0x566F74696E67206973207374696C6C206163746976652E000000000000000000 PUSH0 DUP3 ADD MSTORE POP JUMP JUMPDEST PUSH0 PUSH2 0x751 PUSH1 0x17 DUP4 PUSH2 0x6A5 JUMP JUMPDEST SWAP2 POP PUSH2 0x75C DUP3 PUSH2 0x71D JUMP JUMPDEST PUSH1 0x20 DUP3 ADD SWAP1 POP SWAP2 SWAP1 POP JUMP JUMPDEST PUSH0 PUSH1 0x20 DUP3 ADD SWAP1 POP DUP2 DUP2 SUB PUSH0 DUP4 ADD MSTORE PUSH2 0x77E DUP2 PUSH2 0x745 JUMP JUMPDEST SWAP1 POP SWAP2 SWAP1 POP JUMP JUMPDEST PUSH32 0x566F74696E67206973206E6F74206163746976652E0000000000000000000000 PUSH0 DUP3 ADD MSTORE POP JUMP JUMPDEST PUSH0 PUSH2 0x7B9 PUSH1 0x15 DUP4 PUSH2 0x6A5 JUMP JUMPDEST SWAP2 POP PUSH2 0x7C4 DUP3 PUSH2 0x785 JUMP JUMPDEST PUSH1 0x20 DUP3 ADD SWAP1 POP SWAP2 SWAP1 POP JUMP JUMPDEST PUSH0 PUSH1 0x20 DUP3 ADD SWAP1 POP DUP2 DUP2 SUB PUSH0 DUP4 ADD MSTORE PUSH2 0x7E6 DUP2 PUSH2 0x7AD JUMP JUMPDEST SWAP1 POP SWAP2 SWAP1 POP JUMP JUMPDEST PUSH32 0x416C726561647920766F7465642E000000000000000000000000000000000000 PUSH0 DUP3 ADD MSTORE POP JUMP JUMPDEST PUSH0 PUSH2 0x821 PUSH1 0xE DUP4 PUSH2 0x6A5 JUMP JUMPDEST SWAP2 POP PUSH2 0x82C DUP3 PUSH2 0x7ED JUMP JUMPDEST PUSH1 0x20 DUP3 ADD SWAP1 POP SWAP2 SWAP1 POP JUMP JUMPDEST PUSH0 PUSH1 0x20 DUP3 ADD SWAP1 POP DUP2 DUP2 SUB PUSH0 DUP4 ADD MSTORE PUSH2 0x84E DUP2 PUSH2 0x815 JUMP JUMPDEST SWAP1 POP SWAP2 SWAP1 POP JUMP JUMPDEST PUSH32 0x4E487B7100000000000000000000000000000000000000000000000000000000 PUSH0 MSTORE PUSH1 0x11 PUSH1 0x4 MSTORE PUSH1 0x24 PUSH0 REVERT JUMPDEST PUSH0 PUSH2 0x88C DUP3 PUSH2 0x5D0 JUMP JUMPDEST SWAP2 POP PUSH32 0xFFFFFFFFFFFFFFFFFFFFFFFFFFFFFFFFFFFFFFFFFFFFFFFFFFFFFFFFFFFFFFFF DUP3 SUB PUSH2 0x8BE JUMPI PUSH2 0x8BD PUSH2 0x855 JUMP JUMPDEST JUMPDEST PUSH1 0x1 DUP3 ADD SWAP1 POP SWAP2 SWAP1 POP JUMP INVALID LOG2 PUSH5 0x6970667358 0x22 SLT KECCAK256 DUP15 DUP3 0xEA EXTSTATICCALL 0xCA CODECOPY PUSH2 0x2864 0xA5 0xD0 CHAINID EOFCREATE 0xF6 0x4E SIGNEXTEND LT RJUMP 0xD07 DUP13 PUSH12 0x8B64E723F0D634A243006473 PUSH16 0x6C634300081E00330000000000000000 "
				},
				"gasEstimates": {
					"creation": {
						"codeDepositCost": "460600",
						"executionCost": "24755",
						"totalCost": "485355"
					},
					"external": {
						"Admin()": "2595",
						"endVoting()": "26626",
						"getResult()": "infinite",
						"noVotes()": "2492",
						"startvoting()": "36676",
						"votedAddress(address)": "2878",
						"voting(bool)": "53633",
						"votingActive()": "2517",
						"yesVotes()": "2491"
					}
				},
				"methodIdentifiers": {
					"Admin()": "ff1b636d",
					"endVoting()": "c3403ddf",
					"getResult()": "de292789",
					"noVotes()": "b5b47f42",
					"startvoting()": "72851369",
					"votedAddress(address)": "9432a10c",
					"voting(bool)": "f6df3e5d",
					"votingActive()": "408e2727",
					"yesVotes()": "fb286c65"
				}
			},
			"storageLayout": {
				"storage": [
					{
						"astId": 3,
						"contract": "contracts/Q7_VotingSystem.sol:VotingSystem",
						"label": "Admin",
						"offset": 0,
						"slot": "0",
						"type": "t_address"
					},
					{
						"astId": 5,
						"contract": "contracts/Q7_VotingSystem.sol:VotingSystem",
						"label": "votingActive",
						"offset": 20,
						"slot": "0",
						"type": "t_bool"
					},
					{
						"astId": 9,
						"contract": "contracts/Q7_VotingSystem.sol:VotingSystem",
						"label": "votedAddress",
						"offset": 0,
						"slot": "1",
						"type": "t_mapping(t_address,t_bool)"
					},
					{
						"astId": 11,
						"contract": "contracts/Q7_VotingSystem.sol:VotingSystem",
						"label": "yesVotes",
						"offset": 0,
						"slot": "2",
						"type": "t_uint256"
					},
					{
						"astId": 13,
						"contract": "contracts/Q7_VotingSystem.sol:VotingSystem",
						"label": "noVotes",
						"offset": 0,
						"slot": "3",
						"type": "t_uint256"
					}
				],
				"types": {
					"t_address": {
						"encoding": "inplace",
						"label": "address",
						"numberOfBytes": "20"
					},
					"t_bool": {
						"encoding": "inplace",
						"label": "bool",
						"numberOfBytes": "1"
					},
					"t_mapping(t_address,t_bool)": {
						"encoding": "mapping",
						"key": "t_address",
						"label": "mapping(address => bool)",
						"numberOfBytes": "32",
						"value": "t_bool"
					},
					"t_uint256": {
						"encoding": "inplace",
						"label": "uint256",
						"numberOfBytes": "32"
					}
				}
			},
			"userdoc": {
				"kind": "user",
				"methods": {},
				"version": 1
			}
		}
	}
}